:100000000C945E020C947B020C947B020C947B0299
:100010000C947B020C947B020C947B020C947B026C
:100020000C947B020C947B020C9470210C94432260
:100030000C94FD1B0C947B020C947B020C947B02B1
:100040000C947B020C947B020C947B020C947B023C
:100050000C947B020C94951C0C947B020C947B02F8
:100060000C947B020C947B020C947B020C947B021C
:100070000C947B020C947B020C947B020C947B020C
:100080000C947B020C947B020C947B020C947B02FC
:100090000C947B020C947B020C947B020C947B02EC
:1000A0000C947B020C947B020C947B0229003A0096
:1000B0003B003C003D003E003F0040004100350059
:1000C0001E001F0020002100220023002400250024
:1000D0002B0014001A000800150017001C0018005F
:1000E0000C00390004001600070009000A000B008C
:1000F0000D000E00E1001D001B00060019000500A8
:10010000110010003600E000E300E2008B002C003C
:100110002C008A0088005000420043004400450043
:100120004600260027002D002E0089002A0012001C
:1001300013002F00300028000F003300340032007D
:1001400037003800870052004A0051004F0001007C
:100150000100010001000100010001000100010097
:100160000100010001000100010001000100010087
:100170000100010001000100010001000100010077
:100180000100010001000100010001000100010067
:100190000100010001000100010001000100010057
:1001A0000100010001000100010001000100010047
:1001B0000100010001000100010001000100010037
:1001C0000100010001000100010001000100010027
:1001D0000100010001000100010001000100010017
:1001E0000100010001000100010001000100010007
:1001F00001000100010001000100010001000100F7
:1002000001000100010001000100010001000100E6
:1002100001000100010001000100010001000100D6
:1002200001000100010001000100010001000100C6
:1002300001000100010001000100010001000100B6
:1002400001000100010001000100010001000100A6
:100250000100010001000100010001000100010096
:100260000100010001000100010001000100010086
:100270000100010001000100010001000100010076
:100280000100010001000100010001000100010066
:10029000010000000000000000002A2B28000000E0
:1002A0000000000000000000000000000029000025
:1002B00000002C1E3420212224342627252E362D02
:1002C0003738271E1F202122232425263333362E9C
:1002D00037381F0405060708090A0B0C0D0E0F100E
:1002E0001112131415161718191A1B1C1D2F313053
:1002F000232D350405060708090A0B0C0D0E0F10F7
:100300001112131415161718191A1B1C1D2F313032
:10031000354C00000000000000000000000000005C
:1003200000000000000000000000000000000000CD
:100330000000000000007E0F00D4FFFFFFC7000098
:1003400000780C036A00700038003100660000007D
:10035000180361006C0065006B0074006F00720090
:100360005F006400690079000000040309040902C9
:100370005B00030100A0FA09040000010301010071
:100380000921110100012244000705810308000131
:1003900009040100020300000009211101000122EB
:1003A0002200070582032000010705030320000146
:1003B00009040200010300000009211101000122CB
:1003C0007B000705840320000112010002000000E9
:1003D00008444101000001010200010660FF0961BB
:1003E000A1010962150026FF009520750881020908
:1003F00063150026FF00952075089102C0050109CC
:1004000002A10185020901A10005091901290815A8
:100410000025019508750181020501093009311592
:1004200081257F95027508810609381581257F95FC
:100430000175088106050C0A38021581257F950192
:1004400075088106C0C005010980A1018503190155
:100450002AB700150126B700950175108100C00567
:100460000C0901A101850419012AA002150126A089
:1004700002950175108100C005010906A10105075B
:1004800019E029E7150025019508750181029501FC
:10049000750881010507190029FF150026FF009541
:1004A0000675088100050819012905150025019523
:1004B0000575019102950175039101C011241FBEBC
:1004C000CFEFDAE0DEBFCDBF11E0A0E0B1E0E0E5C4
:1004D000FAE402C005900D92A63AB107D9F722E0DE
:1004E000A6EAB1E001C01D92A13AB207E1F70E946D
:1004F00079110C94C2240C9400008330B8F4693054
:10050000A8F4493098F4E42FF0E099E0699FE00DF9
:10051000F11D112491E5899FE00DF11D1124EE0FCD
:10052000FF1FE455FF4F85919491089581E090E07D
:10053000089581E008950E949902089581E0089548
:100540000E94990208950E94A002089508950E94B1
:10055000A6020895A6E0B0E0E0EBF2E00C941E24C1
:1005600049835A839E833091AD0189819A813111EB
:100570001AC03E81332399F0222389F00E942F086C
:10058000182F682F89819A810E940B0869817A81CE
:10059000812F0E94200F2696E3E00C943A240E94BB
:1005A0001D08182FF3CF0E942F0869817A81F1CF9F
:1005B000FC01262F40815181628173818481958164
:1005C0000E94AA020895CF93DF93D82FC92F61E02C
:1005D0000E94D8026D2F7C2F0E949B02DF91CF9149
:1005E0000895CF93DF93D82FC92F60E00E94D802DF
:1005F0006D2F7C2F0E94A702DF91CF91089581E09B
:1006000008950E94FF020895CF93C82F0E94FF060D
:100610008C2F0E9401032FEF84E39CE02150804047
:100620009040E1F700C00000CF91089581E00E9462
:1006300004030E94B91C089580E00E9404030E94F4
:10064000CA1C08950F931F93CF93DF938C0161E031
:100650000E94D802EC01B8010E945619882309F4BF
:1006600042C0B801CE010E94A3028823E1F1B80183
:10067000CE010E9464188823B1F1B801CE010E9416
:100680007413882381F1B801CE010E944913882395
:1006900051F1B801CE010E94A518882321F1F8017B
:1006A0008581882381F0CA35FCE7DF0739F178F4CA
:1006B000C130ECE7DE07F9F0C330FCE7DF07C9F033
:1006C000C115DC4771F0C8010E949E020DC0CB35F8
:1006D000ECE7DE07B1F0CC35DC47A9F70E944F0C00
:1006E000F2CF0E94160380E0DF91CF911F910F910E
:1006F00008950E94610C0E941C03F5CF0E94590CC2
:10070000E2CF0E945D0CDFCF0E94D91B0E94AB0399
:1007100008950E94AF030E94DE1B0895089581E0B2
:1007200008950895CF93DF93D82F0E948F03C82F89
:10073000882319F08D2F0E9491038C2FDF91CF9188
:1007400008950895CF93C82F0E948E038C2F0E9486
:100750009203CF91089580E00E94A20308950E9421
:10076000AF1A0E94A2030895CF930E94AF1AC82F18
:100770008091A8018C1779F0C093A8010E94691C90
:100780006093A9017093AA018093AB019093AC018F
:100790008C2F0E94A203CF910895ADE0B0E0E3ED6D
:1007A000F3E00C941F24488759876A877B878C87DE
:1007B0009D8791110E948C0B1F8286E0FE01389666
:1007C000DE01119601900D928A95E1F78D818111DC
:1007D0000DC029813A814B815C816D817E818F8141
:1007E0000E94D20A2D96E2E00C943B24CE010196A1
:1007F0000E94E3028111EDCFF5CFFC0184818130AD
:1008000021F4808191810E9458080895662329F07F
:100810000E94E2140E94B81508950E944015FACF74
:10082000CF93C82F882399F08CEF8C0F813A88F4EE
:100830008C2F0E94361B882329F08C2F0E947B1B53
:100840000E94FD0B8C2F0E94731B0E94FD0BCF9109
:10085000089580E28C0F883048F4C77081E001C0B1
:10086000880FCA95EAF70E946D0BEFCF8BE58C0FCE
:10087000833038F42C2F2452330BC9010E94D61A2E
:10088000E6CFE8E5EC0FEB3150F4F0E0EE0FFF1FA0
:10089000E85EFE4F808191810E94FC1AD8CF83E3ED
:1008A0008C0F8331A0F661E08C2F0E940604CFCF1D
:1008B000882381F19CEF980F913A28F40E947B1BCA
:1008C0000E94FD0B089590E2980F983050F48770C5
:1008D00091E001C0990F8A95EAF7892F0E94730B66
:1008E000EFCF9BE5980F933028F480E090E00E94D2
:1008F000D61A089598E5980F9B3128F480E090E08F
:100900000E94FC1A089593E3980F933118F460E065
:100910000E94060408951F93CF93DF93182FEB01D5
:100920000E941004209739F4812F0E945804DF910F
:10093000CF911F9108958FE99FE00197F1F700C0D3
:1009400000002197EFCF60E070E0893311F460E59B
:1009500070E00E948B040895882321F00E946D0BA3
:100960000E94FD0B0895882321F00E94730B0E94C2
:10097000FD0B0895A0E0B0E0E0ECF4E00C94192445
:100980006C01D62FC72FFC011581068102950F70CF
:100990000E94620BE82E8823F9F0E12E1123E1F08A
:1009A0008C2F807F803461F080E28D0F8830F0F0F2
:1009B0008C2F807E803221F4D230C0F00023B1F041
:1009C00080916B0282FF12C082E00E94220C0E9482
:1009D000620B91E0E82EE926EC2FE295EF70C03C27
:1009E000B0F5F0E0EC53FB4D0C940224E12CF4CF75
:1009F0000C2F0F70C03110F00295007F112399F079
:100A0000002359F080E28D0F883010F0D11107C01B
:100A1000802F0E946D0B0E94FD0B8D2F51C0802FE7
:100A20000E947E0BF8CF8D2F0E945804002379F08E
:100A300080E28D0F883010F0D11104C0802F0E9409
:100A4000730B03C0802F0E94840B0E94FD0BEE20CD
:100A500089F00E945E0B80FD0DC0F60115820E9498
:100A6000580B0E947907C6010E94C6060E94580BC7
:100A70000E948507CDB7DEB7E8E00C943524FC2F43
:100A8000FF70FF2EC07FC03219F0F29480EFF82281
:100A9000DD2341F0D130D1F1112309F444C000230A
:100AA000F1F0BBCF80916B0282FD15C0112359F08C
:100AB000FF2029F08F2D0E946D0B0E94FD0B80E01E
:100AC0000E941004C4CF80E00E945804FF2009F463
:100AD000BECF8F2DB4CF112369F0011104C08F2D2B
:100AE0000E94AC04B4CF013009F0B1CF8F2D0E9429
:100AF000A40BADCF0111ABCF8F2D0E94B3048F2D6E
:100B00000E94B00B8F2D0E94930BA1CF112321F0D7
:100B1000063008F09CCFE3CF053008F098CF8F2D3A
:100B20000E94B30494CF0023D1F3D93349F42FEFBB
:100B300087EE93E0215080409040E1F700C0000034
:100B40008D2F0E94580483CF8C2F869586958370B5
:100B5000882369F0813009F07ACF8D2F9C2F937014
:100B6000111102C080E090E00E94FC1A70CF8D2F1E
:100B70009C2F9370111102C080E090E00E94D61A61
:100B800066CF612F8D2F0E94060461CF8C2F83705A
:100B9000811134C0111124C04D2F429546954770E4
:100BA000440F440F8D2F8F70042E01C0880F0A94BC
:100BB000EAF7D071DD2341F02FE030E001C0220FD1
:100BC0004A95EAF7D22FD095C695C695C3708D2B5E
:100BD000C23071F0C33079F0C13039F00E9455074E
:100BE0000E94AF1A0E94A20332CF0E944F07F8CF93
:100BF0000E945B07F5CF0E944C07F2CF112339F119
:100C0000C0FFEECF4D2F429546954770440F440FDD
:100C10008D2F8F70042E01C0880F0A94EAF7D071CF
:100C2000DD2341F02FE030E001C0220F4A95EAF7C2
:100C3000D22FD095C695C695C3708D2BC23069F062
:100C4000C33071F0C13031F00E94A707C9CF8230A4
:100C500038F2D8CF0E94A107C3CF0E94AD07C0CF02
:100C60000E946707BDCFCF70112339F08C2F0E94EF
:100C700079078D2F0E94AC04B3CF8D2F0E94B3044F
:100C80008C2F0E948507ACCFD23F31F170F4D03F5A
:100C9000B9F0D13FB1F1112309F44EC0002309F49A
:100CA00048C08D2F0E9410049BCFD33FE1F0D43F6A
:100CB00021F11111F3CF01114DC08C2F8F71E1CFB4
:100CC000112341F0053008F08BCF8C2F8F710E94DB
:100CD000950786CF0530F7CF8C2F8F711111D1CFAB
:100CE0000E9479077DCF112329F08C2F8F710E94EC
:100CF000700776CF0E946C0773CF80916B0282FDE4
:100D000006C08C2F8F71112309F4BBCFE9CF1123BB
:100D100031F063E08C2F8F710E94040C61CF81E071
:100D20000E94220C023008F45BCF82E00E94220C69
:100D300057CF8C2F8F71D4CF002309F4BECFD93376
:100D400049F4EFEFF7EE23E0E150F0402040E1F707
:100D500000C000008D2F0E94580442CF0F931F93B4
:100D6000CF93DF93EC01688179818D810E946508C2
:100D70008C010E94B3070E944B07B801CE010E946C
:100D8000BA04DF91CF911F910F910895CF93DF9314
:100D9000EC018C81882399F0CE010E9422038111FD
:100DA00011C00E94620B882351F08D81882339F095
:100DB00080916B0282FF03C082E00E94220CDF91CF
:100DC000CF910895CE010E94AE06CE010E94F1029D
:100DD000F6CF80E090E00E94D61A80E090E00E947A
:100DE000FC1A0E948C0B0E94FD0B0E94D5150E94DC
:100DF000B81508950E94831B0E94E90608950E9479
:100E00007B0B0E94FA060895282F92959F709630CA
:100E100091F060F4925F9F70923030F481E0203F57
:100E200079F030F4283E30F080E008959A5FF3CFF7
:100E3000243FD1F7089581E0283EE0F3213FF9CF28
:100E40000895FC018481882339F0808191810E947A
:100E500058080E940407089580E00895A6E0B0E0D5
:100E6000E4E3F7E00C941F242696E2E00C943B2484
:100E7000A7E0B0E0EEE3F7E00C941F242796E2E051
:100E80000C943B2408950E94420708950E94430752
:100E90008093D001089508950E9446070895909187
:100EA000D001892B0E94460708959091D001892393
:100EB0000E94460708959091D00189270E94460715
:100EC00008950E94420708950E94610708950E94B4
:100ED00064078093CF01089580E00E94670708951A
:100EE00091E001C0990F8A95EAF7892F0E94670760
:100EF000089521E030E001C0220F8A95EAF7809141
:100F0000CF01822B0E946707089521E030E0A901FC
:100F100002C0440F551F8A95E2F7CA01809590914F
:100F2000CF0189230E946707089521E030E001C0C6
:100F3000220F8A95EAF78091CF0182270E946707E6
:100F400008959091CF01892B0E9467070895909191
:100F5000CF0189230E94670708959091CF018927C7
:100F60000E946707089508959B01677091E001C092
:100F7000990F6A95EAF763E0369527956A95E1F748
:100F8000B901660F771F260F371FFA01E20FF31F13
:100F900040E050E0682F70E08191DF0111979B01E4
:100FA000042E02C0369527950A94E2F72170219508
:100FB0002827292328272C934F5F5F4F4330510563
:100FC00059F708959C01A82FA77083E036952795BF
:100FD0008A95E1F7C901880F991F820F931FFB01C2
:100FE000E80FF91F40E050E080E0219130E00A2E48
:100FF00002C0369527950A94E2F721703327042E14
:1010000001C0220F0A94EAF7822B4F5F5F4F4330F3
:10101000510559F70895282F862F993068F4293003
:1010200058F4622F70E029E0929F600D711D112429
:101030004EEA51E00E94B4070895292F993068F4D0
:10104000893058F490E06EEA71E039E0239F800D1A
:10105000911D11240E94E207089580E00895A0E008
:10106000B0E0E5E3F8E00C941A247C010091CF0194
:101070008091D001082BC2E0D0E010E0C8010C2E16
:1010800002C0959587950A94E2F780FD09C02197E3
:10109000A8F7D12C8D2DCDB7DEB7E7E00C94362420
:1010A000DC2EB7018C2F0E942C0F019781F3F2CF19
:1010B000CF93DF93D82FC92F0E942F086D2F7C2F3D
:1010C0000E942C0FDF91CF9108951F93CF93DF9350
:1010D000162FD72F9091AD01992341F0862F972F8E
:1010E0000E945808DF91CF911F910895882381F0C5
:1010F000862F972F0E942F08C82F682F812F9D2F92
:101100000E940B08612F7D2F8C2F0E942C0FEACF9D
:10111000862F972F0E941D08C82FF4CFE1E0F0E042
:10112000DF0102C0AA0FBB1F6A95E2F7BD01DF0114
:1011300002C0AA0FBB1F4A95E2F76A2B01C0EE0F4F
:101140002A95EAF7962F9823961302C08E2B0895BE
:10115000E0958E230895242F462F682F8091CF018C
:101160000E948E080E94670708950F931F93CF93E4
:10117000E091D101C7E08091D2018E1304C0CF91DC
:101180001F910F9108950E2F10E0CE9FF0011124B2
:10119000ED52FE4F208131814281538164817581FE
:1011A00086810E943807F8013196E770E4CF2091DC
:1011B0000B0230910C0240910D0250910E02609191
:1011C0000F0270911002809111020E943807089559
:1011D00080911102803178F480911002882359F0B7
:1011E000E091D1012091D20130910C0240910B028B
:1011F00057E02E1301C008956E2F70E05E9FF0013E
:101200001124DF01AD52BE4F14968C9114978823A0
:1012100061F111968C911197831327C08C918413DF
:1012200024C015968C91159781111FC012968D912F
:101230009C91A0910D02B0910E028A1B9B0B883CE1
:10124000910598F4809111028F7080618093110252
:10125000E752FE4F80818F70806180838BE092E047
:101260000E94C6060E94B5080895FB013196E770FA
:10127000C0CFE091D1019091D20127E0E91302C0E3
:1012800080E00895AE2FB0E02E9FF0011124ED52C2
:10129000FE4F3181361306C03081381303C03581CB
:1012A000341304C0FD013196E770E8CF81E0089562
:1012B0008F929F92AF92BF92DF92EF92FF920F9325
:1012C0001F93CF93DF93CDB7DEB72D970FB6F8946A
:1012D000DEBF0FBECDBF8C0186E0F801DE0118969F
:1012E00001900D928A95E1F7F801E080F580A280E7
:1012F000B38084819BE0892E92E0992E90910F0219
:1013000091111BC0882309F4FCC0FF2009F43DC1E2
:10131000C8010E942107882309F437C187E0F8013A
:10132000D40101900D928A95E1F7C4010E94FD035A
:101330000E94E8080E94D708E4C0D09010022091D3
:101340000D0230910E02A501421B530BDD2009F462
:10135000DBC0483C510508F0A6C0882309F4D1C081
:1013600090910C02918080911102803108F06BC045
:10137000991228C090910B029E1124C0F1105DC0FB
:101380008F708061809311020E94D7088BE092E0F9
:101390000E94C60680911102F8018683F12C8F2DE0
:1013A0002D960FB6F894DEBF0FBECDBFDF91CF9163
:1013B0001F910F91FF90EF90DF90BF90AF909F90A3
:1013C0008F900895F11039C040E0692D8E2D0E9454
:1013D000390940E0692D8E2D0E943909F82E8111BE
:1013E000DDCF888599850E945808292F22952F7076
:1013F000903450F49F70223080F0992399F0F801D6
:101400009681903178F4CBCF2A5F2F70223078F01C
:10141000C8010E94C606FD2CC2CF992319F088236B
:1014200009F4BDCF805E883008F4B9CFF1CF803F9A
:1014300008F4B5CF815F8230F7CF809111028160CF
:1014400080931102ABCF991207C090910B029E11AD
:1014500003C0FF2009F479C0C8010E942107882336
:1014600009F493C0FF2009F490C0809111028032EA
:1014700088F020910B0230910C023A832983BC82C0
:10148000AB8290910F029D831E828F83CE010196C5
:101490000E94C60687E0F801ABE0B2E001900D9231
:1014A0008A95E1F745CF909111029031A0F44885DB
:1014B00059856A857B858C859D850E942E078BE0EA
:1014C00092E00E94C60687E0F40111928A95E9F73E
:1014D0000E94D70863CF8823A1F020910C0281815C
:1014E0002813BACF80910B028E11B6CFF110B4CF72
:1014F0009683C8010E94C60687E0F40111928A957E
:10150000E9F7FF24F3944BCF483C510508F041C064
:101510008823B9F3FF20C9F190910C0281819813BF
:101520002AC080910B028E1126C08091110280FD8D
:1015300019C08031B8F08683807F803F39F0868182
:10154000982F907F905F8F70892B8683C8010E94AF
:10155000C60687E0F801ABE0B2E001900D928A95F3
:10156000E1F7E8CE87E0F801ABE0B2E001900D9240
:101570008A95E1F7C6CFC8010E94210781118ACF61
:1015800080911102816080931102C8010E94C606F9
:10159000B8CF488559856A857B858C859D850E9455
:1015A0002E0791CFAEE0B0E0E8EDFAE00C941E24F7
:1015B000288739874A875B876C877D878E87CE012E
:1015C00008960E9458098823B1F06C85662341F083
:1015D000288539854A855B857D858E850E943807FB
:1015E00017E08091D1019091D20189133EC02E96CF
:1015F000E3E00C943A2487E0FE013896DE01119670
:1016000001900D928A95E1F72091D2014091D1018C
:101610008C85882329F330E0C901019687709927CA
:1016200050E08417950799F097E0929FD001939F1F
:10163000B00D1124AD52BE4FFE01319601900D92B6
:101640009A95E1F78093D2010E94B508C9CF0E9414
:10165000FF061092D2011092D10187E0EBE0F2E098
:10166000DF011D928A95E9F7BBCF189FC0011124B5
:101670008D529E4F0E945809882309F4B8CFE091FB
:10168000D1011E9FF0011124ED52FE4F20813181C6
:10169000428153816481758186810E9438078091DF
:1016A000D10190E00196877099278093D10199CF5D
:1016B00080911A02869586958695089580911A02E2
:1016C0008770089590911A02977081E0911101C07E
:1016D00080E0089580912602089590912602982B2B
:1016E000909326020895982F909580912602892341
:1016F0008093260208951092260208959091250263
:10170000982B909325020895982F9095809125020B
:101710008923809325020895109225020895089543
:101720000E948F0B089590911B02292F28232223BA
:1017300031F08095892380931B020E94900B0895BD
:1017400008950E94A00B089590911C02292F282330
:10175000281729F0982B90931C020E94A10B089542
:1017600090911C02292F2823222331F08095892370
:1017700080931C020E94A10B089580911C02882373
:1017800029F010921C0280E00E94A10B08950F9393
:101790001F93CF93DF930091000110910101C0913D
:1017A000260280912502C82BD0911C02DD2331F046
:1017B0000E94221B81110E94BD0BCD2BF801C0831A
:1017C000C0910001D091010148E050E062E172E077
:1017D000CE010E945A24892B59F088E0FE01A2E133
:1017E000B2E001900D928A95E1F7CE010E94BC1AF9
:1017F000DF91CF911F910F9108950E94C70B08951B
:1018000008950E94000C089590916B0292FF11C000
:1018100098E0899F90011124622B60931A020E9424
:10182000790780911A028695869586950E94010C0B
:1018300008950E947907089510921A0280E00E948C
:10184000010C089590911A028095892380931A02C1
:10185000282F277021110DC0891759F090916B0224
:1018600092FF07C08695869586950E9485070E94FF
:101870001C0C089590916B0292FB222720F92817E7
:1018800069F080FB92F990936B0280916A029091CB
:101890006B020E94830C82E00E94220C08958091CA
:1018A0006B0282FB882780F991E089270E943A0C1D
:1018B000089581E00E943A0C089580E00E943A0C5D
:1018C00008956FEF7FEF80E090E00E94AC240895D0
:1018D00080E090E00E947824853E9E4F19F40E949B
:1018E000E018089580E0089582E090E00E9470245E
:1018F000089583E090E00E947024089584E090E0D1
:101900000E9478240895BC0184E090E00E94AC24F9
:101910000895AB01BC018FE090E00E94A0240895DF
:10192000AB01BC0183E190E00E94A024089560E037
:1019300070E0CB010E94900C089560E070E0CB0154
:101940000E94890C0E94970C0895A8E0B0E0EBEA91
:10195000FCE00C941F2465EE7EEF80E090E00E9496
:10196000AC2460E082E090E00E948E2481E08093CD
:10197000D00161E083E090E00E948E2460E074E199
:1019800084E090E00E94AC2460E086E090E00E9459
:101990008E2460E087E090E00E948E2440E050E0DA
:1019A000BA0188E090E00E94A02460E083E290E029
:1019B0000E948E2460E08CE090E00E948E2460E023
:1019C0008DE090E00E948E2419821A821B821C8274
:1019D0001D821E821F82188648E050E067E170E099
:1019E000CE0101960E947E2440E050E0BA018FE1D2
:1019F00090E00E94A02480E00E94F9180E9438190B
:101A00000E949D0C2896E2E00C943B240E94A50CB9
:101A10000895682F8EE090E00E948E240895A6E03D
:101A2000B0E0E5E1FDE00C941D240E945D1C8C01FA
:101A300080912702909128028017910779F01982EE
:101A40001A820E945D1CBC0149815A8180E090E0AD
:101A50000E94CD0310932802009327022696E4E00B
:101A60000C9439240E94691C60933F0270934002D9
:101A7000809341029093420260933B0270933C0238
:101A800080933D0290933E020895089508950E9428
:101A9000450D089508950E944A0D089584E290E14D
:101AA0000E9490110E94460D0E94470D089581E00A
:101AB00008950E94570D08950E94570D08950895A6
:101AC00008950E945F0D0E94600D08950E94680CA9
:101AD000811102C00E94060D0E94740C8093430283
:101AE0000E947E0C90936B0280936A020E94B31155
:101AF0000E94790C0E944C078091CF010E946407DC
:101B000008950E94541C0E9448190E94E1100E94EE
:101B1000660D0E94A1030E944B0D0895A6E0B0E05F
:101B2000E4E9FDE00C9413240E94590D81110AC0D0
:101B30000E940F0D0E94F6150E94B4032696EEE057
:101B40000C942F240E94F71029E2822E22E0922E7C
:101B5000640110E0F601E190F1906F01812F0E9485
:101B60002E101F5F193009F44DC0E816F90691F3E5
:101B70008091430281FD0E9437100E945C0D782EF7
:101B8000F12C662463948F2D0E942E108C01F40199
:101B9000A190B1904F018A159B0569F1A826B9263D
:101BA000E12CCC24C394D12CC5018C219D21892BFF
:101BB000C1F07720B1F0E982FA820E945D1C9C831B
:101BC0008B836D8221E0C8018C219D21892B09F432
:101BD00020E049815A816B817C818D81922F0E9406
:101BE000CD03E394CC0CDD1CF9E0EF12DDCFF40162
:101BF000329711830083F39489E0F812C4CF0E94D6
:101C0000320D98CFE816F90609F0B2CF91CF1F93A5
:101C1000CF93DF930E94310FEC01811522E59207EB
:101C200008F053C0811540E5940708F0DDC0803E00
:101C30009105F8F48D3C910508F0AEC0883A910505
:101C400080F4853A910508F099C08130910521F022
:101C50000497813A910550F4CE01DF91CF911F9105
:101C60000895885A91094B9708F48BC0C0E0D0E0E2
:101C7000F3CF811550E49507F8F4C11580E2D80739
:101C800008F0CBC0C83ED10538F3CE019A95811536
:101C90009F4160F78D2F0E94D50F182FCE019927F5
:101CA0000E94310F212F30E0322F2227E901CC276B
:101CB000DF71C82BD92BD0CF99270E94310FCC27A9
:101CC000DF70C82BD92BD06AC7CF803842E5940784
:101CD000C8F5803652E5950708F067C0C03482E544
:101CE000D807B0F08C2F86958695877020E2829F6A
:101CF000C0011124C37021E030E0A90102C0440FEB
:101D0000551FCA95E2F7EA01C82BD92BDC68A4CF8E
:101D1000C03252E5D50708F041C08C2F86958695D4
:101D200020E2829FC0011124C37021E030E0A901AC
:101D300002C0440F551FCA95E2F7EA01C82BD92B00
:101D4000DD688ACF803C52E5950760F48F71C03A18
:101D5000D24508F03FC090E0982F8827EC01C46F6F
:101D6000D06A7ACF805C9245809708F07FCFDC2FD5
:101D7000CC27CC27DF71C06FD06A6ECFA497D06418
:101D80006BCFC85AD0E0CC0FDD1FC25BDE4F09908D
:101D9000D881C02DD46460CFD0655ECFCF71D0E044
:101DA000DC2FCC27C16FD06A57CF86958695877078
:101DB00020E2829FC0011124C37021E030E0A9011C
:101DC00002C0440F551FCA95E2F7EA01C82BD92B70
:101DD000DA6842CF0E94D50FC82FD0E0DC2FCC2785
:101DE000CC27DF71D06238CF8F710E94D50F65E0AC
:101DF000D695C7956A95E1F7CF70D0E0DC2FCC2758
:101E0000282F30E084FF05C054E0220F331F5A957D
:101E1000E1F7C22BD32BD0691FCF8D2F8F710E947A
:101E2000D50F182FCE0199270E94310F212F30E0B6
:101E3000322F222722273F71282B392BE901D2CFBD
:101E4000462F672F793028F4493018F40E94671222
:101E5000089580E090E008950E94200F0E94070EF0
:101E60000895803E9105D1F1C8F48133910509F4BC
:101E70007FC048F48932910509F46FC08A32910518
:101E800009F47DC0089589339105E1F08238910508
:101E9000C9F08533910509F45BC00895843E91052E
:101EA000D1F148F4823E910531F1833E910541F133
:101EB00081EE90E00895863E9105C1F1873E91053F
:101EC000E1F1089520916A022370211165C02091EB
:101ED0006B0223FF14C089E290E0089520916A020A
:101EE00020FD43C030916B0230FF09C024FF4EC07B
:101EF00080E090E0089520916A0222FDF7CF0895D6
:101F000020916A0222FD45C030916B0230FD44C031
:101F100024FFF5CFEDCF20916B0221FFF0CF809110
:101F20006A0284FDE5CF87EE90E0089520916A0271
:101F300023FFE5CF24FDDCCFF6CF20916A0223FDFD
:101F40002EC030916B0231FFE3CF84EE90E0089514
:101F500020916A0225FFD3CFBECF20916A0225FDD2
:101F600021C020916B0223FFCACF89E390E008953E
:101F700020916A0226FFC3CF8AE290E00895209163
:101F80006A0226FFBCCF81E390E0089583EE90E0E3
:101F9000089582EE90E0089580EE90E0089586EE38
:101FA00090E0089585E390E0AACF90916A0292FFB5
:101FB00010C041E0282F2471243009F040E031E0C6
:101FC000282F2871283009F030E0431711F02CE059
:101FD000822793FF10C041E0282F2471243109F09B
:101FE00040E031E0282F2871283109F030E0431714
:101FF00011F02CE0822730916B0230FF10C051E0CD
:10200000282F2171213009F050E041E0282F28715C
:10201000283009F040E0541711F029E0822731FF01
:1020200010C041E0282F2171213109F040E031E05A
:10203000282F2871283109F030E0431711F029E0EA
:10204000822794FD877E089580E0089508950E9478
:102050002610089508950E942A100895E82FF0E0B0
:10206000EE0FFF1FE258FD4F808191810895089582
:1020700080EA8A95F1F7089500C008950E9438100B
:102080000895F894E82FE295EF70F0E041A18F7089
:1020900021E030E0B90102C0660F771F8A95E2F7B0
:1020A000CB01962F9095942391A392A1892B82A383
:1020B000789408950F931F93CF93DF93CDE8D1E0E9
:1020C00089918F3F11F00E94411081E0C639D807F5
:1020D000B9F7C4E8D1E00DE811E089918F3F11F024
:1020E0000E9441100C171D07C1F7DF91CF911F917E
:1020F0000F910895A0E0B0E0E0E8F0E10C9418241E
:10210000EC01B62E062F10E0C80183579E4F7C01CC
:10211000FC0180818F3F09F44FC0F894E82FE295CD
:10212000EF70F0E091A18F7021E030E001C0220F4C
:102130008A95EAF7892F822B81A382A120952823F3
:1021400022A378940E943C10E4E8F1E041E050E0E2
:10215000C12CD12C21912F3F89F0A22FA295AF70D5
:10216000A05EB0E08C9190E02F7002C095958795AD
:102170002A95E2F781709A01882311F020E030E07F
:10218000C22AD32A440F551F81E0ED38F80711F712
:10219000F70180818F3F11F00E94411061E0C1146E
:1021A000D10409F460E08B2D0E943E10000F111F36
:1021B000C00FD11FD982C882CDB7DEB7E9E00C9439
:1021C00034240E945A1082E1EEE7F2E0DF01982FFA
:1021D0001D929A95E9F7ECE6F2E0DF011D928A95EF
:1021E000E9F789E00E9434110E9427100895A2E1C6
:1021F000B0E0EDEFF0E10C941C24FE01319682E199
:10220000DF011D928A95E9F710E0FE2E0F2F612F56
:102210008F2D902F0E947A101F5F1930C1F742E175
:1022200050E06F2D702F8CE692E00E945A2421E03E
:10223000892B81F420E049E06EE772E08CE692E0C1
:102240000E943511182F0E942B10812F6296E5E015
:102250000C94382482E1EF2DF02FACE6B2E001902F
:102260000D928A95E1F7E7CF0895A0E0B0E0EBE3A7
:10227000F1E10C941924D82EE92EF62ED72F042F35
:10228000C22F222379F081E0809346020E945D1CD8
:10229000909345028093440280E0CDB7DEB7E8E03A
:1022A0000C943524C0904602CC20B1F380914402B6
:1022B000909145020E94861C059770F310E0000F74
:1022C000111FA8016D2D7E2D8F2D9D2F0E945A2448
:1022D000892B41F0A8016D2D7E2D8F2D9D2F0E9401
:1022E0006724CC2D109246028C2FD7CF0E948E0DE2
:1022F00008950E94F61B0E945E1E0E944E0D0E94D1
:10230000781E0E94810D0E94851E0E948A1E0E94D6
:1023100076110E94A41E0E942C1D0E94610DF5CF13
:102320009093A7018093A60108950E94610C0895DF
:1023300080E00E942E10817008950E94F7102FEF08
:1023400086E791E0215080409040E1F700C0000016
:102350000E94F7100E949811882321F00E94951185
:102360000E94B91C08950E949D11089583E008956C
:1023700050E0440F551F92E1699F400D511D1124FB
:1023800092EA899F400D511D1124CA018896089533
:102390000F931F93CF93DF938330C8F46930B8F461
:1023A0004930A8F40E94B8118C010E947024C82FF3
:1023B000D0E0DC2FCC27C80101960E9470249E013A
:1023C000282BC901DF91CF911F910F91089580E0D3
:1023D00090E0F8CF0F931F93CF93DF93122F032F2B
:1023E000833078F4693068F4493058F40E94B811A9
:1023F000EC01602F0E948E24612FCE0101960E9475
:102400008E24DF91CF911F910F9108951F93CF9349
:10241000DF93D0E0C0E011C0412F6C2F8D2F0E94C0
:102420007D029C01412F6C2F8D2F0E94EA111F5FAE
:10243000193091F7CF5FC93011F010E0EDCFDF5FB9
:10244000D33041F7DF91CF911F910895EF92FF9222
:102450000F931F93CF93DF938C01EA017A01E60E6D
:10246000F71ECE15DF0529F4CDB7DEB7E6E00C94F4
:102470003724063E81E0180740F4C80188960E9480
:10248000702489930F5F1F4FECCF80E0FACFEF925B
:10249000FF920F931F93CF93DF938C01EA017A0190
:1024A000E60EF71ECE15DF0529F4CDB7DEB7E6E060
:1024B0000C943724063E81E0180728F46881C8018F
:1024C00088960E948E2421960F5F1F4FEBCF83309A
:1024D00038F4693028F4493018F40E94C81108957E
:1024E00080E090E0089580E1089582EF91E0089502
:1024F000EF92FF920F931F93CF93DF938C01EA012A
:102500007A01E60EF71ECE15DF0529F4CDB7DEB74A
:10251000E6E00C943724023F81E0180748F4C80134
:10252000825F9D4F0E94702489930F5F1F4FEBCFF6
:1025300080E0FACFEF92FF920F931F93CF93DF9338
:102540008C01EA017A01E60EF71ECE15DF0529F4AB
:10255000CDB7DEB7E6E00C943724023F81E01807E0
:1025600030F46881C801825F9D4F0E948E242196BD
:102570000F5F1F4FEACFCF93DF93CEE0D2E060E052
:10258000CE010E948E242196C11584E0D807B9F7A8
:10259000DF91CF910895A8E0B0E0E1EDF2E10C9475
:1025A0001924F82E2FE0281708F46FC08FEF93E05E
:1025B0000E947024811169C00EE012E0F11038C051
:1025C0001A821982FE01339686E0DF011D928A95F8
:1025D000E9F76801BFEFCB1ADB0AC8010E9470243B
:1025E00089831A82882309F450C08130D1F478019C
:1025F00022E0E20EF11CC6010E9470248A83882327
:1026000009F443C09FEF980F9330F8F4680183E01A
:10261000C80ED11CC7010E9470248B838823A9F1A6
:102620001C8260E0CE0101960E948A178601D1CFFC
:10263000011584E0180749F1C8010E9470240F5F5A
:102640001F4F8111F5CFFA94B9CF8430B9F402E06D
:1026500010E0C701AFEFEA1AFA0A0E947024E1E025
:10266000F0E0EC0FFD1FE00FF11F8083882369F07D
:102670008C3731F4FE01E00FF11F12826701D1CFD8
:102680000F5F1F4F0730110521F72896E8E00C94E3
:102690003524CF93DF93EB0186319C4719F50E94D7
:1026A0006A0B9D819923A1F08A7A91E0811101C082
:1026B00090E090934702882349F085E30E94731BC2
:1026C0000E94FD0B80E0DF91CF91089589E2F6CF63
:1026D00080914702882321F085E30E947B1BF0CF85
:1026E00089E2FBCF81E0EFCFCF93DF93EC01FB01D9
:1026F0008581882309F4D2C09E01305723323105E9
:1027000008F0B2C00E947E0C90936B0280936A0224
:10271000FE01E150F047E232F10520F4E053FB4DB9
:102720000C94022480916A02816080936A0293C0B3
:1027300080916B02886080936B028DC080916A02E9
:102740008260F3CF80916A028460EFCF80916A0249
:102750008860EBCF80916B028160EDCF80916B023E
:102760008260E9CF80916A028061DFCF80916A0246
:102770008062DBCF80916A028064D7CF0E94FF061F
:1027800080916A028068D1CF80916A028C60CDCF3F
:1027900080916B028360CFCF80916A028E7FC5CF1C
:1027A00080916B02877FC7CF80916A028D7FBDCFFA
:1027B00080916A028B7FB9CF80916A02877FB5CF03
:1027C00080916B028E7FB7CF80916B028D7FB3CFEC
:1027D00080916A028F7EA9CF80916A028F7DA5CFFA
:1027E00080916A028F7BA1CF0E94FF0680916A02CE
:1027F0008F779BCF80916A02837F97CF80916B0206
:102800008C7F99CF80916A0282FB992790F921E011
:10281000922790FB82F990FB83F987CF80916B021E
:10282000982F909591708E7F892B90FB81F983CFA3
:1028300090916A02892F8F7B96FF806476CF0E94E9
:10284000FF0690916A02892F97FB87F980586DCF18
:1028500081E00E94090D80916A0290916B020E94B2
:10286000830C0E94FF0680E0DF91CF91089580E005
:10287000F0CF90916A02892F8F7E94FF806155CFAF
:1028800090916A02892F8E7F90FF81604ECF909148
:102890006B02892F877F93FF88604DCF81E0E4CF63
:1028A000282F35EB2303C001112497FF04C0805863
:1028B0009109892F089580589F4FFBCF80914E0238
:1028C00080FF0DC06091070170E0660F771F6038D0
:1028D0007105C0F561157105B9F1862F089581FF65
:1028E00007C06091070184E0689FB0011124EFCF19
:1028F00082FF04C06091070188E0F6CF80914D020D
:102900008823E9F0909106016091070170E0891732
:1029100030F093E0660F771F9A95E1F7D8CF869F46
:102920009001879F300D112483E0220F331F8A9579
:10293000E1F7692F70E0C9010E94EE23C8CF68E07B
:1029400070E0CBCF8FE7089581E0089580914E022B
:1029500080FF0CC06091030170E0759567957595D7
:1029600067956115710561F1862F089581FF06C095
:102970006091030170E075956795F3CF6091030155
:1029800070E082FD15C020914C022223B1F090919D
:1029900002016091030170E0291750F4269FA00105
:1029A000279F500D1124692F70E0CA010E94EE2369
:1029B00060387105B0F28FE7089561E070E0D4CF20
:1029C00081E008959091510220915202922B209122
:1029D0005402922B20915302922B992331F098E0CC
:1029E00090934D0291E090934C028D3C31F40E9403
:1029F0005E148195809352020895E2E3E80FE2317C
:102A0000B0F5F0E0EE50FB4D0C9402240E945E14F1
:102A1000F1CF0E945E1481958093510208950E9427
:102A20005E14FACF0E94A6148093530208950E9468
:102A3000A6148195F9CF0E94A61481958093540223
:102A400008950E94A614FACF815D990B21E030E031
:102A500001C0220F8A95EAF780915002822B809361
:102A60005002089580914E02816080934E02089535
:102A700080914E028260F9CF80914E028460F5CF42
:102A8000409151028D3C59F48091520287FF0DC054
:102A900010925202442359F410924D0208C08E3C09
:102AA00081F48091520218169CF3442381F08091A6
:102AB000530290915402892B811159C010924C02FB
:102AC00008958F3C41F447FFF0CF1092510280915E
:102AD00052028823E0CF803D19F41416B4F3E5CFF9
:102AE00090915302893D29F41916FCF61092530275
:102AF000DCCF8A3D19F497FFD8CFF8CF90915402DC
:102B00008B3D29F497FFD1CF10925402CECF8C3D4C
:102B100019F41916CCF3C9CF9FE2980F983090F4AE
:102B2000815D990B21E030E0B90102C0660F771F8B
:102B30008A95E2F7CB01809590915002892380938A
:102B40005002B3CF8D3D31F480914E028E7F809341
:102B50004E02ABCF8E3D21F480914E028D7FF7CF98
:102B60008F3D09F0A2CF80914E028B7FF0CF089568
:102B70000E945D1C2091510230915202232B22238E
:102B800021F080934A0290934B022091530230919E
:102B90005402232B222321F0809348029093490270
:102BA0008FE492E00E94C71A089586E0EFE4F2E015
:102BB000DF011D928A95E9F710924D0210924C02A6
:102BC00010924E020895FC01828181110DC0838113
:102BD00081110AC08481811107C081E09581911122
:102BE00001C080E08170089581E0FCCFA6E0B0E0F4
:102BF000ECEFF5E10C941C2486E0EFE4F2E09E019A
:102C00002F5F3F4FD90101900D928A95E1F7109205
:102C100051021092520210925302109254028B8170
:102C20009C81892B8901882391F080914A0290919F
:102C30004B020E94861C9C0180914D028823C9F1A1
:102C40004091080150E04217530708F43FC08D81BE
:102C50009E81892B882399F08091480290914902A6
:102C60000E94861C9C0180914C02882309F467C055
:102C70004091040150E04217530708F46EC0B801B8
:102C80008FE492E00E948E1B811105C08FE492E0D8
:102C90000E94E31581110E94B81586E0F801AFE4A7
:102CA000B2E001900D928A95E1F72696E5E00C944A
:102CB0003824409109019AE0499FA001112442174C
:102CC000530728F68F5F80934D0202C08F3FD1F7E4
:102CD000FB80FF2059F00E945E1491E01F140CF05D
:102CE0009FEF899F802D112480935102FC80FF204B
:102CF00059F00E945E1491E01F140CF09FEF899F21
:102D0000802D11248093520280915102882309F46E
:102D10009ECFF0905202FF2009F499CF0E945014E8
:102D2000811101C081E0809351028F2D0E945014C7
:102D3000882319F0809352028ACF81E0FBCF409123
:102D400005019AE0499FA00111244217530708F09A
:102D500096CF8F5F80934C0202C08F3FD1F7FD80EA
:102D6000FF2059F00E94A61491E01F140CF09FEF71
:102D7000899F802D112480935302FE80FF2059F0FB
:102D80000E94A61491E01F140CF09FEF899F802DE4
:102D900011248093540280915302882309F46FCF49
:102DA000F0905402FF2009F46ACF0E945014811160
:102DB00001C081E0809353028F2D0E94501488231C
:102DC00019F0809354025BCF81E0FBCFA0E0B0E02C
:102DD000ECEEF6E10C941824E82FF0E0EE56FD4FEF
:102DE000B490282F26952695269530E0F901EE5CC3
:102DF000FC4F0491877010E0082E02C015950795CE
:102E00000A94E2F701701127F901EE5DFC4FE4909E
:102E1000F12C082E02C0F594E7940A94E2F791E0B1
:102E2000E922FF24F901EE5EFC4FC491D0E002C01C
:102E3000D595C7958A95E2F7C170DD27C62ED12CAE
:102E40000115110549F5E114F10431F086EE0E94F7
:102E50001004C601009771F5B6018B2D0E948B04FA
:102E6000C601009779F5E114F104A1F501151105EA
:102E700031F081EE0E945804C6010097C9F5CD2BB0
:102E800031F08CE20E94A304C114D104C9F5CDB77E
:102E9000DEB7E9E00C94342481EE0E941004C601F0
:102EA000009789F2EFE9FFE03197F1F700C00000E9
:102EB0000197F6CFEFE9FFE03197F1F700C000008E
:102EC0000197C8CFEFE9FFE03197F1F700C00000AC
:102ED0000197C7CF86EE0E945804C601009731F2D1
:102EE000EFE9FFE03197F1F700C000000197F6CF5E
:102EF000EFE9FFE03197F1F700C000000197BDCF87
:102F00008FE99FE00197F1F700C0000091E0C91A36
:102F1000D108BACFEF92FF921F93CF93DF93EC01CA
:102F2000162F8881882309F45AC0813009F053C0D4
:102F30008981813071F47E0182E0E80EF11C8A8182
:102F40000E94A304E701812F90E00097E1F521960C
:102F5000E8CF823041F47E01E2E0EE0EF11C8A817E
:102F60000E941004EFCF833041F47E01F2E0EF0EB7
:102F7000F11C8A810E945804E5CF843011F021961B
:102F8000E2CF2A81229680E090E06AE0AE014F5FB6
:102F90005F4F2053330B2A30310550F0009799F2E0
:102FA000EFE9FFE03197F1F700C000000197F6CF9D
:102FB000689FF001699FF00D1124C9018E0F9F1FBA
:102FC0002981EA01E3CFEFE9FFE03197F1F700C093
:102FD00000000197BACF612F0E94E616B8CFDF91AB
:102FE000CF911F91FF90EF9008950F931F93CF9370
:102FF000DF93C42FD22FFC0185818823C9F0409331
:1030000057020E945D1C909356028093550280E205
:103010008C0F883040F4C77081E001C0880FCA95DA
:10302000EAF70E94AC04DF91CF911F910F910895B0
:103030001091570214133CC0809155029091560292
:103040000E94861C883C910598F5C0E2CD0F1D17A3
:1030500041F180E2810F883040F4177081E001C0B7
:10306000880F1A95EAF70E94B304C83020F0802F29
:103070000E94A304D8CF91E08D2F877001C0990FD3
:103080008A95EAF7892F0E94AC04802F0E94A3043E
:10309000D77081E001C0880FDA95EAF70E94B30487
:1030A000C2CF802F0E94A304C83008F0BCCFF0CF5D
:1030B00080E28C0F883008F0B6CFC77081E001C085
:1030C000880FCA95EAF7EACF0F93FC01CB01E851CC
:1030D000FC47E730F10590F5EC5FFA4D0C940224C3
:1030E00006E221EE41EE6AE17CE70E94F51780E0FE
:1030F0000F91089507E225EE45EE6BE17CE7F5CFF1
:1031000006E221EE40EE68E17CE7EFCF07E225EE34
:1031100044EE69E17CE7E9CF06E221EE42EE6CE1A4
:103120007CE7E3CF07E225EE46EE6DE17CE7DDCFFD
:1031300008E221E045EE6EE17CE7D7CFFB01858117
:1031400081111092570281E0D3CFCF93DF939C017E
:10315000FB0127378CE7380739F028373C47F1F077
:1031600081E0DF91CF9108958581882391F00E94BD
:10317000D7180E9479070E94DD18D82F0E94DA180C
:10318000C82F0E94D7184D2F6C2F0E94AB0880E0EB
:10319000E8CF0E94D7180E948507EDCF858188234C
:1031A00019F00E94DA18E5CF0E94DA18F4CF809166
:1031B0000C01089580910B01089580910A010895F2
:1031C00084E290E00E947024843289F485E290E0E9
:1031D0000E947024883059F486E290E00E947024A6
:1031E00091E0853009F090E0892F8170089580E0AA
:1031F000FCCF882381F064E284E290E00E948E2478
:1032000068E085E290E00E948E2465E086E290E02E
:103210000E948E2408956FEF84E290E00E948E2435
:103220006FEF85E290E00E948E246FEFEFCF08955C
:10323000A4E0B0E0EEE1F9E10C941F2487E290E015
:103240000E947024282F30E040E050E0CA01B9010C
:103250002496E2E00C943B240895CF93C62F0E945D
:103260002C196C2F87E290E00E948E24CF91089554
:1032700080E00E94F91860E070E0CB010E942D19F7
:103280000E9406120E94BB1281E00E94F918089564
:103290000E9417190E9418190E942C190E94E01808
:1032A000811102C00E943819089508959C01FB0104
:1032B0008581882351F0A90157574038510530F4D2
:1032C000822F0E94CB1280E0089581E008952FEFB5
:1032D000FC01208308950E946719089580E00895F5
:1032E000CF92DF92FF920F931F93CF93DF93CDB7CF
:1032F000DEB72E970FB6F894DEBF0FBECDBF8D831D
:103300009E83F62E8D819E810E946E19811115C0BB
:10331000AD81BE81EC91E150E33140F5F0E0E55F35
:10332000FA4D0C940224ED81FE8111828CE082839F
:103330006F2D8D819E810E94221D2E960FB6F894CE
:10334000DEBF0FBECDBFDF91CF911F910F91FF90D8
:10335000DF90CF900895AD81BE8111968C9183301E
:1033600099F148F4813081F08230E9F08FEFAD813E
:10337000BE818C93DDCF8430C9F7ED81FE8112824E
:10338000138214821582D4CF0E94691C0E940824E3
:103390006F83788789879A87ED81FE816283738343
:1033A00084839583C5CF0E9418190E9408246B87D7
:1033B0007C878D879E87AD81BE8112966D937D93AC
:1033C0008D939C931597B4CFED81FE81028110E01F
:1033D0006F01B2E0CB0ED11C093011050CF0A8CF63
:1033E000802F0E942E10D60111969C931197129651
:1033F0008C930F5F1F4FEDCFED81FE818181823075
:1034000049F0853009F0B2CFED81FE8182810E94C2
:1034100055198ECFAD81BE8112968D919D910D90E3
:10342000BC91A02D89839A83AB83BC83BC01CD0161
:103430000E9408240E942D197BCFAD81BE81139676
:103440004C91139712966C91129711968C910E9441
:10345000C811982789279827ED81FE819583848359
:1034600067CFAD81BE8114962D913C91159732277F
:103470002327322713964C91139712966C9112972B
:1034800011968C910E94EA1153CF0E94061250CFE0
:103490006F2D8D819E810E946B194ACF0E947312FD
:1034A000ED81FE81818344CF0E9475129827892780
:1034B0009827AD81BE8112969C938E93119738CF39
:1034C000ED81FE81638170E081819281AF014C5F6B
:1034D0005F4F9827892798270E94781229CFAD81BE
:1034E000BE8113966C91139770E011968D919C910B
:1034F0001297AD014C5F5F4F9827892798270E944C
:103500009A1216CF0E94BB1213CF0E94B611C8CFD9
:10351000AD81BE8113966C91139770E011968D91D9
:103520009C911297AD014C5F5F4F98278927982790
:103530000E942612FDCEED81FE81638170E08181C3
:103540009281AF014C5F5F4F9827892798270E948F
:103550004712EECE90935D0280935C020895E09155
:103560005C02F0915D02309729F00190F081E02D2E
:103570000995089580E00895E0915C02F0915D0264
:10358000309721F00280F381E02D09950895DC0148
:10359000E0915C02F0915D02309739F082E08C930B
:1035A0000680F781E02DCD0109950895A3E0B0E0F4
:1035B000ECEDFAE10C941F249C0180915A02909149
:1035C0005B0282179307A1F030935B0220935A02AB
:1035D000E0915C02F0915D02309751F083E08983C5
:1035E0003B832A830084F185E02DCE010196099565
:1035F0002396E2E00C943B24A3E0B0E0E2E0FBE1A0
:103600000C941F249C0180915802909159028217BA
:103610009307A1F03093590220935802E0915C0285
:10362000F0915D02309751F084E089833B832A83D7
:103630000084F185E02DCE01019609952396E2E004
:103640000C943B2440910001509101019A012E5F9E
:103650003F4F485F5F4F80E0F90190812F5F3F4F00
:1036600091118F5F42175307B9F70895882371F0BE
:103670002091000130910101F9013296285F3F4FFE
:103680009191981729F0E217F307D1F780E0089598
:1036900081E008959C01FC0132968FEF90E041910A
:1036A000461751F08F3F19F4411101C0892F9F5FD8
:1036B0009630A9F78F3F09F40895280F311D87FD33
:1036C0003A95F901628308959C01FC013296285FC6
:1036D0003F4F8191861303C0DF0111971C92E217BF
:1036E000F307B9F70895682F8091000190910101C7
:1036F0000E944A1B0895682F80910001909101015A
:103700000E94641B0895E0910001F091010132963E
:1037100086E0DF011D928A95E9F70895DC01FB013F
:1037200011969C9111978181981322C012968C91C9
:103730001297882319F0928189131AC013968C91DD
:103740001397882319F09381891312C015968C91D1
:103750001597882319F0958189130AC014969C91B6
:10376000992321F081E02481291303C080E001C066
:1037700081E08170089508950E94BB1B08958F5FBA
:1037800080935E020E94BC1B089583E080935E02DA
:103790000E94BC1B08950E94BF1B089581E0809386
:1037A0005E020E94BC1B08950E94CE1B08950895DE
:1037B00008950E94D81B0895089508950E94D71B6C
:1037C0000895CF930E94DC1B0E94F7100E94DD1B1E
:1037D000C0E08C2F0E942E10892B31F4CF5FC930AE
:1037E000C1F780E0CF91089581E0FCCF85B7806874
:1037F00085BF85B7806885BF08951F921FB61F9249
:1038000011248F939F93AF93BF9380915F02811197
:1038100013C08091900290919102A0919202B09178
:1038200093024196A11DB11D809390029093910245
:10383000A0939202B0939302BF91AF919F918F9109
:103840001F901FBE1F90189580919802843031F10F
:103850000E94840310925F0288E190E020E40FB69A
:10386000F894A895809360000FBE2093600083B702
:10387000817F846083BF83B7816083BF789488959C
:1038800083B78E7F83BF0FB6F894A89580916000B0
:10389000886180936000109260000FBE08950E94BE
:1038A000FF060E948903089582E084BD93E095BDE0
:1038B0009AEF97BD80936E0008952FB7F89480918A
:1038C000900290919102A0919202B09193022FBF29
:1038D0000895A4E0B0E0EFE6FCE10C941F248FB75C
:1038E000F89420919002309191024091920250916F
:1038F000930229833A834B835C838FBF69817A81EA
:103900008B819C812496E2E00C943B249C014FB770
:10391000F8948091900290919102A0919202B091BE
:1039200093024FBF821B930B089578941F921FB68A
:103930001F9211248F939F93AF93BF938091900216
:1039400090919102A0919202B09193020196A11DD3
:10395000B11D8093900290939102A0939202B09334
:103960009302BF91AF919F918F911F901FBE1F90A7
:10397000189587E797E7909301088093000888E1FE
:103980009AE00FB6F894A895809360000FBE9093CC
:103990006000FFCF88E19AE00FB6F894A895809375
:1039A00060000FBE90936000FFCF80916802089581
:1039B0000895282FCB01BA01309198023430E1F4F8
:1039C0002F702093E9002FEF3091E80035FD07C0FC
:1039D00035ED3A95F1F7000021502111F5CF2091F6
:1039E000E80025FF09C040E050E00E941D1F8091C3
:1039F000E8008E778093E8000895BC0143E050E032
:103A000084E00E94D91C0895BC0146E050E084E0A7
:103A10000E94D91C0895CF93DF93D82FC92F48E077
:103A200050E0682F792F81E00E94D91C88E0ED2FAB
:103A3000FC2FA0E6B2E001900D928A95E1F7DF91AC
:103A4000CF910895792F603231F440E250E0682F31
:103A500082E00E94D91C0895A0E2B0E0E2E3FDE11B
:103A60000C941F2480919802843081F483E0809329
:103A7000E9008091E80082FF09C08091E80085FD9F
:103A800009C08091E8008B778093E800A096E2E07F
:103A90000C943B2440E050E060E270E0CE010196DF
:103AA0000E946C1F8091E8008B778093E80060E2B1
:103AB000CE0101960E947019E9CF80919702811181
:103AC00009C00E94F4200E9451218091E20084608C
:103AD0008093E20008951092970208950E94CE1BF1
:103AE00008956091940281E0611101C080E00E941C
:103AF000C51B08959091980281E0943009F080E010
:103B0000609194020E94CB1B089542E061EC81E039
:103B10000E94702042E261EC84E00E94702042E248
:103B200061EC82E00E94702042E260EC83E00E943F
:103B300070209091980281E0943009F080E06091CB
:103B400094020E94BF1B089580919A02893089F1E6
:103B500048F4823009F4A1C0833009F45BC081309D
:103B600041F008958A3009F488C08B3009F46DC0A3
:103B7000089580919902813A09F04BC08091E80044
:103B8000877F8093E80080919D0290919E02892B0F
:103B900061F060E080E090E070E00E94BB1F8091E7
:103BA000E8008B778093E800089568E080E692E073
:103BB000F3CF80919902813261F580919D029091BD
:103BC0009E028D7F892B29F58091E800877F809365
:103BD000E8008091E80082FF18C09091F300809186
:103BE000F200029731F48091F100813011F08630BB
:103BF00021F48091F100809368028091E8008B7736
:103C00008093E8000E94A42004C080919802811152
:103C1000E0CF089580919902813AD9F780919D0271
:103C200090919E02892BA9F78091E800877F80936D
:103C3000E8008091E80080FFFCCF8091170180931D
:103C4000F1008091E8008E77DBCF8091990281327C
:103C500001F780919D0290919E02892BD1F680916F
:103C6000E800877F8093E8000E94A42080919B0257
:103C7000809317010E94FF06089580919902813276
:103C800041F68091E800877F8093E8000E94A4209D
:103C900080919C0280936902089580919902813AF3
:103CA00009F0B7CF8091E800877F8093E80080918A
:103CB000E80080FFFCCF80916902C1CF84B7877F85
:103CC00084BF0FB6F894A8958091600088618093B6
:103CD0006000109260000FBE80E890E00FB6F8948C
:103CE00080936100909361000FBE0E94D41B0895E1
:103CF0000E94F4200E945121E2EEF0E08081846075
:103D0000808378940E94D42308958DE091E00E94EE
:103D1000AA1A089580919802853031F48091980212
:103D2000853019F00E944F1C08950E94241C809138
:103D30009602882399F30E94E11B882379F30E945D
:103D4000071F0E94FF06EACF08959A0140919F0243
:103D50005091A0020E94AD1E0895AC01CB01D90183
:103D6000252F33272330310521F168F42130310527
:103D700009F443C02230310509F444C080E090E0EA
:103D800020E030E024C02132310551F122323105EA
:103D9000A9F78330910590F7FC01EE0FFF1FE7565E
:103DA000FE4F208131818A569E4FFC01808190E038
:103DB0000EC0CA019927413069F08230910569F03F
:103DC000EAE6F3E0892BD1F6849190E09F012D93F0
:103DD0003C930895E0E5F3E0F7CFE2E4F3E0F4CFBD
:103DE0008330910558F6FC01EE0FFF1FE156FE4FA0
:103DF0002081318189E090E0EACF82E190E029ECF6
:103E000033E0E5CF8BE590E02EE633E0E0CF80E1D4
:103E100089BD82E189BD09B400FEFDCF8091D80043
:103E20008F7D8093D8008091E00082608093E000D5
:103E30008091E00081FDFCCF0895AF92BF92CF92B8
:103E4000DF92FF920F931F93CF93DF936C01EB01EF
:103E50008A010E94C320F82E811123C0011511058B
:103E600039F0F80180819181C81BD90BC80ED91E89
:103E7000A12CB12C2097A9F08091E80085FD22C0EB
:103E80008091E8008E778093E80001151105A1F07C
:103E9000F801808191818A0D9B1D9183808385E04B
:103EA000F82E8F2DDF91CF911F910F91FF90DF9012
:103EB000CF90BF90AF9008950E94C3208823E1F275
:103EC000F82EEFCFF60181916F018093F1002197D9
:103ED000FFEFAF1ABF0ACECFAF92BF92CF92DF9261
:103EE000FF920F931F93CF93DF936C01EB018A0135
:103EF0000E94C320F82E811123C00115110539F04D
:103F0000F80180819181C81BD90BC80ED91EA12C44
:103F1000B12C2097A9F08091E80085FD22C0809106
:103F2000E8008B778093E80001151105A1F0F801F6
:103F3000808191818A0D9B1D9183808385E0F82E7D
:103F40008F2DDF91CF911F910F91FF90DF90CF9038
:103F5000BF90AF9008950E94C3208823E1F2F82E0D
:103F6000EFCF8091F100F60181936F012197FFEF70
:103F7000AF1ABF0ACECFFC019B0180919F029091A6
:103F8000A0028617970718F0672B61F0C90140E07F
:103F9000009771F441110CC08091E80082FF35C098
:103FA00080E008958091E8008E778093E800EECF5E
:103FB000209198022223A9F12530A9F12091E8004F
:103FC00023FD2DC02091E80022FDE6CF2091E800DE
:103FD00020FFDECF3091F3002091F200009719F01E
:103FE0002830310558F041E02830310509F040E033
:103FF0002091E8002E772093E800CACF41914093AA
:10400000F10001972F5F3F4FE9CF809198028823FD
:1040100041F0853041F08091E80083FFBDCF81E021
:10402000089582E0089583E00895FC019B0180914A
:104030009F029091A0028617970718F0672B61F0F6
:10404000C90140E0009771F441110CC08091E80073
:1040500082FF36C080E008958091E8008E778093DB
:10406000E800EECF209198022223B1F12530B1F182
:104070002091E80023FD2EC02091E80022FDE6CF2C
:104080002091E80020FFDECF3091F3002091F20074
:10409000009719F02830310558F041E028303105FB
:1040A00009F040E02091E8002E772093E800CACF85
:1040B00044914093F100319601972F5F3F4FE8CF35
:1040C00080919802882341F0853041F08091E8008A
:1040D00083FFBCCF81E0089582E0089583E00895D6
:1040E000982F973028F08F708093E90081E0089531
:1040F0009093E900242F762F50E0981731F07091BB
:10410000EC002091ED005091F00021FD02C09F5F76
:10411000E8CF3091EB003E7F3093EB003091ED0023
:104120003D7F3093ED003091EB0031603093EB0038
:104130007093EC002093ED005093F0002091EE007E
:1041400027FDE5CF80E008958091990287FF13C095
:104150008091E80082FF06C08091E8008B77809311
:10416000E80004C0809198028111F2CF08958091F7
:1041700098028823D9F38091E80080FFF8CF8091DE
:10418000E8008E77ECCF2091E4003091E50095E6D1
:10419000A9018091EC008170882331F08091E800C2
:1041A00080FF06C080E008952091E80022FD1BC03A
:1041B00080919802882391F0853091F08091EB00F6
:1041C00085FD10C02091E4003091E50042175307AF
:1041D00001F391509111DCCF84E0089582E00895BD
:1041E00083E0089581E008950E9463210E946B217D
:1041F000E0EEF0E0808181608083E8EDF0E0808196
:104200008F77808319BCA7EDB0E08C918E7F8C9363
:1042100080818F7E80831092970208950F931F9361
:10422000CF93DF930E9463210E946B21C8EDD0E001
:1042300088818F77888388818068888388818F7D53
:10424000888319BC109298021092940210929602E0
:104250001092950200EE10E0F80180818B7F808340
:1042600088818160888342E060E080E00E94702065
:10427000E1EEF0E080818E7F8083E2EEF0E08081ED
:1042800081608083808188608083F80180818E7F57
:104290008083888180618883DF91CF911F910F9106
:1042A0000895E8EDF0E080818F7E8083E7EDF0E017
:1042B00080818160808384E082BF81E08093970267
:1042C0000E940E210895E8EDF0E080818E7F8083CA
:1042D0001092E20008951092DA001092E100089521
:1042E0001F920F920FB60F9211242F933F934F936B
:1042F0005F936F937F938F939F93AF93BF93EF934E
:10430000FF938091E10082FF0BC08091E20082FF69
:1043100007C08091E1008B7F8093E1000E94D3234E
:104320008091DA0080FF19C08091D80080FF15C00D
:104330008091DA008E7F8093DA008091D90080FF2F
:1043400094C080E189BD82E189BD09B400FEFDCF42
:1043500081E0809398020E945D1D8091E10080FFC2
:1043600019C08091E20080FF15C08091E2008E7F2D
:104370008093E2008091E20080618093E20080916E
:10438000D80080628093D80019BC85E080939802A1
:104390000E94711D8091E10084FF29C08091E2009C
:1043A00084FF25C080E189BD82E189BD09B400FE9A
:1043B000FDCF8091D8008F7D8093D8008091E1005F
:1043C0008F7E8093E1008091E2008F7E8093E200F7
:1043D0008091E20081608093E200809194028823C2
:1043E00009F449C084E0809398020E947A1D80916C
:1043F000E10083FF29C08091E20083FF25C0809106
:10440000E100877F8093E10082E080939802109220
:1044100094028091E1008E7F8093E1008091E20020
:104420008E7F8093E2008091E20080618093E200C1
:1044300042E060E080E00E9470208091F00088609F
:104440008093F0000E946E1DFF91EF91BF91AF919C
:104450009F918F917F916F915F914F913F912F919C
:104460000F900FBE0F901F90189519BC10929802D4
:104470000E946B1D72CF8091E30087FF02C083E032
:10448000B2CF81E0B0CF1F920F920FB60F921124DE
:10449000FF920F931F932F933F934F935F936F93CD
:1044A0007F938F939F93AF93BF93CF93DF93EF93BC
:1044B000FF9309EE10E0F8018081C091EC00C795F0
:1044C000CC27C7958F70FC2EF82A1082C0EFD0E061
:1044D0008881877F888378940E948C22F8011082DB
:1044E000888188608883CF2DCF70C083FF91EF9142
:1044F000DF91CF91BF91AF919F918F917F916F91FC
:104500005F914F913F912F911F910F91FF900F90CD
:104510000FBE0F901F901895AAE2B0E0E2E9F2E218
:104520000C941E2489E992E0FC0101962091F1008F
:10453000208322E0813A9207B9F70E94A41D80915E
:10454000E80083FF38C08091990290919A029A30D6
:1045500090F5E92FF0E0E25EFA4D0C9402248038E9
:1045600089F0823841F580919D028F70873018F56F
:104570008093E9008091EB0085FB882780F91092F9
:10458000E90006C080919502909196029111826097
:104590009091E800977F9093E8008093F10010924B
:1045A000F1008091E8008E7723C0811116C08091C0
:1045B0009B02813011F18091E80083FF0AC0809155
:1045C000E800877F8093E8008091EB008062809311
:1045D000EB00AA96E3E00C943A24823061F78091D4
:1045E0009B02882389F01092E9008091E800877F80
:1045F0008093E8000E94A420DECF81E0933009F090
:1046000080E080939602EFCF80919D028F702FEF14
:10461000280F263080F68093E9002091EB0020FFE0
:10462000E2CF933031F48091EB0080628093EB0015
:10463000DACF9091EB0090619093EB0021E030E0B5
:10464000A90102C0440F551F8A95E2F74093EA0082
:104650001092EA008091EB008860E8CF8111ABCF27
:1046600010919B021F778091E3008078812B8093CB
:10467000E3008091E800877F8093E8000E94A420F7
:104680008091E80080FFFCCF8091E30080688093F8
:10469000E30083E0111101C082E0809398028BCF88
:1046A0008058823008F087CF80919B0290919C02C5
:1046B0008C3D53E0950799F583E08A838AE28983EC
:1046C0004FB7F894DE01139620E03EE051E2E32F6D
:1046D000F0E050935700849120FF03C082958F70C3
:1046E0003F5F8F708A30C8F0895C90E08D939D9316
:1046F0002F5F243161F74FBF8091E800877F80935F
:10470000E8006AE270E0CE0101960E94BB1F809132
:10471000E8008B778093E8004ECF805DE6CF609114
:104720009D0270919E02AE014F5F5F4F0E94A51ED9
:10473000BC01892B09F43FCF8091E800877F8093EB
:10474000E80089819A810E941520E1CF803809F024
:1047500032CF8091E800877F8093E80080919402B7
:104760008093F1001ECF811126CF90919B02923051
:1047700008F021CF8091E800877F8093E800909334
:1047800094020E94A42080919402882331F084E056
:10479000809398020E94851D0ECF8091E30087FDD3
:1047A000F6CF81E0F5CF0895CF93809198028823CA
:1047B00099F08091E900C091EC00C795CC27C7958E
:1047C0008F70C82B1092E9008091E80083FD0E9451
:1047D0008C22CF70C093E900CF91089597FB072EEC
:1047E00016F4009407D077FD09D00E94462407FCF8
:1047F00005D03EF4909581959F4F089570956195F1
:104800007F4F0895EE0FFF1F0590F491E02D09945E
:1048100069279627692778278727782708952F9271
:104820003F924F925F926F927F928F929F92AF9240
:10483000BF92CF92DF92EF92FF920F931F93CF938D
:10484000DF93CDB7DEB7CA1BDB0B0FB6F894DEBF24
:104850000FBECDBF09942A88398848885F846E844A
:104860007D848C849B84AA84B984C884DF80EE8094
:10487000FD800C811B81AA81B981CE0FD11D0FB69D
:10488000F894DEBF0FBECDBFED010895AA1BBB1B80
:1048900051E107C0AA1FBB1FA617B70710F0A61B40
:1048A000B70B881F991F5A95A9F780959095BC0161
:1048B000CD010895FB01DC0104C08D9101908019A8
:1048C00021F441505040C8F7881B990B0895FB0113
:1048D000DC0102C001900D9241505040D8F708957C
:1048E000F999FECF92BD81BDF89A992780B50895B8
:1048F000A8E1B0E042E050E00C94B424DC01A40F45
:10490000B51F4150504048F0CB01840F951F2E91A8
:104910000E948F2441505040D0F70895262FF999D6
:10492000FECF92BD81BDF89A019700B4021639F00E
:104930001FBA20BD0FB6F894FA9AF99A0FBE0895DF
:104940000396272F0E948F240E948E24252F0E94D9
:104950008F24242F0C948F240196272F0E948F24BC
:104960000C948E24DC01CB01FC01F999FECF06C02A
:10497000F2BDE1BDF89A319600B40D92415050401D
:10498000B8F70895F894FFCFF804F8043F053F0501
:10499000A405C10527052705C605330644064406B8
:1049A000CC134014D4139E13A213D813A613DC13F4
:1049B000E813B2133914B613EC13BA13F013181426
:1049C000BE13F4131F14C413FA130214AA13E01332
:1049D000AE13E413C813FE130E14281437149813DF
:1049E000D0134714061509150F1524152415241581
:1049F00024152415241524152415121517151B1517
:104A00002115321538153C158018861870187A183B
:104A10008C18921898189319AB19FC191D1A311A91
:104A2000451A481A481A481AB619B6194E1A541A8D
:104A3000601A6F1A821A851A881A9B1AAF22D52219
:104A4000DB22D522DB222E235023DB22A623B32315
:104A50001D02280850011E0A1401030201D51C0B77
:104A60001DD81C041DFD1C01E200E900EA00B50090
:104A7000B600B700CD008301CC008A0192019401F9
:104A80002102230224022502260227022A02B30061
:104A9000B4006F0070009F01CB019F02A002E200F2
:104AA000E900EA00B500B600B700CD008301CC00F4
:104AB0008A01920194012102230224022502260286
:104AC00027022A02B300B4006F0070009F01CB01DF
:104AD0009F02A002939190946697C6343592F4F5A4
:104AE000F6F73133323644227B7804DB03FD038052
:064AF000039903B9030065
:00000001FF
