:100000000C9458020C9475020C9475020C947502B1
:100010000C9475020C9475020C9475020C94750284
:100020000C9475020C9475020C94D01B0C94A81CB3
:100030000C94851B0C9475020C9475020C9475023B
:100040000C9475020C9475020C9475020C94750254
:100050000C9475020C94AC1B0C9475020C947502F4
:100060000C9475020C9475020C9475020C94750234
:100070000C9475020C9475020C9475020C94750224
:100080000C9475020C9475020C9475020C94750214
:100090000C9475020C9475020C9475020C94750204
:1000A0000C9475020C9475020C94750205010902FA
:1000B000A10185020901A1000509190129081500FE
:1000C0002501950875018102050109300931158165
:1000D000257F95027508810609381581257F9501D0
:1000E00075088106050C0A38021581257F95017572
:1000F000088106C0C005010980A101850319012AF4
:10010000B700150126B700950175108100C0050CD8
:100110000901A101850419012AA002150126A002E6
:10012000950175108100C00660FF0961A101096297
:10013000150026FF00952075088102096315002629
:10014000FF00952075089102C005010906A101056F
:100150000719E029E7150025019508750181029529
:1001600001750881010507190029FF150026FF0008
:100170009506750881000508190129051500250156
:10018000950575019102950175039101C009025B06
:1001900000030100A0FA09040000010301010009A5
:1001A0002111010001224400070581030800010913
:1001B00004010002030000000921110100012222B4
:1001C0000007058203200001070503032000010941
:1001D0000402000103000000092111010001227B3B
:1001E000000705840320000112010002000000083E
:1001F000444105000001010200010E036800610096
:1002000077006B00340034000000100361006C00C4
:1002100065006B0074006F007200000004030904A5
:10022000290014001A000800150017001C0018000F
:100230000C001200130028002B0004001600070019
:1002400009000A000B000D000E000F00380000002E
:10025000E1001D001B000600190005001100100040
:1002600036003700E5000000E400E300E2004C0047
:100270002C412C422A00E6008352E40000000000DA
:1002800035001E001F002000210022002300240052
:10029000250026002700010039002D002E008900CE
:1002A0002F003000320033003400870001000000CE
:1002B0000100010001000100010001000100010036
:1002C00001005200010000000100010001000100D6
:1002D000010001000100500051004F00000000002B
:1002E00001003A003B003C003D003E003F00400062
:1002F00041004200430001000100440045000100AC
:1003000001000100010001000100010001000000E6
:1003100001000100010001000100010001000100D5
:1003200001000100010000000100010001000100C6
:1003300001000100010001000100010000000000B7
:1003400001000100010001000100010001000100A5
:100350000100010001000100010001000100010095
:100360000100010001000100010001000100000086
:100370000100010001000100010001000100010075
:100380000100010001000000010001000100010066
:100390000100010001000100010001000000000057
:1003A0000100010001000100010001000100010045
:1003B0000100010001000100010001000100010035
:1003C0000100010001000100010001000100000026
:1003D0000100010001000100010001000100010015
:1003E0000100010001000000010001000100010006
:1003F00001000100010001000100010000000000F7
:1004000000000000000000000000000000000000EC
:1004100000000000000000000000000000000000DC
:10042000000000007E0F00D4FFFFFFC7000000782F
:1004300000000000000000002A2B2800000000003F
:100440000000000000000000000000290000000083
:100450002C1E3420212224342627252E362D3738F1
:10046000271E1F202122232425263333362E3738FA
:100470001F0405060708090A0B0C0D0E0F101112B8
:10048000131415161718191A1B1C1D2F3130232D84
:10049000350405060708090A0B0C0D0E0F10111282
:1004A000131415161718191A1B1C1D2F3130354C33
:1004B00011241FBECFEFDAE0DEBFCDBF11E0A0E018
:1004C000B1E0E4E4FCE302C005900D92A036B10770
:1004D000D9F722E0A0E6B1E001C01D92A032B20738
:1004E000E1F70E9465170C94BC1D0C9400008093EA
:1004F000D90108958093DA01089521E030E001C028
:10050000220F8A95EAF78091DA01822B0E947A0203
:10051000089521E030E0A90102C0440F551F8A95DB
:10052000E2F7CA0180959091DA0189230E947A024C
:100530000895292F943098F58C3088F590E03CE0B0
:10054000239F800D911D1124282F277041E001C0A9
:10055000440F2A95EAF723E0969587952A95E1F7C7
:10056000FC01EE0FFF1FE80FF91FE754FE4F20E0DC
:1005700030E070E05191DF011197CB01022E02C0F3
:10058000969587950A94E2F7817081958527842353
:1005900085278C932F5F3F4F2330310559F70895FE
:1005A000292F943078F58C3068F590E03CE0239F5B
:1005B000800D911D1124682F677023E09695879513
:1005C0002A95E1F7FC01EE0FFF1FE80FF91FE75432
:1005D000FE4F40E050E080E0219130E0062E02C066
:1005E000369527950A94E2F721703327042E01C02F
:1005F000220F0A94EAF7822B4F5F5F4F4330510579
:1006000059F7089580E008959091DA0121E030E0F3
:10061000F90101C0EE0F8A95EAF7D90102C0AA0FCD
:10062000BB1F6A95E2F7EA2B01C0220F4A95EAF751
:10063000892F8E23E81305C0892F822B0E947A020E
:1006400008952095822F8923F9CF8091E001909120
:10065000DF01981301C008958F5F8770FACF9091E2
:10066000DB01809589238093DB01282F27702111DE
:100670000DC0891759F09091DD0192FF07C0869552
:10068000869586950E9489021092DB010895982F25
:1006900090958091D60189238093D6010895803E5C
:1006A0009105D1F1C8F48133910509F47FC048F474
:1006B0008932910509F46FC08A32910509F47DC031
:1006C000089589339105E1F082389105C9F08533A9
:1006D000910509F45BC00895843E9105D1F148F479
:1006E000823E910531F1833E910541F181EE90E02A
:1006F0000895863E9105C1F1873E9105E1F1089587
:100700002091DC012370211165C02091DD0123FFC0
:1007100014C089E290E008952091DC0120FD43C0DF
:100720003091DD0130FF09C024FF4EC080E090E031
:1007300008952091DC0122FDF7CF08952091DC017E
:1007400022FD45C03091DD0130FD44C024FFF5CFCE
:10075000EDCF2091DD0121FFF0CF8091DC0184FD00
:10076000E5CF87EE90E008952091DC0123FFE5CFEF
:1007700024FDDCCFF6CF2091DC0123FD2EC030918B
:10078000DD0131FFE3CF84EE90E008952091DC019C
:1007900025FFD3CFBECF2091DC0125FD21C02091C4
:1007A000DD0123FFCACF89E390E008952091DC01A9
:1007B00026FFC3CF8AE290E008952091DC0126FF56
:1007C000BCCF81E390E0089583EE90E0089582EE3F
:1007D00090E0089580EE90E0089586EE90E0089510
:1007E00085E390E0AACF9091DC0192FF10C041E038
:1007F000282F2471243009F040E031E0282F28719F
:10080000283009F030E0431711F02CE0822793FFE5
:1008100010C041E0282F2471243109F040E031E07C
:10082000282F2871283109F030E0431711F02CE00F
:1008300082273091DD0130FF10C051E0282F217157
:10084000213009F050E041E0282F2871283009F0CC
:1008500040E0541711F029E0822731FF10C041E039
:10086000282F2171213109F040E031E0282F287133
:10087000283109F030E0431711F029E0822794FD78
:10088000877E08951F93CF93DF930E944F03EC015F
:10089000811522E5920708F053C0811540E59407C1
:1008A00008F0DDC0803E9105F8F48D3C910508F01C
:1008B000AEC0883A910580F4853A910508F099C058
:1008C0008130910521F00497813A910550F4CE01D1
:1008D000DF91CF911F910895885A91094B9708F4A1
:1008E0008BC0C0E0D0E0F3CF811550E49507F8F459
:1008F000C11580E2D80708F0CBC0C83ED10538F357
:10090000CE019A9581159F4160F78D2F0E94F303C8
:10091000182FCE0199270E944F03212F30E0322F4C
:100920002227E901CC27DF71C82BD92BD0CF9927FB
:100930000E944F03CC27DF70C82BD92BD06AC7CFBA
:10094000803842E59407C8F5803652E5950708F0EF
:1009500067C0C03482E5D807B0F08C2F86958695A5
:10096000877020E2829FC0011124C37021E030E033
:10097000A90102C0440F551FCA95E2F7EA01C82B2E
:10098000D92BDC68A4CFC03252E5D50708F041C0AE
:100990008C2F8695869520E2829FC0011124C3701A
:1009A00021E030E0A90102C0440F551FCA95E2F7CB
:1009B000EA01C82BD92BDD688ACF803C52E5950728
:1009C00060F48F71C03AD24508F03FC090E0982F94
:1009D0008827EC01C46FD06A7ACF805C92458097FB
:1009E00008F07FCFDC2FCC27CC27DF71C06FD06A17
:1009F0006ECFA497D0646BCFC85AD0E0CC0FDD1F68
:100A0000C65DDE4F0990D881C02DD46460CFD0651B
:100A10005ECFCF71D0E0DC2FCC27C16FD06A57CF2B
:100A200086958695877020E2829FC0011124C3704D
:100A300021E030E0A90102C0440F551FCA95E2F73A
:100A4000EA01C82BD92BDA6842CF0E94F303C82FE2
:100A5000D0E0DC2FCC27CC27DF71D06238CF8F716C
:100A60000E94F30365E0D695C7956A95E1F7CF70CC
:100A7000D0E0DC2FCC27282F30E084FF05C054E0E5
:100A8000220F331F5A95E1F7C22BD32BD0691FCF0A
:100A90008D2F8F710E94F303182FCE0199270E948A
:100AA0004F03212F30E0322F222722273F71282B9E
:100AB000392BE901D2CF80E00895F894E82FE29530
:100AC000EF70F0E041A18F7021E030E0B90102C089
:100AD000660F771F8A95E2F7CB01962F90959423A6
:100AE00091A392A1892B82A378940895282F35EBA6
:100AF0002303C001112497FF04C080589109892F56
:100B0000089580589F4FFBCF8091CD0180FD14C088
:100B100081FD14C082FD16C08091CC01882381F034
:100B20008E3180F420E5829FC00111246EE170E0D7
:100B30000E94F11C862F089584E1089588E20895AB
:100B400088E0089580E508958091CD0180FD17C06B
:100B500081FD17C082FD19C08091CB01882399F0D7
:100B6000883298F428E0829FC001112468E270E086
:100B70000E94F11C6115710551F0862F089562E005
:100B8000FCCF64E0FACF61E0F8CF68E0F6CF81E017
:100B90000895E091AF01F091B001309729F00190F4
:100BA000F081E02D0995089580E00895A3E0B0E07C
:100BB000ECEDF5E00C94221D9C0180918A0190914E
:100BC0008B0182179307A1F030938B0120938A0148
:100BD000E091AF01F091B001309751F083E089834B
:100BE0003B832A830084F185E02DCE01019609958F
:100BF0002396E2E00C943E1DA3E0B0E0E2E0F6E0D4
:100C00000C94221D9C01809188019091890182178A
:100C10009307A1F03093890120938801E091AF01FF
:100C2000F091B001309751F084E089833B832A83AF
:100C30000084F185E02DCE01019609952396E2E02E
:100C40000C943E1D9C01FC0132968FEF90E0419187
:100C5000461751F08F3F19F4411101C0892F9F5F52
:100C60009630A9F78F3F09F40895280F311D87FDAD
:100C70003A95F901628308959C01FC013296285F40
:100C80003F4F8191861303C0DF0111971C92E21739
:100C9000F307B9F708952FB7F894809184019091E4
:100CA0008501A0918601B09187012FBF08950E9410
:100CB0004B062091D0013091D101232B222321F02A
:100CC0008093A1019093A2012091D2013091D30190
:100CD000232B222321F080939F019093A001E09188
:100CE000AF01F091B001309749F082E08093CE01DE
:100CF0000680F781E02D8EEC91E009950895209112
:100D0000D0019091D3013091D201662309F45AC0E9
:100D10004091D101242B292B232B222331F098E061
:100D20009093CC0191E09093CB018D3C41F40E94D3
:100D3000840581958093D1010E9457060895E2E3CE
:100D4000E80FE231C8F7F0E0E254F24E0C94051DD2
:100D50000E948405EFCF0E94840581958093D00185
:100D6000EBCF0E948405FACF0E94A4058093D201A4
:100D7000E3CF0E94A4058195F9CF0E94A405819537
:100D80008093D301D9CF0E94A405FACF815D990B3E
:100D900021E030E001C0220F8A95EAF78091CF016F
:100DA000822B8093CF01C8CF8091CD018160809349
:100DB000CD01C2CF8091CD018260F9CF8091CD016C
:100DC0008460F5CF8D3C59F48091D10187FF0DC02F
:100DD0001092D101222359F41092CC0108C08E3C0C
:100DE00081F48091D10118169CF3222381F0809127
:100DF000D2019091D301892B81119ECF1092CB010A
:100E00009BCF8F3C41F427FFF0CF1092D00180910F
:100E1000D1018823E0CF803D19F41216B4F3E5CF59
:100E2000893D29F413160CF71092D201DECF8A3DCA
:100E300019F437FFDACFF8CF8B3D29F497FFD5CFE0
:100E40001092D301D2CF8C3D19F41916CCF3CDCF2B
:100E50009FE2980F983090F4815D990B41E050E04B
:100E6000BA0102C0660F771F8A95E2F7CB01809521
:100E70009091CF0189238093CF01B7CF8D3D31F47D
:100E80008091CD018E7F8093CD01AFCF8E3D21F437
:100E90008091CD018D7FF7CF8F3D09F0A6CF809156
:100EA000CD018B7FF0CFA4E0B0E0E9E5F7E00C9452
:100EB000221D8FB7F89420918401309185014091D3
:100EC00086015091870129833A834B835C838FBFCE
:100ED00069817A818B819C812496E2E00C943E1D8D
:100EE0009C014FB7F8948091840190918501A09165
:100EF0008601B09187014FBF821B930B089587E74E
:100F000097E7909301088093000888E19AE00FB674
:100F1000F894A895809360000FBE90936000FFCF77
:100F20008091830108950895FC019B0180917901CE
:100F300090917A018617970740F0672B29F48091EA
:100F4000E8008E778093E800C90140E0009741F403
:100F5000411106C08091E80082FF2FC080E0089513
:100F60002091AC012223A9F12530A9F12091E800BC
:100F700023FD2DC02091E80022FDECCF2091E80058
:100F800020FFE4CF3091F3002091F200009719F098
:100F90002830310558F041E02830310509F040E0B3
:100FA0002091E8002E772093E800D0CF4191409324
:100FB000F10001972F5F3F4FE9CF8091AC0188236B
:100FC00041F0853041F08091E80083FFC3CF81E09C
:100FD000089582E0089583E008958091730187FF6A
:100FE00013C08091E80082FF06C08091E8008B77F3
:100FF0008093E80004C08091AC018111F2CF089584
:101000008091AC018823D9F38091E80080FFF8CF6C
:101010008091E8008E77ECCF2091E4003091E500DC
:1010200095E6A9018091EC008170882331F08091D0
:10103000E80080FF06C080E008952091E80022FDCE
:101040001BC08091AC01882391F0853091F0809194
:10105000EB0085FD10C02091E4003091E5004217BF
:10106000530701F391509111DCCF84E0089582E0A1
:10107000089583E0089581E00895E8EDF0E080812F
:101080008E7F80831092E2001092DA001092E100CD
:10109000A0EEB0E08C9181608C9380818F7780830B
:1010A00019BCA7EDB0E08C918E7F8C9380818F7EF0
:1010B0008083109272010895982FE42FE27090932C
:1010C000E900891308C0762F242F50E0E11111C0E8
:1010D00091E0980FF4CF7091EC002091ED005091C9
:1010E000F00021FD06C09F5F973049F78093E9002B
:1010F00008953091EB003E7F3093EB003091ED008E
:101100003D7F3093ED003091EB0031603093EB0088
:101110007093EC002093ED005093F0002091EE00CE
:1011200027FDE1CF0895A0E0B0E0E9E9F8E00C94F4
:101130001C1DC8EDD0E088818F7E8883E7EDF0E04C
:1011400080818160808384E082BF81E0809372012E
:1011500088818E7F888302EE10E0F8011082109261
:10116000DA0081EEC82ED12CF601108288818F77AB
:10117000888388818068888388818F7D888319BC73
:101180001092AC01109271011092950110927001B1
:1011900090EEE92EF12CF70180818B7F808388818E
:1011A0008160888342E060E080E00E945C08F60194
:1011B00080818E7F8083F80180818160808380813F
:1011C00088608083F70180818E7F80838881806141
:1011D0008883CDB7DEB7E8E00C94381DE091E001DC
:1011E0009091DF0127E0E91302C080E00895AE2F5F
:1011F000B0E02E9FF0011124EF51FE4F31813613E4
:1012000006C03081381303C03581341304C0FD019A
:101210003196E770E8CF81E008950F931F93CF9345
:10122000DF93EB018A019091AC01943079F58093C2
:10123000E9008FEF9091E80095FD07C095ED9A9534
:10124000F1F7000081508111F5CF8091E80085FF12
:101250001DC00E940C08811114C08091E80085FD1A
:1012600006C08091E8008E778093E800F2CF8881F5
:101270008093F100015011090115110511F021961B
:10128000ECCF8091E8008E778093E800DF91CF91DA
:101290001F910F910895CF93DF93D82FC92F48E066
:1012A00050E0682F792F81E00E940D0988E0ED2F32
:1012B000FC2FABE7B1E001900D928A95E1F7DF9149
:1012C000CF910895BC0146E050E084E00E940D09F2
:1012D0000895BC0143E050E084E00E940D090895A8
:1012E0009091DD0192FB222720F9281779F080FBED
:1012F00092F99093DD016091DC017091DD0184E051
:1013000090E00E94991D82E00E942F0308951F9390
:10131000CF93DF93962F122F632F8530D8F494301C
:10132000C8F44C30B8F4C42FD0E0CC0FDD1F28E156
:10133000929FC00DD11D112490E6899FC00DD11D33
:101340001124CE0188960E947B1D612FCE018996C3
:101350000E947B1DDF91CF911F910895AF92BF92A4
:10136000CF92DF92FF920F931F93CF93DF93A12C25
:10137000B12C00E0650110E013C0FE01259134910D
:101380004F2D612F802F0E9487092296F3948CE0C5
:10139000F812F3CF8CE0C80ED11C1F5F143039F067
:1013A000E601CC0FDD1FC05EDD4FF12CE6CF0F5FF5
:1013B00080E3A80EB11C0530E9F6DF91CF911F91B3
:1013C0000F91FF90DF90CF90BF90AF900895CF9393
:1013D000DF93C8E0D2E060E0CE010E947B1D219641
:1013E000C11584E0D807B9F7DF91CF91089588231C
:1013F00081F064E284E290E00E947B1D61E185E27D
:1014000090E00E947B1D61E086E290E00E947B1DDF
:1014100008956FEF84E290E00E947B1D6FEF85E2FC
:1014200090E00E947B1D6FEFEFCF80E00E94F709F4
:1014300060E087E290E00E947B1D0E94AE090E945E
:10144000E70981E00E94F70908950F931F93CF9356
:10145000DF93853030F5643020F54C3010F5C42F23
:10146000D0E0CC0FDD1F28E1629FC00DD11D1124FB
:1014700030E6839FC00DD11D1124CE0188960E94B5
:101480005D1D082F10E0102F0027CE0189960E94C5
:101490005D1D9801282BC901DF91CF911F910F91FC
:1014A000089580E090E0F8CF462F672F743038F42D
:1014B0004C3028F4853018F40E94250A089580E005
:1014C00090E00895A0E0B0E0E8E6FAE00C941D1D7D
:1014D0007C010091DA018091D901082BC4E0D0E0B1
:1014E00010E0C8010C2E02C0959587950A94E2F78A
:1014F00080FD09C02197A8F7D12C8D2DCDB7DEB77F
:10150000E7E00C94391DDC2EB7018C2F0E94540AA1
:101510000E944204019771F3F0CF0F931F93CF9372
:10152000FC01858100811181882391F0662381F07F
:10153000C8010E94620AC82F682FC8010E94990240
:10154000B8018C2F0E94540ACF911F910F910895DA
:10155000C8010E94D002C82FF3CFCF93DF93D82FBA
:10156000C92F0E94620A6D2F7C2F0E94540A0E948C
:101570004204DF91CF910895FC0184818823A1F07A
:10158000808191810E94AD0A282F92959F7096309C
:1015900091F060F4925F9F70923030F481E0203FD0
:1015A00079F030F4283E30F080E004C09A5FF3CF49
:1015B000243FD1F7089581E0283E18F0213FF9CF6C
:1015C0000895089584E290E00E945D1D843289F4BC
:1015D00085E290E00E945D1D813159F486E290E041
:1015E0000E945D1D91E0813009F090E0892F8170AB
:1015F000089580E0FCCF8091D6019091DE01892B87
:101600004091D701442389F090E024E631E0F901CC
:1016100050812F5F3F4F51119F5F51E02A363507B0
:10162000B1F791111092D701842B8093620148E0A9
:1016300050E061EB71E082E691E00E94AF1D892BE2
:10164000A9F088E0E2E6F1E0A1EBB1E001900D92B3
:101650008A95E1F7E091AF01F091B001309731F058
:101660000280F381E02D82E691E009950895CF9301
:101670001092D601C6E0E4E6F1E0DF018C2F1D9266
:101680008A95E9F780E090E00E94D60580E090E03E
:101690000E94FC051092DE010E94FB0AEEECF1E0D4
:1016A000DF011D92CA95E9F71092CC011092CB018F
:1016B0001092CD010E945706CF9108950E94370BDA
:1016C0002FEF84E39CE0215080409040E1F700C080
:1016D000000088E19AE00FB6F894A8958093600026
:1016E0000FBE90936000FFCFAAE2B0E0EAE7FBE014
:1016F0000C94211D83E791E0FC0101962091F100FB
:10170000208321E08B379207B9F7809174018930EB
:1017100009F456C0C8F4823009F4B3C0833009F428
:1017200082C0813071F18091E80083FFE7C0809131
:101730007301909174019A3008F0E0C0E92FF0E055
:10174000E053F24E0C94051D8A3009F489C08B30A9
:1017500051F780917301813231F780917701909137
:101760007801892B01F78091E800877F8093E8005A
:101770000E94ED0780917501809300010E94370B54
:10178000D2CF80917301813A71F68091E800877F12
:101790008093E8008091770190917801892B61F026
:1017A00060E080E090E070E00E9494078091E800A3
:1017B0008B778093E800B7CF68E08BE791E0F3CFB9
:1017C00080917301813209F0AECF809177019091C1
:1017D00078018D7F892B09F0A6CF8091E800877F63
:1017E0008093E8008091E80082FF18C09091F30098
:1017F0008091F200029731F48091F100813011F074
:10180000863021F48091F100809383018091E8007B
:101810008B778093E8000E94ED0785CF8091AC0123
:101820008111E0CF80CF80917301813A09F07BCFA5
:101830008091770190917801892B09F074CF809184
:10184000E800877F8093E8008091E80080FFFCCF6C
:10185000809100018093F1008091E8008E77D9CFCC
:1018600080917301813209F05ECF8091E800877F1B
:101870008093E8000E94ED078091760180936F01CC
:1018800052CF80917301813A09F04DCF8091E800E9
:10189000877F8093E8008091E80080FFFCCF8091F3
:1018A0006F01D8CF803889F0823841F58091770177
:1018B0008F70873018F58093E9008091EB0085FBED
:1018C000882780F91092E90006C0809170019091FC
:1018D0009501911182609091E800977F9093E800C4
:1018E0008093F1001092F1008091E8008E7723C080
:1018F000811116C080917501813011F18091E8004D
:1019000083FF0AC08091E800877F8093E800809180
:10191000EB0080628093EB00AA96E3E00C943D1DFF
:10192000823061F780917501882389F01092E90077
:101930008091E800877F8093E8000E94ED07DECF6A
:1019400081E0933009F080E080939501EFCF8091A2
:1019500077018F702FEF280F263080F68093E900F3
:101960002091EB0020FFE2CF933031F48091EB0027
:1019700080628093EB00DACF9091EB0090619093BE
:10198000EB0021E030E0A90102C0440F551F8A9509
:10199000E2F74093EA001092EA008091EB00886041
:1019A000E8CF8111ABCF109175011F778091E300D3
:1019B0008078812B8093E3008091E800877F80937B
:1019C000E8000E94ED078091E80080FFFCCF809145
:1019D000E30080688093E30083E0111101C082E09E
:1019E0008093AC018BCF8058823008F087CF409134
:1019F0007501509176014C3D83E0580799F583E0DD
:101A00008A838AE289834FB7F894DE01139620E037
:101A10003EE051E2E32FF0E050935700849120FF25
:101A200003C082958F703F5F8F708A30C8F0895CE9
:101A300090E08D939D932F5F243161F74FBF80918C
:101A4000E800877F8093E8006AE270E0CE010196AB
:101A50000E9494078091E8008B778093E8004ECF36
:101A6000805DE6CF8091770190917801252F332713
:101A70002330310509F44AC078F52130310509F4E5
:101A800079C08BE590E0EDE8F1E02230310509F016
:101A900035CF2091E800277F2093E800209179013D
:101AA00030917A018217930708F49C0140E02115D8
:101AB000310509F064C0411162C08091E80082FDE7
:101AC000C9CF8091AC01882329F2853019F2809129
:101AD000E80083FFF2CFBECF2132310509F43BC0CD
:101AE0002232310509F00ACF8330910508F006CF84
:101AF000FC01EE0FFF1FE25FFE4F0190F081E02D31
:101B0000855F9E4FDC018C9190E011C0CA0199273E
:101B1000413089F082309105B1F0892B09F0EECE89
:101B2000ECE1F2E0E4918E2F90E0ECE1F2E000973E
:101B300009F4E4CEAECFEAE0F2E0E4918E2F90E03B
:101B4000EAE0F2E0F4CFEAEFF1E0E4918E2F90E0EA
:101B5000EAEFF1E0ECCF8330910508F0CFCEFC0145
:101B6000EE0FFF1FEC5EFE4F0190F081E02D89E04B
:101B700090E08FCF82E190E0E8EEF1E08ACF8091B3
:101B8000AC01882309F466CF853009F463CF8091D6
:101B9000E80083FD5FCF8091E80082FD8ECF8091C9
:101BA000E80080FF84CF9091F3008091F20021152E
:101BB000310519F08830910550F041E0089709F09F
:101BC00040E08091E8008E778093E80070CF4491E8
:101BD0004093F1003196215031090196E8CF8038C9
:101BE00009F08CCE8091E800877F8093E800809197
:101BF00071018093F10078CE811180CE1091750132
:101C0000123008F07BCE8091E800877F8093E80057
:101C1000109371010E94ED071123D1F084E08093AD
:101C2000AC0142E061EC81E00E945C0842E261ECC0
:101C300084E00E945C0842E261EC82E00E945C0861
:101C400042E260EC83E00E945C088091AC0156CED9
:101C50008091E30087FDE2CF81E0E1CFCF93C82FF1
:101C60008823A9F08CEF8C0F813A98F4E4E6F1E038
:101C70008191C81709F440C021E0EA36F207C1F7A4
:101C80006C2F82E691E00E9422060E94FB0ACF910F
:101C9000089580E28C0F883068F4C77021E030E04E
:101CA00001C0220FCA95EAF78091D601822B80935A
:101CB000D601EBCF8BE58C0F833038F42C2F2452D8
:101CC000330BC9010E94D605E2CFE8E5EC0FEB31FA
:101CD00050F4F0E0EE0FFF1FE65DFE4F8081918132
:101CE0000E94FC05D4CF83E38C0F833180F661E042
:101CF0008C2F0E947F06CBCF6C2F82E691E00E9452
:101D00003C060E94FB0ABCCF882399F19CEF980FF8
:101D1000913A40F4682F82E691E00E943C060E94CE
:101D2000FB0A089590E2980F983050F4877091E084
:101D300001C0990F8A95EAF7892F0E944703EFCFD8
:101D40009BE5980F933028F480E090E00E94D60540
:101D5000089598E5980F9B3128F480E090E00E9468
:101D6000FC05089593E3980F933118F460E00E9406
:101D70007F0608951F93CF93DF93182FEB010E94E6
:101D80002E0E209739F4812F0E94840EDF91CF917F
:101D90001F9108958FE99FE00197F1F700C00000BF
:101DA0002197EFCF882339F09091D601892B80932A
:101DB000D6010E94FB0A0895882321F00E94470360
:101DC0000E94FB0A08950F931F93CF93DF93C62FB2
:101DD000D42F122F8823A9F06093D4010E944B06C0
:101DE00090936E0180936D01C77081E001C0880FF0
:101DF000CA95EAF70E94D20EDF91CF911F910F9101
:101E000008958091D401681336C080916D0190913E
:101E10006E010E947007883C910568F5CD130EC0D5
:101E200060E070E0812F0E94BA0ED77081E001C09F
:101E3000880FDA95EAF70E94DC0EDECFC77001E06A
:101E4000802F01C0880FCA95EAF70E94DC0E80E25D
:101E50008D0F883050F48D2F877001C0000F8A9548
:101E6000EAF7802F0E94D20EDBCF60E070E0812F76
:101E70000E94BA0EC1CFC77081E001C0880FCA9519
:101E8000EAF7D9CFA8E0B0E0E8E4FFE00C94151D34
:101E90006C01DC0114968C91882309F4B4C061E0D4
:101EA000C6010E948D0A8C01F6018581882309F400
:101EB000FEC4980137572038310508F003C50031BA
:101EC00008F090C08FEF93E00E945D1D81118AC0E1
:101ED00048E0E42E42E0F42E011153C01A82198228
:101EE000FE01339686E0DF011D928A95E9F75701DE
:101EF000BFEFAB1ABB0AC7010E945D1D89831A821E
:101F0000882309F46FC0813009F081C087010E5F1A
:101F10001F4FC5010E945D1D8A83882309F462C09A
:101F20009FEF980F9330E0F5E3E0EE0EF11CC8014F
:101F30000E945D1D8B83882309F454C01C828E018E
:101F40000F5F1F4FD8012C91222389F2213009F015
:101F5000A1C011968C911197813009F05AC0580197
:101F6000B2E0AB0EB11CF801828160E070E0893311
:101F700011F460E570E00E94BA0E85010F5F1F4FFB
:101F8000E1CFE114F4E0FF0669F1C7010E945D1D95
:101F900097012F5F3F4F79018111F3CF01509CCF03
:101FA0008430B9F432E0E32EF12CC8010F5F1F4FEB
:101FB0000E945D1DE1E0F0E0EC0FFD1FEE0DFF1D46
:101FC0008083882379F08C3731F4FE01EE0DFF1DFC
:101FD00012827801B4CFFFEFEF1AFF0A27E0E21672
:101FE000F10419F78091DB018770882361F0D60135
:101FF00015968C91882339F08091DD0182FF03C012
:1020000082E00E942F032896EFE00C94311D7501A9
:1020100096CF823049F45801F2E0AF0EB11C12960F
:102020008C910E942E0EA9CF833049F45801B2E062
:10203000AB0EB11CF80182810E94840E9ECF8430C9
:1020400019F00F5F1F4F9ACF12962C910E5F1F4F02
:1020500080E090E06AE0A8014F5F5F4F2053330BB0
:102060002A30310558F0009709F488CFAFE9BFE076
:102070001197F1F700C000000197F5CF689FF001BC
:10208000699FF00D1124C9018E0F9F1FF801218156
:102090008A01E1CFE22FF0E0E05DFB4F5490E22FA8
:1020A000E695E695E6958E2F90E0FC01E05EFB4F0D
:1020B000A4902770622EB12C022E02C0B594A79472
:1020C0000A94E2F7B1E0AB22BB24FC01E05FFB4FD6
:1020D0008490912C02C0959487942A95E2F7E1E0D0
:1020E0008E229924FC01E050FC4F7490A114B1049D
:1020F000C1F48114910421F560E070E0852D0E9407
:10210000BA0EE72DF0E0062C02C0F595E7950A948B
:10211000E2F7E0FF33CF60E070E08CE20E94BA0E9D
:102120002DCF81EE0E942E0E8114910449F460E0BF
:1021300070E0852D0E94BA0E81EE0E94840EE1CFE0
:1021400086EE0E942E0E60E070E0852D0E94BA0E91
:1021500086EE0E94840EAB28A1F2EECF26E241EE7D
:1021600061EE0E94E30E3ECF27E245EE65EEF9CF29
:1021700026E241EE60EEF5CF27E245EE64EEF1CFC8
:1021800026E241EE62EEEDCF27E245EE66EEE9CFC4
:1021900028E241E0EBCF0631FCE71F0709F0C7C09A
:1021A0008091D50169E2811165E382E691E00E94A8
:1021B0003C062DC18091DC0181608093DC0160913F
:1021C000DC017091DD0184E090E00E94991D0E9485
:1021D000370B08CF8091DD0188608093DD01EFCF60
:1021E0008091DC018260E9CF8091DC018460E5CFE1
:1021F0008091DC018860E1CF8091DD018160EDCFCD
:102200008091DD018260E9CF8091DC018061D5CFD2
:102210008091DC018062D1CF8091DC018064CDCFE0
:102220000E94370B8091DC018068C7CF8091DC0170
:102230008C60C3CF8091DD018360CFCF8091DC01C2
:102240008E7FBBCF8091DD01877FC7CF8091DC017E
:102250008D7FB3CF8091DC018B7FAFCF8091DC018C
:10226000877FABCF8091DD018E7FB7CF8091DD017D
:102270008D7FB3CF8091DC018F7E9FCF8091DC0179
:102280008F7D9BCF8091DC018F7B97CF0E94370B96
:102290008091DC018F7791CF8091DC01837F8DCF9E
:1022A0008091DD018C7F99CF8091DC0182FB9927A1
:1022B00090F921E0922790FB82F990FB83F97DCF82
:1022C0008091DD01982F909591708E7F892B90FBE6
:1022D00081F983CF9091DC01892F8F7B96FF8064F9
:1022E0006CCF0E94370B9091DC01892F97FB87F907
:1022F000805863CF61E08EE090E00E947B1D5FCF4D
:1023000060E0F9CF9091DC01892F8F7E94FF80618E
:1023100054CF9091DC01892F8E7F90FF81604DCF4B
:102320009091DD01892F877F93FF886056CF073713
:102330002CE7120709F49FC082E008373CE7130737
:1023400009F49AC0F6018581E080F180882309F4C0
:10235000B4C0C7010E94620A182F682FC7010E94EB
:102360009902B701812F0E94540A0E9442048C01F5
:10237000D6011596BC9015971696AC90A2942FE0B6
:10238000A2228091DB018770882301F1FB2CBB2006
:10239000F1F0812F807F803461F080E2800F8830FF
:1023A000A8F0812F807E803221F4023078F0AA20BC
:1023B00069F08091DD0182FF09C082E00E942F0355
:1023C0008091DB018770FF24F3948111F12CE12FC0
:1023D000E295EF70103C08F0DBC0F0E0E652F24E00
:1023E0000C94051D06318CE71807A1F48091D601E5
:1023F0008A7A91E0811101C090E09093D50165E364
:10240000811101C069E282E691E00E9422060E94E9
:10241000FB0AE8CD07379CE7190721F182E008376E
:10242000ACE71A0701F10A35BCE71B0709F441C004
:1024300030F50130FCE71F07D1F103302CE712071C
:1024400081F101151C4709F07DCF0E94370BAFEFDA
:10245000B4E3ECE0A150B040E040E1F700C0000080
:102460000E947F0781E00E947D0243E062E081E0FC
:102470000E940403B7CD81E00E948902F6CF0B359C
:102480008CE71807C1F00C351C4709F05BCF809131
:10249000DD0182FB882780F991E089270E9470097D
:1024A00051CF6FEF7FEF80E090E00E94991D0E9476
:1024B0005E0B81E0F3CF80E0F1CFC7010E94D00234
:1024C000182F4FCFB12FBF70EB2E103118F0E294C0
:1024D00090EFE922BB20B9F0EE2069F080E2800F96
:1024E000883010F0011109C08091D6018E298093A7
:1024F000D6010E94FB0A802F43C08091DE018E2905
:102500008093DE01F6CF802F0E94840EEE2009F426
:102510003FC080E2800F883010F0011104C08E2D82
:102520000E94470306C0E0948091DE018E218093D3
:10253000DE010E94FB0A2CC0E12FEF70EE2E107F0F
:10254000103219F0E29480EFE822002349F00130C4
:1025500009F46CC0BB2009F478C0AA20D1F1CBCF1C
:102560008091DD0182FD31C0BB2069F0EE2039F0A1
:102570008091D6018E298093D6010E94FB0A80E0CB
:102580000E942E0E05C080E00E94840EE110C7CF8D
:10259000FF20B1F08091DB0180FD12C0D6011596BD
:1025A0001C928695869586950E947D02C6010E94A2
:1025B000420F8091DB018695869586950E9489025F
:1025C00060E0C6010E948D0A1ECDBB2099F0A110CB
:1025D00004C08E2D0E94D20EDBCFF1E0AF12D8CF17
:1025E0009091D7018E2D8923E81691F29E29909320
:1025F000D701CECFA110CCCF8E2D0E94DC0E9091B2
:10260000D7018E2D8923882329F08E2D809589234B
:102610008093D7018091D8019E2D9823992309F4A6
:10262000B7CFE094E822E092D801B2CFBB2029F0E6
:1026300025E02A1508F4ACCFCCCF34E03A1508F4E5
:10264000A7CF8E2D0E94DC0EA3CFAA20D1F3093391
:1026500049F48FEF97EEA3E081509040A040E1F75E
:1026600000C00000802F0E94840E92CF812F86959B
:1026700086958370882361F0813009F089CFC80185
:102680009370B11002C080E090E00E94FC0580CF02
:10269000C8019370B11002C080E090E00E94D6059E
:1026A00077CF6B2D802F0E947F0672CF812F837092
:1026B000811136C0B11029C0402F42954695477010
:1026C000440F440F202F2F70042E01C0220F0A94B4
:1026D000EAF70071002341F08FE090E001C0880F1D
:1026E0004A95EAF7082F0095169516951370123043
:1026F00091F0802F822B133031F08091D90111306D
:1027000039F0202B82230E9477020E94C90540CF16
:10271000822B802BF8CF202B8091D9018227F3CFF9
:10272000BB2061F110FFF1CF402F429546954770D5
:10273000440F440F202F2F70042E01C0220F0A9443
:10274000EAF70071002341F08FE090E001C0880FAC
:102750004A95EAF7082F00951695169513701230D2
:1027600099F0802F822B133031F08091DA011130F3
:1027700041F0202B82230E947A02C7CF823028F2B8
:10278000D3CF822B802BF7CF202B8091DA018227A9
:10279000F2CF1F70BB2039F0812F0E947D02802F65
:1027A0000E94D20EB2CF802F0E94DC0E812F0E9499
:1027B0008902ABCF023F81F178F4003FC1F0013FC5
:1027C00009F441C0BB2009F460C0AA2009F45AC032
:1027D000802F0E942E0E99CF033F29F1043F79F1FB
:1027E000B110F3CFA1105FC0812F8F71E0CFBB205C
:1027F00081F0B4E0BA1508F488CF1F7181E090E051
:10280000012E01C0880F0A94EAF79091DA01892716
:10281000B2CFE5E0AE16EFCF812F8F71B110C7CFE9
:102820000E947D0272CF80E0BB2009F4A4CF1F710B
:1028300081E0012E01C0880F0A94EAF79CCF9091A5
:10284000DD0192FD06C0812F8F71BB2009F4AFCF4F
:10285000E7CFBB2061F0812F8F7192FFE1CFF8E0CD
:102860008F9F9001112423602093DB01D9CF81E059
:102870000E942F0321E02A1508F047CF82E00E9432
:102880002F0343CF812F8F71CBCFAA2009F4ACCF78
:10289000093349F43FEF87EE93E031508040904098
:1028A000E1F700C00000802F0E94840E2ECFF801B7
:1028B000E851FC47E730F10508F06DCCEA51F24EE3
:1028C0000C94051DF801E851FC47E730F105B0F321
:1028D0001092D401C8019057839708F083CD84E00B
:1028E00090E00E94651D9093DD018093DC01F8016A
:1028F000E150F047E232F10508F05CCCE351F24ED2
:102900000C94051D80911F02803178F480911E0285
:10291000882359F0E091E0012091DF0130911A0203
:102920004091190257E02E1301C008956E2F70E0F8
:102930005E9FF0011124DF01AF51BE4F14968C91C0
:102940001497882361F111968C911197831327C0F6
:102950008C91841324C015968C91159781111FC0FA
:1029600012968D919C91A0911B02B0911C028A1B22
:102970009B0B883C910598F480911F028F708061B9
:1029800080931F02E951FE4F80818F7080618083A8
:1029900089E192E00E94420F0E9425030895FB0105
:1029A0003196E770C0CFADE0B0E0E9EDF4E10C9412
:1029B000161D8C0186E0F801DE01189601900D923B
:1029C0008A95E1F7F8017080F580A280B380848158
:1029D00099E1892E92E0992E60901D02611018C035
:1029E000882399F0FF2009F413C1C8010E94BC0A92
:1029F000882309F40DC187E0F801A9E1B2E0019054
:102A00000D928A95E1F70E948214FF24F39453C03B
:102A1000D0901E0220911B0230911C02A501421B86
:102A2000530BDD2009F4C4C0483C510508F07AC0BE
:102A3000882359F380911A02C180E0901F02FFE0C1
:102A4000FE1508F459C0C81215C0809119028711EB
:102A500011C0F1104BC08E2D8F70806180931F02CA
:102A600089E192E00E94420F80911F02F801868363
:102A7000F12C21C0F1103AC040E06C2D872D0E944E
:102A8000EE0840E06C2D872D0E94EE08F82E811193
:102A9000EFCF888599850E94AD0A292F22952F7046
:102AA000903470F49F702230A0F09923B1F0F801B7
:102AB0009681903190F48F2D2D96EEE00C94321D7E
:102AC0002A5F2F70223068F0C8010E94420FFD2C4F
:102AD000F2CF992311F0882371F3805E883058F388
:102AE000F3CF803F40F3815F8230F9CF80911F02A6
:102AF000816080931F02BCCFC8123CC08091190234
:102B0000871138C0F11036C0F801E682C8010E9472
:102B1000420F87E0F801A9E1B2E001900D928A9599
:102B2000E1F773CFE0901F02FFE0FE1550F089E15E
:102B300092E00E94420F87E0F40111928A95E9F732
:102B400097CF882309F461CF90911A02F80181810F
:102B5000981310C08091190287110CC0F1100AC09F
:102B6000E682C8010E94420F87E0F40111928A9523
:102B7000E9F74BCFC8010E94BC0A882309F448C07A
:102B8000FF2009F445C080911F02803208F433CF42
:102B90008091190290911A029A838983BC82AB8238
:102BA0006D821E82EF82CE0101960E94420F23CFDA
:102BB000483C510508F0BFCF882309F426CFFF20F9
:102BC00039F190911A028181981318C080911902ED
:102BD000871114C080911F0280FD9BCF803108F4C3
:102BE00098CF8683807F803F09F490CF8681982F8D
:102BF000907F905F8F70892B868388CFC8010E9459
:102C0000BC0A8111F8CE80911F02816080931F025F
:102C1000C8010E94420FF9CEABE1B0E0E2E1F6E17B
:102C20000C94211D4E8B5F8B688F798F8A8F9B8FC1
:102C300091111092DE011D8A86E0FE017696DE017A
:102C40001F9601900D928A95E1F78B89882329F0D0
:102C500061E0CE010F960E948D0A87E0FE013F964B
:102C6000DE01189601900D928A95E1F7CE01089643
:102C70000E94D31481112BC087E0FE013896DE013B
:102C8000119601900D928A95E1F72091DF01409114
:102C9000E0018C858823D9F030E0C9010196877066
:102CA000992750E084179507E9F097E0929FD001AB
:102CB000939FB00D1124AF51BE4FFE01319601908C
:102CC0000D929A95E1F78093DF010E94250317E0AA
:102CD0008091E0019091DF01891312C06B96E3E0CF
:102CE0000C943D1D0E94370B1092DF011092E00101
:102CF00087E0E9E1F2E0DF011D928A95E9F7E7CF8D
:102D0000189FC00111248F519E4F0E94D314882315
:102D100029F38091E00190E00196877099278093D4
:102D2000E001D6CFA6E0B0E0E8E9F6E10C94201D82
:102D30000E944B068C018091AD019091AE018017ED
:102D4000910779F019821A820E944B06BC014981D1
:102D50005A8180E090E00E940C161093AE0100931F
:102D6000AD012696E4E00C943C1DA8E0B0E0EBEB4E
:102D7000F6E10C94161DFE01319688E0DF011D92EC
:102D80008A95E9F79AE1A92E91E0B92E8F012EE1FB
:102D9000E22E21E0F22E3F01CC24C394D12CF50188
:102DA00081915F018F3F09F447C0F894E82FE295C5
:102DB000EF70F0E021A18F70A60102C0440F551FF3
:102DC0008A95E2F7CA01922F982B91A392A1809540
:102DD000892382A3789400C0EEE1F1E021E030E0A5
:102DE000812C912C41914F3F09F44AC0A42FA29508
:102DF000AF70A05EB0E08C9190E04F7002C09595EE
:102E000087954A95E2F7817081113AC0C901882AF5
:102E1000992A220F331F51E0EA32F50719F7F5011D
:102E2000319780818F3F11F00E945D0580EA8A957D
:102E3000F1F7D8018D929C920E5F1F4FEA14FB04AC
:102E400009F0ADCF48E050E0B3018CE891E00E947A
:102E5000AF1D892BC1F088E0F301ACE8B1E001902F
:102E60000D928A95E1F781E080936C010E944B06F8
:102E700090936B0180936A012896EEE00C94321DCA
:102E800080E090E0C4CF80916C018823A9F3809109
:102E90006A0190916B010E947007059768F348E002
:102EA00050E06CE871E084EA91E00E94AF1D892B4C
:102EB00049F088E0ECE8F1E0A4EAB1E001900D927D
:102EC0008A95E1F710926C01D7CFCDB7DEB7A49702
:102ED0000FB6F894DEBF0FBECDBF85B7806885BF43
:102EE00085B7806885BF84B7877F84BF0FB6F894A5
:102EF000A8958091600088618093600010926000C6
:102F00000FBE80E890E00FB6F89480936100909334
:102F100061000FBE8BE595E09093610180936001A5
:102F20000E943D080E9493088091E2008460809393
:102F3000E20078948091AC01882399F08091E900B7
:102F40001091EC001795112717958F70182B109280
:102F5000E9008091E80083FD0E94740B1F701093BC
:102F6000E90082E084BD93E095BD9AEF97BD809320
:102F70006E000E94E20A811102C00E94150A87EFCA
:102F80000E945D0586EF0E945D0585EF0E945D054C
:102F900084EF0E945D050EE111E0D8018D918D0155
:102FA0008F3F11F00E945D05B1E00A321B07A9F7BF
:102FB00088E0E4EAF1E0DF01282F1D922A95E9F785
:102FC000ECE8F1E0DF011D928A95E9F780E090E0FE
:102FD0000E94651D853E9E4F21F40E94E20A8111E8
:102FE00063C065EE7EEF80E090E00E94991D60E096
:102FF00082E090E00E947B1D81E08093D90161E036
:1030000083E090E00E947B1D60E074E184E090E04A
:103010000E94991D60E086E090E00E947B1D60E0C8
:1030200087E090E00E947B1D40E050E0BA0188E01C
:1030300090E00E948D1D60E083E290E00E947B1D85
:1030400060E08CE090E00E947B1D60E08DE090E00D
:103050000E947B1D19821A821B821C821D821E8285
:103060001F82188648E050E067E170E0CE010196CB
:103070000E946B1D40E050E0BA018FE190E00E9499
:103080008D1D80E00E94F7090E94150A40E050E083
:10309000BA018FE090E00E948D1D40E050E0BA013F
:1030A00083E190E00E948D1D82E090E00E945D1D12
:1030B0008093960184E090E00E94651D9093DD016D
:1030C0008093DC010E94B516EFEFF6E721E0E150B6
:1030D000F0402040E1F700C000000E94B51680914A
:1030E000A40180FF08C06FEF7FEF80E090E00E94B6
:1030F000991D0E947F0783E090E00E945D1D0E9461
:10310000770281E091E09093B0018093AF01E8E114
:103110006E2E712C55245394442443948091AC0119
:10312000853049F48091AC01853009F45AC00E9481
:10313000370B0E94C9050E94B51667E9A62E61E00B
:10314000B62E74EA872E71E0972ED401F5012191F5
:1031500031918D919D9141E0EF39F40709F491C0CF
:1031600028173907A1F3312CD4010D911D914D0180
:10317000F501C190D1905F01C016D10659F1C0266A
:10318000D126212CEE24E394F12CC7018C219D2122
:10319000892BB1F029823A820E944B069C838B8353
:1031A0004D8291E0970120233123232B09F490E0F5
:1031B0009E8349815A816B817C818D810E940C168E
:1031C0002394EE0CFF1CFCE02F12DFCFF5013297A9
:1031D00011830083339424E03212C6CF0E94530738
:1031E00056C08091AC01843011F11092940140E4FA
:1031F0000FB6F894A895609260000FBE40936000EF
:1032000083B7817F846083BF83B7816083BF7894F5
:10321000889583B78E7F83BF0FB6F894A895809169
:103220006000886180936000109260000FBE809102
:103230009501882309F476CF0E94B516E4EAF1E0FF
:1032400081919191892B29F481E0EC3AF807C1F73B
:1032500069CF90E199BD82E189BD09B400FEFDCF3F
:103260008091D8008F7D8093D8008091E0008260AB
:103270008093E0008091E00081FDFCCF0E94370B3D
:1032800051CF2817390709F06ECF0E94921686E0B9
:10329000EEECF1E0DE01119601900D928A95E1F7D6
:1032A000F090CF010091D0011091D101D090D201C6
:1032B000E090D3011092D0011092D1011092D2016E
:1032C0001092D301812F802B882379F08091A10166
:1032D0009091A2010E9470079C018091CC01811104
:1032E0005CC02B30310508F05EC08D2D8E298823FF
:1032F00079F080919F019091A0010E9470079C013C
:103300008091CB01811188C02B30310508F08AC033
:103310008091CF01F81216C08091D001882311F05E
:10332000801310C09091D101992311F091130AC01C
:103330002091D301211106C02091D201211102C098
:10334000892B81110E94570686E0FE013196AEEC72
:10335000B1E001900D928A95E1F70E94C905909124
:10336000A301891721F08093A3010E945307809144
:10337000AC01843009F0D2CE83E08093E9008091E3
:10338000E80082FFCBCE8091E80085FD84C080916B
:10339000E8008B778093E800C1CE2531310508F431
:1033A000A4CF8F3F19F08F5F8093CC01002359F099
:1033B0000E9484059FEF10160CF491E0899F802DE8
:1033C00011248093D001112359F00E94840591E0CB
:1033D00011160CF09FEF899F802D11248093D1014D
:1033E0008091D001882309F480CFC090D101CC20F6
:1033F00009F47BCF0E947605811101C081E08093A2
:10340000D0018C2D0E947605882319F08093D1017C
:103410006CCF5092D10169CF2135310508F478CFB6
:103420008F3F19F08F5F8093CB01DD2059F00E9410
:10343000A4059FEF1D140CF491E0899F802D1124A9
:103440008093D201EE2059F00E94A40591E01E1451
:103450000CF09FEF899F802D11248093D3018091E0
:10346000D201882309F454CFE090D301EE2009F46F
:103470004FCF0E947605811101C081E08093D20177
:103480008E2D0E947605882319F08093D30140CFBA
:103490005092D3013DCF0E940C0830E2E32EF12C74
:1034A0008E010F5F1F4F8823D1F08091E8008B774A
:1034B0008093E800E981E150E33158F5F0E0E15F05
:1034C000F14E0C94051D8091F100D8018C93B1E070
:1034D000EB1AF108E114F10441F30F5F1F4F8091E3
:1034E000E80085FDF0CF8091E8008B778093E800BD
:1034F0000E940C08882399F3D8CF1A828CE08B8322
:103500001AC08A81833049F138F4813061F0823009
:10351000D9F08FEF89830FC08430D9F71B821C82CA
:103520001D821E8208C00E9453070E940B1D6B83E0
:103530007C838D839E8340E250E0BE016F5F7F4FAE
:1035400082E00E940D09EACD87E290E00E945D1DB5
:103550001B821C821D828E83EECF8B8190E0DE0168
:10356000119612968430910534F7FC01FF27EE0F77
:10357000FF1FEC55FE4F2081318111963C9311972E
:1035800012962C9312970196ECCF8A81823019F013
:10359000853089F2BECF8B819C81AD81BE8189A3AC
:1035A0009AA3ABA3BCA3BC01CD010E940B1D87E273
:1035B00090E00E947B1DBFCF4C816B818A810E946D
:1035C000250A9827892798279E838D83B4CF2D813C
:1035D0003E813227232732274C816B818A810E94CA
:1035E0008709A9CF0E94AE09A6CF80E18A83A3CF25
:1035F00081E08A8388EF83CF0A811B81102701270E
:1036000010278C816801C80ED11C7E0195E0E90E5F
:10361000F11C0C151D0509F48ECF80E0083FA1E0D8
:103620001A0728F4C801885F9D4F0E945D1DF701AD
:1036300081937F010F5F1F4FECCF0A811B81102701
:1036400001271027CE0101967C018C816701C80EED
:10365000D11CCE14DF0409F46ECF083F91E01907A6
:1036600040F4D70114966C91C801885F9D4F0E9469
:103670007B1D0F5F1F4FBFEFEB1AFB0AEACF0E94C3
:10368000E70959CF85E0B2CF0A811B8110270127B6
:1036900010278C816801C80ED11C7E01E5E0EE0E7A
:1036A000F11CC016D10609F446CF80E0003EF1E0DF
:1036B0001F0720F4C80188960E945D1DD7018D93D5
:1036C0007D010F5F1F4FEDCF0A811B81102701275E
:1036D0001027FE0131967F018C816F01C80ED11C2D
:1036E000EC14FD0409F427CF003EF1E01F0738F485
:1036F000D70114966C91C80188960E947B1D0F5FBC
:103700001F4FBFEFEB1AFB0AEBCF1F921FB61F92A2
:1037100011248F939F93AF93BF9380919401811154
:1037200013C08091840190918501A0918601B09190
:1037300087014196A11DB11D80938401909385015D
:10374000A0938601B0938701BF91AF919F918F9114
:103750001F901FBE1F90189578941F921FB61F923E
:1037600011248F939F93AF93BF9380918401909185
:103770008501A0918601B09187010196A11DB11D1F
:103780008093840190938501A0938601B093870173
:10379000BF91AF919F918F911F901FBE1F90189561
:1037A0001F920F920FB60F9211242F933F934F93B6
:1037B0005F936F937F938F939F93AF93BF93EF9399
:1037C000FF938091E10082FF09C08091E20082FFB7
:1037D00005C08091E1008B7F8093E1008091DA0049
:1037E00080FF24C08091D80080FF20C08091DA0043
:1037F0008E7F8093DA008091D90080FF9BC080E1AA
:1038000089BD82E189BD09B400FEFDCF81E08093CE
:10381000AC0180917201811109C00E943D080E9493
:1038200093088091E20084608093E2008091E1003F
:1038300080FF17C08091E20080FF13C08091E200FA
:103840008E7F8093E2008091E20080618093E200AD
:103850008091D80080628093D80019BC85E0809365
:10386000AC018091E10084FF29C08091E20084FFD7
:1038700025C080E189BD82E189BD09B400FEFDCF8C
:103880008091D8008F7D8093D8008091E1008F7E59
:103890008093E1008091E2008F7E8093E20080912E
:1038A000E20081608093E20080917101882309F435
:1038B00047C084E08093AC018091AC018091E1002D
:1038C00083FF27C08091E20083FF23C08091E10045
:1038D000877F8093E10082E08093AC0110927101B8
:1038E0008091E1008E7F8093E1008091E2008E7FE5
:1038F0008093E2008091E20080618093E20042E0E8
:1039000060E080E00E945C088091F0008860809315
:10391000F000FF91EF91BF91AF919F918F917F91B7
:103920006F915F914F913F912F910F900FBE0F902C
:103930001F90189519BC1092AC011092720176CFAD
:103940008091E30087FF02C083E0B4CF81E0B2CF73
:103950001F920F920FB60F921124FF920F931F9395
:103960002F933F934F935F936F937F938F939F9387
:10397000AF93BF93CF93DF93EF93FF9309EE10E0E4
:10398000F8018081C091EC00C795CC27C7958F7056
:10399000FC2EF82A1082C0EFD0E08881877F8883D0
:1039A00078940E94740BF801108288818860888363
:1039B000CF2DCF70C083FF91EF91DF91CF91BF9159
:1039C000AF919F918F917F916F915F914F913F91B7
:1039D0002F911F910F91FF900F900FBE0F901F908E
:1039E000189597FB072E16F4009407D077FD09D0A1
:1039F0000E94491D07FC05D03EF4909581959F4F8C
:103A00000895709561957F4F0895EE0FFF1F059003
:103A1000F491E02D0994692796276927782787274D
:103A2000782708952F923F924F925F926F927F92E4
:103A30008F929F92AF92BF92CF92DF92EF92FF92BE
:103A40000F931F93CF93DF93CDB7DEB7CA1BDB0B6A
:103A50000FB6F894DEBF0FBECDBF09942A8839880F
:103A600048885F846E847D848C849B84AA84B98416
:103A7000C884DF80EE80FD800C811B81AA81B98122
:103A8000CE0FD11D0FB6F894DEBF0FBECDBFED0136
:103A90000895AA1BBB1B51E107C0AA1FBB1FA61795
:103AA000B70710F0A61BB70B881F991F5A95A9F7E7
:103AB00080959095BC01CD010895F999FECF92BDF6
:103AC00081BDF89A992780B50895A8E1B0E042E059
:103AD00050E00C94A11DDC01A40FB51F41505040D3
:103AE00048F0CB01840F951F2E910E947C1D415000
:103AF0005040D0F70895262FF999FECF92BD81BD91
:103B0000F89A019700B4021639F01FBA20BD0FB61B
:103B1000F894FA9AF99A0FBE08950396272F0E94F7
:103B20007C1D0E947B1D252F0E947C1D242F0C9440
:103B30007C1D0196272F0E947C1D0C947B1DDC01AF
:103B4000CB01FC01F999FECF06C0F2BDE1BDF89AA8
:103B5000319600B40D9241505040B8F70895FB01E2
:103B6000DC0104C08D910190801921F44150504036
:103B7000C8F7881B990B0895F894FFCFA806AB06E9
:103B8000B106C606C606C606C606C606C606C606EA
:103B9000C606B406B906BD06C306D406DA06DE06B6
:103BA000520C780C7E0C780C7E0CD10CF30C7E0C35
:103BB000EF0DFC0D621262129C129C12361351130F
:103BC000C812C8125613C913DA13DA13B810BC108E
:103BD000AE10B410C010C410C8101E1189112611E7
:103BE000F010F4102A11F8102E113A11041182115C
:103BF00008113E110C1142116A1110114611711178
:103C000016114C115411FC103211001136111A11F9
:103C1000501160117A118011EA10221190117D1A51
:103C2000811AC51ADC1AE71AF21A891A891A891A2E
:103C3000891A891AF51AF81AFC1A1D1B3F1B421B18
:043C4000441B641BA2
:103C44000190074B0993076209690944227B4901E2
:103C54002701AC009F01B801D801F7F6F5F4313320
:103C64003234C697669490919293E200E900EA0098
:103C7400B500B600B700CD008301CC008A019201E3
:103C840094012102230224022502260227022A0289
:103C9400B300B4006F0070009F01CB019F02A0022B
:00000001FF
