:100000000C945E020C947B020C947B020C947B0299
:100010000C947B020C947B020C947B020C947B026C
:100020000C947B020C947B020C94DC1B0C94B41C8F
:100030000C94911B0C947B020C947B020C947B021D
:100040000C947B020C947B020C947B020C947B023C
:100050000C947B020C94B81B0C947B020C947B02D6
:100060000C947B020C947B020C947B020C947B021C
:100070000C947B020C947B020C947B020C947B020C
:100080000C947B020C947B020C947B020C947B02FC
:100090000C947B020C947B020C947B020C947B02EC
:1000A0000C947B020C947B020C947B0205010902E8
:1000B000A10185020901A1000509190129081500FE
:1000C0002501950875018102050109300931158165
:1000D000257F95027508810609381581257F9501D0
:1000E00075088106050C0A38021581257F95017572
:1000F000088106C0C005010980A101850319012AF4
:10010000B700150126B700950175108100C0050CD8
:100110000901A101850419012AA002150126A002E6
:10012000950175108100C00660FF0961A101096297
:10013000150026FF00952075088102096315002629
:10014000FF00952075089102C005010906A101056F
:100150000719E029E7150025019508750181029529
:1001600001750881010507190029FF150026FF0008
:100170009506750881000508190129051500250156
:10018000950575019102950175039101C009025B06
:1001900000030100A0FA09040000010301010009A5
:1001A0002111010001224400070581030800010913
:1001B00004010002030000000921110100012222B4
:1001C0000007058203200001070503032000010941
:1001D0000402000103000000092111010001227B3B
:1001E000000705840320000112010002000000083E
:1001F000444101000001010200010C036A0070008B
:100200003800310066000000180361006C006500D2
:100210006B0074006F0072005F0064006900790079
:1002200000000403090429003A003B003C003D00A3
:100230003E003F004000410035001E001F0020002E
:10024000210022002300240025002B0014001A00A6
:100250000800150017001C0018000C0039000400ED
:100260001600070009000A000B000D000E00E10057
:100270001D001B00060019000500110010003600CB
:10028000E000E300E2008B002C002C008A008800D4
:10029000500042004300440045004600260027006D
:1002A0002D002E0089002A00120013002F003000BC
:1002B00028000F0033003400320037003800870078
:1002C00052004A0051004F000100010001000100EE
:1002D0000100010001000100010001000100010016
:1002E0000100010001000100010001000100010006
:1002F00001000100010001000100010001000100F6
:1003000001000100010001000100010001000100E5
:1003100001000100010001000100010001000100D5
:1003200001000100010001000100010001000100C5
:1003300001000100010001000100010001000100B5
:1003400001000100010001000100010001000100A5
:100350000100010001000100010001000100010095
:100360000100010001000100010001000100010085
:100370000100010001000100010001000100010075
:100380000100010001000100010001000100010065
:100390000100010001000100010001000100010055
:1003A0000100010001000100010001000100010045
:1003B0000100010001000100010001000100010035
:1003C0000100010001000100010001000100010025
:1003D0000100010001000100010001000100010015
:1003E0000100010001000100010001000100010005
:1003F00001000100010001000100010001000100F5
:1004000001000100010001000100010000000000E6
:1004100000000000000000000000000000000000DC
:1004200000000000000000000000000000000000CC
:100430007E0F00D4FFFFFFC700000078000000001F
:10044000000000002A2B280000000000000000002F
:100450000000000000000029000000002C1E3420D5
:10046000212224342627252E362D3738271E1F20FB
:100470002122232425263333362E37381F04050640
:100480000708090A0B0C0D0E0F1011121314151684
:100490001718191A1B1C1D2F3130232D3504050682
:1004A0000708090A0B0C0D0E0F1011121314151664
:1004B0001718191A1B1C1D2F3130354C11241FBE63
:1004C000CFEFDAE0DEBFCDBF11E0A0E0B1E0ECE5B8
:1004D000FCE302C005900D92A236B107D9F722E0E5
:1004E000A2E6B1E001C01D92AF34B207E1F70E946D
:1004F0006B170C94C81D0C9400008093080208959B
:1005000080930902089521E030E001C0220F8A950E
:10051000EAF780910902822B0E948002089521E06F
:1005200030E0A90102C0440F551F8A95E2F7CA01C5
:1005300080959091090289230E9480020895292FB5
:10054000993098F5893088F590E039E0239F800D47
:10055000911D1124282F277041E001C0440F2A95D6
:10056000EAF723E0969587952A95E1F7FC01EE0FCF
:10057000FF1FE80FF91FE752FE4F20E030E070E068
:100580005191DF011197CB01022E02C096958795FC
:100590000A94E2F7817081958527842385278C93BF
:1005A0002F5F3F4F2330310559F70895292F993098
:1005B00078F5893068F590E039E0239F800D911D32
:1005C0001124682F677023E0969587952A95E1F7A7
:1005D000FC01EE0FFF1FE80FF91FE752FE4F40E04E
:1005E00050E080E0219130E0062E02C0369527953C
:1005F0000A94E2F721703327042E01C0220F0A94D7
:10060000EAF7822B4F5F5F4F4330510559F708954A
:1006100080E008959091090221E030E0F90101C0E5
:10062000EE0F8A95EAF7D90102C0AA0FBB1F6A959F
:10063000E2F7EA2B01C0220F4A95EAF7892F8E23B1
:10064000E81305C0892F822B0E948002089520950F
:10065000822F8923F9CF80910F0290910E02981377
:1006600001C008958F5F8770FACF90910A0280953C
:10067000892380930A02282F277021110DC0891722
:1006800059F090910C0292FF07C086958695869549
:100690000E948F0210920A020895982F90958091DF
:1006A00005028923809305020895803E9105D1F1CA
:1006B000C8F48133910509F47FC048F4893291056B
:1006C00009F46FC08A32910509F47DC00895893319
:1006D0009105E1F082389105C9F08533910509F45F
:1006E0005BC00895843E9105D1F148F4823E9105A6
:1006F00031F1833E910541F181EE90E00895863E0F
:100700009105C1F1873E9105E1F1089520910B0219
:100710002370211165C020910C0223FF14C089E2CF
:1007200090E0089520910B0220FD43C030910C020F
:1007300030FF09C024FF4EC080E090E00895209172
:100740000B0222FDF7CF089520910B0222FD45C038
:1007500030910C0230FD44C024FFF5CFEDCF209145
:100760000C0221FFF0CF80910B0284FDE5CF87EED4
:1007700090E0089520910B0223FFE5CF24FDDCCF0C
:10078000F6CF20910B0223FD2EC030910C0231FFD9
:10079000E3CF84EE90E0089520910B0225FFD3CFA4
:1007A000BECF20910B0225FD21C020910C0223FF1A
:1007B000CACF89E390E0089520910B0226FFC3CFB2
:1007C0008AE290E0089520910B0226FFBCCF81E3DE
:1007D00090E0089583EE90E0089582EE90E0089511
:1007E00080EE90E0089586EE90E0089585E390E035
:1007F000AACF90910B0292FF10C041E0282F2471E4
:10080000243009F040E031E0282F2871283009F029
:1008100030E0431711F02CE0822793FF10C041E035
:10082000282F2471243109F040E031E0282F28716D
:10083000283109F030E0431711F02CE08227309185
:100840000C0230FF10C051E0282F2171213009F037
:1008500050E041E0282F2871283009F040E054177B
:1008600011F029E0822731FF10C041E0282F2171CB
:10087000213109F040E031E0282F2871283109F0BA
:1008800030E0431711F029E0822794FD877E089518
:100890001F93CF93DF930E945503EC01811522E54E
:1008A000920708F053C0811540E5940708F0DDC0B9
:1008B000803E9105F8F48D3C910508F0AEC0883A71
:1008C000910580F4853A910508F099C08130910531
:1008D00021F00497813A910550F4CE01DF91CF9138
:1008E0001F910895885A91094B9708F48BC0C0E076
:1008F000D0E0F3CF811550E49507F8F4C11580E2FC
:10090000D80708F0CBC0C83ED10538F3CE019A9580
:1009100081159F4160F78D2F0E94F903182FCE019A
:1009200099270E945503212F30E0322F2227E90119
:10093000CC27DF71C82BD92BD0CF99270E94550324
:10094000CC27DF70C82BD92BD06AC7CF803842E5BF
:100950009407C8F5803652E5950708F067C0C034A3
:1009600082E5D807B0F08C2F86958695877020E2B7
:10097000829FC0011124C37021E030E0A90102C0B0
:10098000440F551FCA95E2F7EA01C82BD92BDC6842
:10099000A4CFC03252E5D50708F041C08C2F869510
:1009A000869520E2829FC0011124C37021E030E0CF
:1009B000A90102C0440F551FCA95E2F7EA01C82BEE
:1009C000D92BDD688ACF803C52E5950760F48F71A2
:1009D000C03AD24508F03FC090E0982F8827EC013C
:1009E000C46FD06A7ACF805C9245809708F07FCF41
:1009F000DC2FCC27CC27DF71C06FD06A6ECFA497D5
:100A0000D0646BCFC85AD0E0CC0FDD1FC45DDE4F81
:100A10000990D881C02DD46460CFD0655ECFCF71EE
:100A2000D0E0DC2FCC27C16FD06A57CF8695869552
:100A3000877020E2829FC0011124C37021E030E062
:100A4000A90102C0440F551FCA95E2F7EA01C82B5D
:100A5000D92BDA6842CF0E94F903C82FD0E0DC2FEF
:100A6000CC27CC27DF71D06238CF8F710E94F90379
:100A700065E0D695C7956A95E1F7CF70D0E0DC2F99
:100A8000CC27282F30E084FF05C054E0220F331F0D
:100A90005A95E1F7C22BD32BD0691FCF8D2F8F71C1
:100AA0000E94F903182FCE0199270E945503212F88
:100AB00030E0322F222722273F71282B392BE901E2
:100AC000D2CF80E00895F894E82FE295EF70F0E03F
:100AD00041A18F7021E030E0B90102C0660F771F9D
:100AE0008A95E2F7CB01962F9095942391A392A13A
:100AF000892B82A378940895282F35EB2303C00116
:100B0000112497FF04C080589109892F08958058B7
:100B10009F4FFBCF8091FC0180FD14C081FD14C06C
:100B200082FD16C08091FB01882381F08E3180F414
:100B300020E5829FC00111246EE170E00E94FD1C3F
:100B4000862F089584E1089588E2089588E0089545
:100B500080E508958091FC0180FD17C081FD17C0DC
:100B600082FD19C08091FA01882399F0883298F4A7
:100B700028E0829FC001112468E270E00E94FD1C01
:100B80006115710551F0862F089562E0FCCF64E095
:100B9000FACF61E0F8CF68E0F6CF81E00895E09108
:100BA000CF01F091D001309729F00190F081E02D34
:100BB0000995089580E00895A3E0B0E0E2EEF5E045
:100BC0000C942E1D9C0180918C0190918D018217B7
:100BD0009307A1F030938D0120938C01E091CF0118
:100BE000F091D001309751F083E089833B832A83D1
:100BF0000084F185E02DCE01019609952396E2E06F
:100C00000C944A1DA3E0B0E0E8E0F6E00C942E1D41
:100C10009C0180918A0190918B0182179307A1F02A
:100C200030938B0120938A01E091CF01F091D001A4
:100C3000309751F084E089833B832A830084F185D7
:100C4000E02DCE01019609952396E2E00C944A1D11
:100C50009C01FC0132968FEF90E04191461751F0D4
:100C60008F3F19F4411101C0892F9F5F9630A9F77A
:100C70008F3F09F40895280F311D87FD3A95F9013A
:100C8000628308959C01FC013296285F3F4F819159
:100C9000861303C0DF0111971C92E217F307B9F71F
:100CA00008952FB7F8948091860190918701A091C3
:100CB0008801B09189012FBF08950E9451062091AB
:100CC000FF0130910002232B222321F08093B701F2
:100CD0009093B8012091010230910202232B22232C
:100CE00021F08093B5019093B601E091CF01F0918E
:100CF000D001309749F082E08093FD010680F781B2
:100D0000E02D8DEF91E0099508952091FF019091DC
:100D1000020230910102662309F45AC04091000298
:100D2000242B292B232B222331F098E09093FB01D5
:100D300091E09093FA018D3C41F40E948A058195DF
:100D4000809300020E945D060895E2E3E80FE2311D
:100D5000C8F7F0E0E653F24E0C94111D0E948A058C
:100D6000EFCF0E948A0581958093FF01EBCF0E940F
:100D70008A05FACF0E94AA0580930102E3CF0E9460
:100D8000AA058195F9CF0E94AA0581958093020258
:100D9000D9CF0E94AA05FACF815D990B21E030E0FE
:100DA00001C0220F8A95EAF78091FE01822B809381
:100DB000FE01C8CF8091FC0181608093FC01C2CF0D
:100DC0008091FC018260F9CF8091FC018460F5CFB5
:100DD0008D3C59F48091000287FF0DC010920002F3
:100DE000222359F41092FB0108C08E3C81F48091BB
:100DF000000218169CF3222381F080910102909149
:100E00000202892B81119ECF1092FA019BCF8F3C59
:100E100041F427FFF0CF1092FF0180910002882358
:100E2000E0CF803D19F41216B4F3E5CF893D29F4E3
:100E300013160CF710920102DECF8A3D19F437FF2A
:100E4000DACFF8CF8B3D29F497FFD5CF109202026D
:100E5000D2CF8C3D19F41916CCF3CDCF9FE2980F69
:100E6000983090F4815D990B41E050E0BA0102C0E6
:100E7000660F771F8A95E2F7CB0180959091FE016E
:100E800089238093FE01B7CF8D3D31F48091FC0121
:100E90008E7F8093FC01AFCF8E3D21F48091FC01C9
:100EA0008D7FF7CF8F3D09F0A6CF8091FC018B7F1E
:100EB000F0CFA4E0B0E0EFE5F7E00C942E1D8FB783
:100EC000F8942091860130918701409188015091DA
:100ED000890129833A834B835C838FBF69817A813F
:100EE0008B819C812496E2E00C944A1D9C014FB7B3
:100EF000F8948091860190918701A0918801B0912A
:100F000089014FBF821B930B089587E797E7909362
:100F100001088093000888E19AE00FB6F894A8953C
:100F2000809360000FBE90936000FFCF8091850199
:100F300008950895FC019B0180917B0190917C01B3
:100F40008617970740F0672B29F48091E8008E7789
:100F50008093E800C90140E0009741F4411106C0C8
:100F60008091E80082FF2FC080E008952091CC019D
:100F70002223A9F12530A9F12091E80023FD2DC0FD
:100F80002091E80022FDECCF2091E80020FFE4CF83
:100F90003091F3002091F200009719F028303105CC
:100FA00058F041E02830310509F040E02091E80098
:100FB0002E772093E800D0CF41914093F100019724
:100FC0002F5F3F4FE9CF8091CC01882341F08530DE
:100FD00041F08091E80083FFC3CF81E0089582E073
:100FE000089583E008958091750187FF13C0809173
:100FF000E80082FF06C08091E8008B778093E800CC
:1010000004C08091CC018111F2CF08958091CC0170
:101010008823D9F38091E80080FFF8CF8091E80021
:101020008E77ECCF2091E4003091E50095E6A901A0
:101030008091EC008170882331F08091E80080FF7E
:1010400006C080E008952091E80022FD1BC0809139
:10105000CC01882391F0853091F08091EB0085FDE3
:1010600010C02091E4003091E5004217530701F3CE
:1010700091509111DCCF84E0089582E0089583E0DF
:10108000089581E00895E8EDF0E080818E7F80830F
:101090001092E2001092DA001092E100A0EEB0E0AF
:1010A0008C9181608C9380818F77808319BCA7EDB0
:1010B000B0E08C918E7F8C9380818F7E80831092A4
:1010C00074010895982FE42FE2709093E90089133A
:1010D00008C0762F242F50E0E11111C091E0980F45
:1010E000F4CF7091EC002091ED005091F00021FDC3
:1010F00006C09F5F973049F78093E90008953091CB
:10110000EB003E7F3093EB003091ED003D7F30935C
:10111000ED003091EB0031603093EB007093EC0008
:101120002093ED005093F0002091EE0027FDE1CFD9
:101130000895A0E0B0E0EFE9F8E00C94281DC8EDB8
:10114000D0E088818F7E8883E7EDF0E08081816048
:10115000808384E082BF81E08093740188818E7FE8
:10116000888302EE10E0F80110821092DA0081EE1E
:10117000C82ED12CF601108288818F7788838881D0
:101180008068888388818F7D888319BC1092CC0108
:10119000109273011092A1011092720190EEE92E4B
:1011A000F12CF70180818B7F808388818160888327
:1011B00042E060E080E00E946208F60180818E7F5C
:1011C0008083F80180818160808380818860808352
:1011D000F70180818E7F8083888180618883CDB78D
:1011E000DEB7E8E00C94441DE0910F0290910E02EE
:1011F00027E0E91302C080E00895AE2FB0E02E9FF3
:10120000F0011124E05FFD4F3181361306C03081BB
:10121000381303C03581341304C0FD013196E770E3
:10122000E8CF81E008950F931F93CF93DF93EB01F5
:101230008A019091CC01943079F58093E9008FEF89
:101240009091E80095FD07C095ED9A95F1F70000A3
:1012500081508111F5CF8091E80085FF1DC00E946B
:101260001208811114C08091E80085FD06C08091AC
:10127000E8008E778093E800F2CF88818093F100B8
:10128000015011090115110511F02196ECCF809143
:10129000E8008E778093E800DF91CF911F910F9146
:1012A0000895CF93DF93D82FC92F48E050E0682FDF
:1012B000792F81E00E94130988E0ED2FFC2FADE724
:1012C000B1E001900D928A95E1F7DF91CF910895F9
:1012D000BC0146E050E084E00E9413090895BC017F
:1012E00043E050E084E00E941309089590910C02BD
:1012F00092FB222720F9281779F080FB92F990932E
:101300000C0260910B0270910C0284E090E00E944C
:10131000A51D82E00E94350308951F93CF93DF93AC
:10132000962F122F632F8330D8F49930C8F44930A8
:10133000B8F4C42FD0E0CC0FDD1F22E1929FC00D86
:10134000D11D112492EA899FC00DD11D1124CE0117
:1013500088960E94871D612FCE0189960E94871D65
:10136000DF91CF911F910895AF92BF92CF92DF92FC
:10137000FF920F931F93CF93DF93A12CB12C00E02A
:10138000650110E013C0FE01259134914F2D612FAE
:10139000802F0E948D092296F39489E0F812F3CFF2
:1013A00089E0C80ED11C1F5F193039F0E601CC0F5F
:1013B000DD1FCA5DDD4FF12CE6CF0F5F81E5A80E82
:1013C000B11C0330E9F6DF91CF911F910F91FF908F
:1013D000DF90CF90BF90AF900895CF93DF93CEE092
:1013E000D2E060E0CE010E94871D2196C11584E005
:1013F000D807B9F7DF91CF910895882381F064E28F
:1014000084E290E00E94871D68E085E290E00E94FF
:10141000871D66E086E290E00E94871D08956FEFC9
:1014200084E290E00E94871D6FEF85E290E00E94C9
:10143000871D6FEFEFCF80E00E94FD0960E087E23B
:1014400090E00E94871D0E94B4090E94ED0981E08E
:101450000E94FD0908950F931F93CF93DF9383306C
:1014600030F5693020F5493010F5C42FD0E0CC0FAD
:10147000DD1F22E1629FC00DD11D112432EA839F3E
:10148000C00DD11D1124CE0188960E94691D082F20
:1014900010E0102F0027CE0189960E94691D980147
:1014A000282BC901DF91CF911F910F91089580E002
:1014B00090E0F8CF462F672F793038F4493028F480
:1014C000833018F40E942B0A089580E090E008957C
:1014D000A0E0B0E0EEE6FAE00C94291D7C0100915A
:1014E000090280910802082BC2E0D0E010E0C80198
:1014F0000C2E02C0959587950A94E2F780FD09C0ED
:101500002197A8F7D12C8D2DCDB7DEB7E7E00C944D
:10151000451DDC2EB7018C2F0E945A0A0E944804F8
:10152000019771F3F0CF0F931F93CF93FC01858147
:1015300000811181882391F0662381F0C8010E9407
:10154000680AC82F682FC8010E949F02B8018C2F1B
:101550000E945A0ACF911F910F910895C8010E94CD
:10156000D602C82FF3CFCF93DF93D82FC92F0E9475
:10157000680A6D2F7C2F0E945A0A0E944804DF914E
:10158000CF910895FC0184818823A1F0808191810D
:101590000E94B30A282F92959F70963091F060F4C4
:1015A000925F9F70923030F481E0203F79F030F408
:1015B000283E30F080E004C09A5FF3CF243FD1F79B
:1015C000089581E0283E18F0213FF9CF089508954D
:1015D00084E290E00E94691D843289F485E290E003
:1015E0000E94691D883059F486E290E00E94691DCE
:1015F00091E0863009F090E0892F8170089580E0B5
:10160000FCCF8091050290910D02892B409106023A
:10161000442389F090E026E631E0F90150812F5F04
:101620003F4F51119F5F51E02C363507B1F79111B3
:1016300010920602842B8093640148E050E061ED33
:1016400071E084E691E00E94BB1D892BA9F088E03F
:10165000E4E6F1E0A1EDB1E001900D928A95E1F7A9
:10166000E091CF01F091D001309731F00280F38109
:10167000E02D84E691E009950895CF93109205023C
:10168000C6E0E6E6F1E0DF018C2F1D928A95E9F7CE
:1016900080E090E00E94DC0580E090E00E9402067D
:1016A00010920D020E94010BEDEFF1E0DF011D929F
:1016B000CA95E9F71092FB011092FA011092FC0111
:1016C0000E945D06CF9108950E943D0B2FEF84E3A9
:1016D0009CE0215080409040E1F700C0000088E18C
:1016E0009AE00FB6F894A895809360000FBE90938F
:1016F0006000FFCFAAE2B0E0E0E8FBE00C942D1D13
:1017000085E791E0FC0101962091F100208321E022
:101710008D379207B9F780917601893009F456C068
:10172000C8F4823009F4B3C0833009F482C0813038
:1017300071F18091E80083FFE7C08091750190917D
:1017400076019A3008F0E0C0E92FF0E0E452F24E62
:101750000C94111D8A3009F489C08B3051F78091A7
:101760007501813231F78091790190917A01892B4D
:1017700001F78091E800877F8093E8000E94F307DB
:1017800080917701809300010E943D0BD2CF809120
:101790007501813A71F68091E800877F8093E800B7
:1017A0008091790190917A01892B61F060E080E06D
:1017B00090E070E00E949A078091E8008B77809318
:1017C000E800B7CF68E08DE791E0F3CF8091750135
:1017D000813209F0AECF8091790190917A018D7FAD
:1017E000892B09F0A6CF8091E800877F8093E800DD
:1017F0008091E80082FF18C09091F3008091F20080
:10180000029731F48091F100813011F0863021F49B
:101810008091F100809385018091E8008B7780931F
:10182000E8000E94F30785CF8091CC018111E0CFC1
:1018300080CF80917501813A09F07BCF8091790149
:1018400090917A01892B09F074CF8091E800877F0D
:101850008093E8008091E80080FFFCCF8091000138
:101860008093F1008091E8008E77D9CF8091750147
:10187000813209F05ECF8091E800877F8093E80095
:101880000E94F307809178018093710152CF80917B
:101890007501813A09F04DCF8091E800877F8093F0
:1018A000E8008091E80080FFFCCF80917101D8CFE3
:1018B000803889F0823841F5809179018F708730C6
:1018C00018F58093E9008091EB0085FB882780F96B
:1018D0001092E90006C0809172019091A1019111CE
:1018E00082609091E800977F9093E8008093F100E8
:1018F0001092F1008091E8008E7723C0811116C00C
:1019000080917701813011F18091E80083FF0AC056
:101910008091E800877F8093E8008091EB008062EF
:101920008093EB00AA96E3E00C94491D823061F7A6
:1019300080917701882389F01092E9008091E80076
:10194000877F8093E8000E94F307DECF81E0933029
:1019500009F080E08093A101EFCF809179018F7031
:101960002FEF280F263080F68093E9002091EB00BE
:1019700020FFE2CF933031F48091EB0080628093BE
:10198000EB00DACF9091EB0090619093EB0021E0B7
:1019900030E0A90102C0440F551F8A95E2F7409339
:1019A000EA001092EA008091EB008860E8CF811194
:1019B000ABCF109177011F778091E3008078812B66
:1019C0008093E3008091E800877F8093E8000E9485
:1019D000F3078091E80080FFFCCF8091E3008068EE
:1019E0008093E30083E0111101C082E08093CC0179
:1019F0008BCF8058823008F087CF4091770150918B
:101A000078014C3D83E0580799F583E08A838AE2A8
:101A100089834FB7F894DE01139620E03EE051E24F
:101A2000E32FF0E050935700849120FF03C082958C
:101A30008F703F5F8F708A30C8F0895C90E08D9323
:101A40009D932F5F243161F74FBF8091E800877F1E
:101A50008093E8006AE270E0CE0101960E949A0746
:101A60008091E8008B778093E8004ECF805DE6CFD1
:101A70008091790190917A01252F33272330310508
:101A800009F44AC078F52130310509F479C08BE5B5
:101A900090E0EDE8F1E02230310509F035CF2091FA
:101AA000E800277F2093E80020917B0130917C01A2
:101AB0008217930708F49C0140E02115310509F0D5
:101AC00064C0411162C08091E80082FDC9CF80915D
:101AD000CC01882329F2853019F28091E80083FF38
:101AE000F2CFBECF2132310509F43BC0223231059D
:101AF00009F00ACF8330910508F006CFFC01EE0F04
:101B0000FF1FE25FFE4F0190F081E02D855F9E4F49
:101B1000DC018C9190E011C0CA019927413089F015
:101B200082309105B1F0892B09F0EECEE2E2F2E0CD
:101B3000E4918E2F90E0E2E2F2E0009709F4E4CE27
:101B4000AECFE8E0F2E0E4918E2F90E0E8E0F2E042
:101B5000F4CFEAEFF1E0E4918E2F90E0EAEFF1E0CC
:101B6000ECCF8330910508F0CFCEFC01EE0FFF1FC4
:101B7000EC5EFE4F0190F081E02D89E090E08FCF88
:101B800082E190E0E8EEF1E08ACF8091CC018823F9
:101B900009F466CF853009F463CF8091E80083FDB6
:101BA0005FCF8091E80082FD8ECF8091E80080FFBA
:101BB00084CF9091F3008091F2002115310519F046
:101BC0008830910550F041E0089709F040E080919D
:101BD000E8008E778093E80070CF44914093F10045
:101BE0003196215031090196E8CF803809F08CCE2A
:101BF0008091E800877F8093E80080917301809353
:101C0000F10078CE811180CE10917701123008F06A
:101C10007BCE8091E800877F8093E800109373016A
:101C20000E94F3071123D1F084E08093CC0142E0BD
:101C300061EC81E00E94620842E261EC84E00E9473
:101C4000620842E261EC82E00E94620842E260ECDB
:101C500083E00E9462088091CC0156CE8091E3001F
:101C600087FDE2CF81E0E1CFCF93C82F8823A9F091
:101C70008CEF8C0F813A98F4E6E6F1E08191C81779
:101C800009F440C021E0EC36F207C1F76C2F84E67E
:101C900091E00E9428060E94010BCF91089580E2F6
:101CA0008C0F883068F4C77021E030E001C0220F4B
:101CB000CA95EAF780910502822B80930502EBCF4B
:101CC0008BE58C0F833038F42C2F2452330BC90151
:101CD0000E94DC05E2CFE8E5EC0FEB3150F4F0E0D8
:101CE000EE0FFF1FE45DFE4F808191810E9402068E
:101CF000D4CF83E38C0F833180F661E08C2F0E9478
:101D00008506CBCF6C2F84E691E00E9442060E94AC
:101D1000010BBCCF882399F19CEF980F913A40F4C6
:101D2000682F84E691E00E9442060E94010B08950C
:101D300090E2980F983050F4877091E001C0990FAD
:101D40008A95EAF7892F0E944D03EFCF9BE5980F04
:101D5000933028F480E090E00E94DC05089598E537
:101D6000980F9B3128F480E090E00E9402060895CD
:101D700093E3980F933118F460E00E94850608956C
:101D80001F93CF93DF93182FEB010E94340E2097FF
:101D900039F4812F0E948A0EDF91CF911F9108950F
:101DA0008FE99FE00197F1F700C000002197EFCF86
:101DB000882339F090910502892B809305020E94B7
:101DC000010B0895882321F00E944D030E94010B0E
:101DD00008950F931F93CF93DF93C62FD42F122F05
:101DE0008823A9F0609303020E945106909370012A
:101DF00080936F01C77081E001C0880FCA95EAF730
:101E00000E94D80EDF91CF911F910F91089580917C
:101E10000302681336C080916F01909170010E9497
:101E20007607883C910568F5CD130EC060E070E040
:101E3000812F0E94C00ED77081E001C0880FDA9513
:101E4000EAF70E94E20EDECFC77001E0802F01C0EA
:101E5000880FCA95EAF70E94E20E80E28D0F883063
:101E600050F48D2F877001C0000F8A95EAF7802FFC
:101E70000E94D80EDBCF60E070E0812F0E94C00E80
:101E8000C1CFC77081E001C0880FCA95EAF7D9CFEA
:101E9000A8E0B0E0EEE4FFE00C94211D6C01DC0151
:101EA00014968C91882309F4B4C061E0C6010E94A5
:101EB000930A8C01F6018581882309F4FEC49801F8
:101EC00037572038310508F003C5003108F090C0BD
:101ED0008FEF93E00E94691D81118AC04EE0E42ECD
:101EE00042E0F42E011153C01A821982FE0133968A
:101EF00086E0DF011D928A95E9F75701BFEFAB1A23
:101F0000BB0AC7010E94691D89831A82882309F4CC
:101F10006FC0813009F081C087010E5F1F4FC5017E
:101F20000E94691D8A83882309F462C09FEF980F7D
:101F30009330E0F5E3E0EE0EF11CC8010E94691D4C
:101F40008B83882309F454C01C828E010F5F1F4FBE
:101F5000D8012C91222389F2213009F0A1C01196D9
:101F60008C911197813009F05AC05801B2E0AB0E44
:101F7000B11CF801828160E070E0893311F460E502
:101F800070E00E94C00E85010F5F1F4FE1CFE1148A
:101F9000F4E0FF0669F1C7010E94691D97012F5FF8
:101FA0003F4F79018111F3CF01509CCF8430B9F4B8
:101FB00032E0E32EF12CC8010F5F1F4F0E94691D14
:101FC000E1E0F0E0EC0FFD1FEE0DFF1D80838823A4
:101FD00079F08C3731F4FE01EE0DFF1D128278018D
:101FE000B4CFFFEFEF1AFF0A27E0E216F10419F76A
:101FF00080910A028770882361F0D60115968C9132
:10200000882339F080910C0282FF03C082E00E9495
:1020100035032896EFE00C943D1D750196CF823074
:1020200049F45801F2E0AF0EB11C12968C910E9457
:10203000340EA9CF833049F45801B2E0AB0EB11C85
:10204000F80182810E948A0E9ECF843019F00F5FC2
:102050001F4F9ACF12962C910E5F1F4F80E090E099
:102060006AE0A8014F5F5F4F2053330B2A303105E0
:1020700058F0009709F488CFAFE9BFE01197F1F766
:1020800000C000000197F5CF689FF001699FF00D37
:102090001124C9018E0F9F1FF80121818A01E1CF10
:1020A000E22FF0E0E45CFB4F5490E22FE695E695DA
:1020B000E6958E2F90E0FC01E45DFB4FA490277025
:1020C000622EB12C022E02C0B594A7940A94E2F7B6
:1020D000B1E0AB22BB24FC01E45EFB4F8490912C69
:1020E00002C0959487942A95E2F7E1E08E22992424
:1020F000FC01E45FFB4F7490A114B104C1F481149E
:10210000910421F560E070E0852D0E94C00EE72D5E
:10211000F0E0062C02C0F595E7950A94E2F7E0FF9F
:1021200033CF60E070E08CE20E94C00E2DCF81EED4
:102130000E94340E8114910449F460E070E0852D12
:102140000E94C00E81EE0E948A0EE1CF86EE0E94B0
:10215000340E60E070E0852D0E94C00E86EE0E9475
:102160008A0EAB28A1F2EECF26E241EE61EE0E948C
:10217000E90E3ECF27E245EE65EEF9CF26E241EECD
:1021800060EEF5CF27E245EE64EEF1CF26E241EEB8
:1021900062EEEDCF27E245EE66EEE9CF28E241E0C0
:1021A000EBCF0631FCE71F0709F0C7C0809104029E
:1021B00069E2811165E384E691E00E9442062DC147
:1021C00080910B02816080930B0260910B027091F1
:1021D0000C0284E090E00E94A51D0E943D0B08CFF8
:1021E00080910C02886080930C02EFCF80910B02EB
:1021F0008260E9CF80910B028460E5CF80910B0271
:102200008860E1CF80910C028160EDCF80910C025B
:102210008260E9CF80910B028061D5CF80910B0263
:102220008062D1CF80910B028064CDCF0E943D0BA4
:1022300080910B028068C7CF80910B028C60C3CF66
:1022400080910C028360CFCF80910B028E7FBBCF39
:1022500080910C02877FC7CF80910B028D7FB3CF17
:1022600080910B028B7FAFCF80910B02877FABCF2A
:1022700080910C028E7FB7CF80910C028D7FB3CFFF
:1022800080910B028F7E9FCF80910B028F7D9BCF21
:1022900080910B028F7B97CF0E943D0B80910B02A8
:1022A0008F7791CF80910B02837F8DCF80910C022D
:1022B0008C7F99CF80910B0282FB992790F921E0C6
:1022C000922790FB82F990FB83F97DCF80910C02DD
:1022D000982F909591708E7F892B90FB81F983CFF9
:1022E00090910B02892F8F7B96FF80646CCF0E94A8
:1022F0003D0B90910B02892F97FB87F9805863CF94
:1023000061E08EE090E00E94871D5FCF60E0F9CF32
:1023100090910B02892F8F7E94FF806154CF909112
:102320000B02892F8E7F90FF81604DCF90910C0220
:10233000892F877F93FF886056CF07372CE71207D6
:1023400009F49FC082E008373CE7130709F49AC0FC
:10235000F6018581E080F180882309F4B4C0C701CB
:102360000E94680A182F682FC7010E949F02B701B8
:10237000812F0E945A0A0E9448048C01D6011596AA
:10238000BC9015971696AC90A2942FE0A222809153
:102390000A028770882301F1FB2CBB20F1F0812F0A
:1023A000807F803461F080E2800F8830A8F0812F38
:1023B000807E803221F4023078F0AA2069F080918A
:1023C0000C0282FF09C082E00E94350380910A025C
:1023D0008770FF24F3948111F12CE12FE295EF70C7
:1023E000103C08F0DBC0F0E0EA51F24E0C94111DF5
:1023F00006318CE71807A1F4809105028A7A91E0F2
:10240000811101C090E09093040265E3811101C045
:1024100069E284E691E00E9428060E94010BE8CD63
:1024200007379CE7190721F182E00837ACE71A0764
:1024300001F10A35BCE71B0709F441C030F5013052
:10244000FCE71F07D1F103302CE7120781F10115DA
:102450001C4709F07DCF0E943D0BAFEFB4E3ECE0E9
:10246000A150B040E040E1F700C000000E948507A5
:1024700081E00E94830243E062E081E00E940A035F
:10248000B7CD81E00E948F02F6CF0B358CE718079D
:10249000C1F00C351C4709F05BCF80910C0282FB28
:1024A000882780F991E089270E94760951CF6FEF44
:1024B0007FEF80E090E00E94A51D0E94640B81E008
:1024C000F3CF80E0F1CFC7010E94D602182F4FCF83
:1024D000B12FBF70EB2E103118F0E29490EFE9228B
:1024E000BB20B9F0EE2069F080E2800F883010F058
:1024F000011109C0809105028E29809305020E9476
:10250000010B802F43C080910D028E2980930D0214
:10251000F6CF802F0E948A0EEE2009F43FC080E2A1
:10252000800F883010F0011104C08E2D0E944D03E1
:1025300006C0E09480910D028E2180930D020E94CE
:10254000010B2CC0E12FEF70EE2E107F103219F02E
:10255000E29480EFE822002349F0013009F46CC0D6
:10256000BB2009F478C0AA20D1F1CBCF80910C0216
:1025700082FD31C0BB2069F0EE2039F08091050268
:102580008E29809305020E94010B80E00E94340E88
:1025900005C080E00E948A0EE110C7CFFF20B1F095
:1025A00080910A0280FD12C0D60115961C92869574
:1025B000869586950E948302C6010E94480F8091ED
:1025C0000A028695869586950E948F0260E0C60174
:1025D0000E94930A1ECDBB2099F0A11004C08E2D3D
:1025E0000E94D80EDBCFF1E0AF12D8CF9091060257
:1025F0008E2D8923E81691F29E2990930602CECF64
:10260000A110CCCF8E2D0E94E20E909106028E2D4D
:102610008923882329F08E2D8095892380930602B3
:10262000809107029E2D9823992309F4B7CFE09457
:10263000E822E0920702B2CFBB2029F025E02A155C
:1026400008F4ACCFCCCF34E03A1508F4A7CF8E2DE8
:102650000E94E20EA3CFAA20D1F3093349F48FEFF1
:1026600097EEA3E081509040A040E1F700C0000049
:10267000802F0E948A0E92CF812F86958695837037
:10268000882361F0813009F089CFC8019370B110BF
:1026900002C080E090E00E94020680CFC8019370E3
:1026A000B11002C080E090E00E94DC0577CF6B2D76
:1026B000802F0E94850672CF812F8370811136C0D2
:1026C000B11029C0402F429546954770440F440FE2
:1026D000202F2F70042E01C0220F0A94EAF70071F8
:1026E000002341F08FE090E001C0880F4A95EAF79F
:1026F000082F0095169516951370123091F0802FC3
:10270000822B133031F080910802113039F0202BE8
:1027100082230E947D020E94CF0540CF822B802B16
:10272000F8CF202B809108028227F3CFBB2061F1E4
:1027300010FFF1CF402F429546954770440F440F4C
:10274000202F2F70042E01C0220F0A94EAF7007187
:10275000002341F08FE090E001C0880F4A95EAF72E
:10276000082F0095169516951370123099F0802F4A
:10277000822B133031F080910902113041F0202B6F
:1027800082230E948002C7CF823028F2D3CF822BCF
:10279000802BF7CF202B809109028227F2CF1F7068
:1027A000BB2039F0812F0E948302802F0E94D80E17
:1027B000B2CF802F0E94E20E812F0E948F02ABCFFA
:1027C000023F81F178F4003FC1F0013F09F441C0BC
:1027D000BB2009F460C0AA2009F45AC0802F0E94CF
:1027E000340E99CF033F29F1043F79F1B110F3CFB3
:1027F000A1105FC0812F8F71E0CFBB2081F0B4E0CA
:10280000BA1508F488CF1F7181E090E0012E01C055
:10281000880F0A94EAF7909109028927B2CFE5E080
:10282000AE16EFCF812F8F71B110C7CF0E948302F8
:1028300072CF80E0BB2009F4A4CF1F7181E0012E8C
:1028400001C0880F0A94EAF79CCF90910C0292FD88
:1028500006C0812F8F71BB2009F4AFCFE7CFBB201B
:1028600061F0812F8F7192FFE1CFF8E08F9F90018F
:102870001124236020930A02D9CF81E00E943503FE
:1028800021E02A1508F047CF82E00E94350343CFAC
:10289000812F8F71CBCFAA2009F4ACCF093349F433
:1028A0003FEF87EE93E0315080409040E1F700C069
:1028B0000000802F0E948A0E2ECFF801E851FC47BD
:1028C000E730F10508F06DCCEE50F24E0C94111D7E
:1028D000F801E851FC47E730F105B0F3109203022C
:1028E000C8019057839708F083CD84E090E00E9460
:1028F000711D90930C0280930B02F801E150F04798
:10290000E232F10508F05CCCE750F24E0C94111D58
:1029100080914E02803178F480914D02882359F0E5
:10292000E0910F0220910E0230914902409148023D
:1029300057E02E1301C008956E2F70E05E9FF001E6
:102940001124DF01A05FBD4F14968C91149788234A
:1029500061F111968C911197831327C08C91841388
:1029600024C015968C91159781111FC012968D91D8
:102970009C91A0914A02B0914B028A1B9B0B883C10
:10298000910598F480914E028F70806180934E0281
:10299000EA5EFD4F80818F708061808388E492E0E1
:1029A0000E94480F0E942B030895FB013196E770A7
:1029B000C0CFADE0B0E0EFEDF4E10C94221D8C014E
:1029C00086E0F801DE01189601900D928A95E1F7F4
:1029D000F8017080F580A280B380848198E4892E0C
:1029E00092E0992E60904C02611018C0882399F0F3
:1029F000FF2009F413C1C8010E94C20A882309F408
:102A00000DC187E0F801A8E4B2E001900D928A952B
:102A1000E1F70E948814FF24F39453C0D0904D0234
:102A200020914A0230914B02A501421B530BDD203D
:102A300009F4C4C0483C510508F07AC0882359F312
:102A400080914902C180E0904E02FFE0FE1508F43B
:102A500059C0C81215C080914802871111C0F110E9
:102A60004BC08E2D8F70806180934E0288E492E07F
:102A70000E94480F80914E02F8018683F12C21C0FC
:102A8000F1103AC040E06C2D872D0E94F40840E020
:102A90006C2D872D0E94F408F82E8111EFCF8885C8
:102AA00099850E94B30A292F22952F70903470F4D3
:102AB0009F702230A0F09923B1F0F80196819031F7
:102AC00090F48F2D2D96EEE00C943E1D2A5F2F7012
:102AD000223068F0C8010E94480FFD2CF2CF9923E4
:102AE00011F0882371F3805E883058F3F3CF803F74
:102AF00040F3815F8230F9CF80914E0281608093F4
:102B00004E02BCCFC8123CC080914802871138C029
:102B1000F11036C0F801E682C8010E94480F87E034
:102B2000F801A8E4B2E001900D928A95E1F773CF25
:102B3000E0904E02FFE0FE1550F088E492E00E9423
:102B4000480F87E0F40111928A95E9F797CF88231F
:102B500009F461CF90914902F8018181981310C066
:102B60008091480287110CC0F1100AC0E682C801AA
:102B70000E94480F87E0F40111928A95E9F74BCF44
:102B8000C8010E94C20A882309F448C0FF2009F442
:102B900045C080914E02803208F433CF80914802C4
:102BA000909149029A838983BC82AB826D821E8296
:102BB000EF82CE0101960E94480F23CF483C510579
:102BC00008F0BFCF882309F426CFFF2039F1909178
:102BD00049028181981318C080914802871114C05E
:102BE00080914E0280FD9BCF803108F498CF868380
:102BF000807F803F09F490CF8681982F907F905FEF
:102C00008F70892B868388CFC8010E94C20A8111E8
:102C1000F8CE80914E02816080934E02C8010E94DE
:102C2000480FF9CEABE1B0E0E8E1F6E10C942D1DE0
:102C30004E8B5F8B688F798F8A8F9B8F911110924B
:102C40000D021D8A86E0FE017696DE011F96019038
:102C50000D928A95E1F78B89882329F061E0CE01F6
:102C60000F960E94930A87E0FE013F96DE011896B8
:102C700001900D928A95E1F7CE0108960E94D91431
:102C800081112BC087E0FE013896DE01119601907C
:102C90000D928A95E1F720910E0240910F028C85EA
:102CA0008823D9F030E0C90101968770992750E058
:102CB00084179507E9F097E0929FD001939FB00D9C
:102CC0001124A05FBD4FFE01319601900D929A959F
:102CD000E1F780930E020E942B0317E080910F0210
:102CE00090910E02891312C06B96E3E00C94491D7B
:102CF0000E943D0B10920E0210920F0287E0E8E452
:102D0000F2E0DF011D928A95E9F7E7CF189FC00135
:102D10001124805F9D4F0E94D914882329F380914C
:102D20000F0290E001968770992780930F02D6CF0B
:102D3000A6E0B0E0EEE9F6E10C942C1D0E945106ED
:102D40008C018091CD019091CE018017910779F08F
:102D500019821A820E945106BC0149815A8180E081
:102D600090E00E9412161093CE010093CD0126969A
:102D7000E4E00C94481DA2E1B0E0E1ECF6E10C9433
:102D8000221DFE01319682E1DF011D928A95E9F74D
:102D90009AE1A92E91E0B92E8F0123E2E22E21E0E3
:102DA000F22E3F01CC24C394D12CF50181915F0117
:102DB0008F3F09F447C0F894E82FE295EF70F0E0F8
:102DC00021A18F70A60102C0440F551F8A95E2F71A
:102DD000CA01922F982B91A392A18095892382A357
:102DE000789400C0E3E2F1E021E030E0812C912C06
:102DF00041914F3F09F44AC0A42FA295AF70A05E45
:102E0000B0E08C9190E04F7002C0959587954A95FF
:102E1000E2F7817081113AC0C901882A992A220FEC
:102E2000331F51E0EC32F50719F7F5013197808136
:102E30008F3F11F00E94630580EA8A95F1F7D8016F
:102E40008D929C920E5F1F4FEA14FB0409F0ADCFE8
:102E500042E150E0B3018EE891E00E94BB1D892B56
:102E6000C1F082E1F301AEE8B1E001900D928A95E4
:102E7000E1F781E080936E010E94510690936D010D
:102E800080936C016296EEE00C943E1D80E090E031
:102E9000C4CF80916E018823A9F380916C01909139
:102EA0006D010E947607059768F342E150E06EE8F5
:102EB00071E08AEB91E00E94BB1D892B49F082E111
:102EC000EEE8F1E0AAEBB1E001900D928A95E1F70E
:102ED00010926E01D7CFCDB7DEB7A4970FB6F89496
:102EE000DEBF0FBECDBF85B7806885BF85B7806860
:102EF00085BF84B7877F84BF0FB6F894A89580916B
:102F00006000886180936000109260000FBE80E8CE
:102F100090E00FB6F89480936100909361000FBE2B
:102F200081E695E090936301809362010E944308DB
:102F30000E9499088091E20084608093E200789476
:102F40008091CC01882399F08091E9001091EC00E8
:102F50001795112717958F70182B1092E900809103
:102F6000E80083FD0E947A0B1F701093E90082E055
:102F700084BD93E095BD9AEF97BD80936E000E944B
:102F8000E80A811102C00E941B0A0AE111E0D8017F
:102F90008D918D018F3F11F00E946305B1E00332E6
:102FA0001B07A9F703E211E0ACE2EA2EA1E0FA2E3A
:102FB000F80181918F018F3F11F00E946305E016A7
:102FC000F106B1F782E1EAEBF1E0DF01282F1D9273
:102FD0002A95E9F7EEE8F1E0DF011D928A95E9F71D
:102FE00080E090E00E94711D853E9E4F21F40E947A
:102FF000E80A811163C065EE7EEF80E090E00E94F8
:10300000A51D60E082E090E00E94871D81E0809332
:10301000080261E083E090E00E94871D60E074E1B7
:1030200084E090E00E94A51D60E086E090E00E94B0
:10303000871D60E087E090E00E94871D40E050E03F
:10304000BA0188E090E00E94991D60E083E290E080
:103050000E94871D60E08CE090E00E94871D60E088
:103060008DE090E00E94871D19821A821B821C82CB
:103070001D821E821F82188648E050E067E170E0E2
:10308000CE0101960E94771D40E050E0BA018FE129
:1030900090E00E94991D80E00E94FD090E941B0A99
:1030A00040E050E0BA018FE090E00E94991D40E0BE
:1030B00050E0BA0183E190E00E94991D82E090E027
:1030C0000E94691D8093A20184E090E00E94711D1E
:1030D00090930C0280930B020E94BB16EFEFF6E771
:1030E00021E0E150F0402040E1F700C000000E94E4
:1030F000BB168091BA0180FF08C06FEF7FEF80E0C0
:1031000090E00E94A51D0E94850783E090E00E9448
:10311000691D0E947D0281E091E09093D00180932F
:10312000CF01E8E14E2E512CFCEC6F2EF1E07F2E0A
:103130008091CC01853049F48091CC01853009F42F
:103140005BC00E943D0B0E94CF050E94BB1663EA44
:10315000A62E61E0B62E7AEB872E71E0972ED40171
:10316000F501219131918D919D9141E0E53BF4076D
:1031700009F491C028173907A1F3312CD4010D911E
:103180001D914D01F501C190D1905F01C016D1068E
:1031900061F1C026D126212CEE24E394F12CC70145
:1031A0008C219D21892BB9F029823A820E945106F7
:1031B0009C838B83F1E0FD8391E0970120233123F1
:1031C000232B09F490E09E8349815A816B817C8195
:1031D0008D810E9412162394EE0CFF1C29E022120E
:1031E000DECFF501329711830083339449E0341226
:1031F000C5CF0E94590755C08091CC01843011F190
:103200001092A00140E40FB6F894A8954092600097
:103210000FBE4093600083B7817F846083BF83B714
:10322000816083BF7894889583B78E7F83BF0FB604
:10323000F894A89580916000886180936000109256
:1032400060000FBE8091A101882309F475CF0E9410
:10325000BB16EAEBF1E081919191892B21F46E1676
:103260007F06C9F769CF80E189BD82E189BD09B4D4
:1032700000FEFDCF8091D8008F7D8093D800809193
:10328000E00082608093E0008091E00081FDFCCF4F
:103290000E943D0B51CF2817390709F06ECF0E94CD
:1032A000981686E0EDEFF1E0DE01119601900D92A7
:1032B0008A95E1F7F090FE010091FF011091000264
:1032C000D0900102E09002021092FF0110920002E1
:1032D0001092010210920202812F802B882379F034
:1032E0008091B7019091B8010E9476079C0180916E
:1032F000FB0181115CC02B30310508F05EC08D2DC3
:103300008E29882379F08091B5019091B6010E94B1
:1033100076079C018091FA01811187C02B3031051D
:1033200008F089C08091FE01F81216C08091FF015B
:10333000882311F0801310C090910002992311F09E
:1033400091130AC020910202211106C020910102AE
:10335000211102C0892B81110E945D0686E0FE01C9
:103360003196ADEFB1E001900D928A95E1F70E94A0
:10337000CF059091B901891721F08093B9010E947E
:1033800059078091CC01843009F0D2CE83E080933C
:10339000E9008091E80082FFCBCE8091E80085FDB6
:1033A00084C08091E8008B778093E800C1CE2531FE
:1033B000310508F4A4CF8F3F19F08F5F8093FB0194
:1033C000002359F00E948A059FEF10160CF491E03B
:1033D000899F802D11248093FF01112359F00E94B1
:1033E0008A0591E011160CF09FEF899F802D112422
:1033F000809300028091FF01882309F480CFC09060
:103400000002CC2009F47BCF0E947C05811101C011
:1034100081E08093FF018C2D0E947C05882319F0A8
:10342000809300026CCF81E0FBCF2135310508F499
:1034300079CF8F3F19F08F5F8093FA01DD2059F02B
:103440000E94AA059FEF1D140CF491E0899F802D26
:10345000112480930102EE2059F00E94AA0591E008
:103460001E140CF09FEF899F802D1124809302027F
:1034700080910102882309F455CFE0900202EE20EA
:1034800009F450CF0E947C05811101C081E0809336
:1034900001028E2D0E947C05882319F08093020280
:1034A00041CF91E0909302023DCF0E94120830E29A
:1034B000E32EF12C8E010F5F1F4F8823D1F08091F6
:1034C000E8008B778093E800E981E150E33158F51B
:1034D000F0E0E55EF14E0C94111D8091F100D801F1
:1034E0008C93B1E0EB1AF108E114F10441F30F5FA2
:1034F0001F4F8091E80085FDF0CF8091E8008B7729
:103500008093E8000E941208882399F3D8CF1A828A
:103510008CE08B831AC08A81833049F138F4813082
:1035200061F08230D9F08FEF89830FC08430D9F7F2
:103530001B821C821D821E8208C00E9459070E94A5
:10354000171D6B837C838D839E8340E250E0BE0118
:103550006F5F7F4F82E00E941309EACD87E290E01F
:103560000E94691D1B821C821D828E83EECF8B817F
:1035700090E0DE01119612968930910534F7FC0136
:10358000FF27EE0FFF1FE654FE4F20813181119679
:103590003C93119712962C9312970196ECCF8A8147
:1035A000823019F0853089F2BECF8B819C81AD814C
:1035B000BE8189A39AA3ABA3BCA3BC01CD010E9489
:1035C000171D87E290E00E94871DBFCF4C816B8161
:1035D0008A810E942B0A9827892798279E838D83AA
:1035E000B4CF2D813E813227232732274C816B8136
:1035F0008A810E948D09A9CF0E94B409A6CF80E1DB
:103600008A83A3CF81E08A8382EF83CFCA80DB8065
:10361000DC24CD24DC248C817601E80EF11C8E01A3
:103620000B5F1F4FCE14DF0409F48FCF80E092EFC1
:10363000C91691E0D90628F4C601825F9D4F0E9409
:10364000691DD8018D938D01BFEFCB1ADB0AEACF3C
:103650000A811B81102701271027FE0131966F0177
:103660008C817F01E80EF11CEC14FD0409F46DCF90
:10367000023FF1E01F0740F4D60114966C91C80197
:10368000825F9D4F0E94871D0F5F1F4FBFEFCB1AB8
:10369000DB0AEACF0E94ED0958CF83E0B1CFCA80A0
:1036A000DB80DC24CD24DC248C817601E80EF11C47
:1036B0008E010B5F1F4FEC14FD0409F446CF80E030
:1036C000E6EECE16E1E0DE0620F4C60188960E9402
:1036D000691DD8018D938D01BFEFCB1ADB0AEBCFAB
:1036E0000A811B81102701271027FE0131966F01E7
:1036F0008C817F01E80EF11CCE14DF0409F425CF84
:10370000063EF1E01F0738F4D60114966C91C8010B
:1037100088960E94871D0F5F1F4FBFEFCB1ADB0AF1
:10372000EBCF1F921FB61F9211248F939F93AF93DD
:10373000BF938091A001811113C080918601909167
:103740008701A0918801B09189014196A11DB11D09
:103750008093860190938701A0938801B09389019B
:10376000BF91AF919F918F911F901FBE1F90189591
:1037700078941F921FB61F9211248F939F93AF933B
:10378000BF938091860190918701A0918801B091AB
:1037900089010196A11DB11D809386019093870137
:1037A000A0938801B0938901BF91AF919F918F91B0
:1037B0001F901FBE1F9018951F920F920FB60F9269
:1037C00011242F933F934F935F936F937F938F9326
:1037D0009F93AF93BF93EF93FF938091E10082FF9C
:1037E00009C08091E20082FF05C08091E1008B7FDB
:1037F0008093E1008091DA0080FF24C08091D8009E
:1038000080FF20C08091DA008E7F8093DA00809163
:10381000D90080FF9BC080E189BD82E189BD09B4E8
:1038200000FEFDCF81E08093CC0180917401811175
:1038300009C00E9443080E9499088091E2008460B8
:103840008093E2008091E10080FF17C08091E20048
:1038500080FF13C08091E2008E7F8093E200809110
:10386000E20080618093E2008091D80080628093C2
:10387000D80019BC85E08093CC018091E10084FFE1
:1038800029C08091E20084FF25C080E189BD82E1EA
:1038900089BD09B400FEFDCF8091D8008F7D809353
:1038A000D8008091E1008F7E8093E1008091E2005A
:1038B0008F7E8093E2008091E20081608093E2003D
:1038C00080917301882309F447C084E08093CC0180
:1038D0008091CC018091E10083FF27C08091E200BC
:1038E00083FF23C08091E100877F8093E10082E025
:1038F0008093CC01109273018091E1008E7F8093C0
:10390000E1008091E2008E7F8093E2008091E200EE
:1039100080618093E20042E060E080E00E94620803
:103920008091F00088608093F000FF91EF91BF914B
:10393000AF919F918F917F916F915F914F913F9147
:103940002F910F900FBE0F901F90189519BC1092D9
:10395000CC011092740176CF8091E30087FF02C002
:1039600083E0B4CF81E0B2CF1F920F920FB60F92D7
:103970001124FF920F931F932F933F934F935F93C5
:103980006F937F938F939F93AF93BF93CF93DF9367
:10399000EF93FF9309EE10E0F8018081C091EC00F5
:1039A000C795CC27C7958F70FC2EF82A1082C0EFE0
:1039B000D0E08881877F888378940E947A0BF80111
:1039C0001082888188608883CF2DCF70C083FF915B
:1039D000EF91DF91CF91BF91AF919F918F917F91A7
:1039E0006F915F914F913F912F911F910F91FF9098
:1039F0000F900FBE0F901F90189597FB072E16F48F
:103A0000009407D077FD09D00E94551D07FC05D012
:103A10003EF4909581959F4F0895709561957F4FE5
:103A20000895EE0FFF1F0590F491E02D099469278A
:103A30009627692778278727782708952F923F921E
:103A40004F925F926F927F928F929F92AF92BF92AE
:103A5000CF92DF92EF92FF920F931F93CF93DF935A
:103A6000CDB7DEB7CA1BDB0B0FB6F894DEBF0FBEB7
:103A7000CDBF09942A88398848885F846E847D8404
:103A80008C849B84AA84B984C884DF80EE80FD8006
:103A90000C811B81AA81B981CE0FD11D0FB6F8947C
:103AA000DEBF0FBECDBFED010895AA1BBB1B51E1C8
:103AB00007C0AA1FBB1FA617B70710F0A61BB70B9E
:103AC000881F991F5A95A9F780959095BC01CD0143
:103AD0000895F999FECF92BD81BDF89A992780B5D6
:103AE0000895A8E1B0E042E050E00C94AD1DDC0187
:103AF000A40FB51F4150504048F0CB01840F951FD3
:103B00002E910E94881D41505040D0F70895262FD5
:103B1000F999FECF92BD81BDF89A019700B40216C3
:103B200039F01FBA20BD0FB6F894FA9AF99A0FBE71
:103B300008950396272F0E94881D0E94871D252F18
:103B40000E94881D242F0C94881D0196272F0E9407
:103B5000881D0C94871DDC01CB01FC01F999FECF77
:103B600006C0F2BDE1BDF89A319600B40D92415005
:103B70005040B8F70895FB01DC0104C08D9101901D
:103B8000801921F441505040C8F7881B990B0895C3
:103B9000F894FFCFAE06B106B706CC06CC06CC062D
:103BA000CC06CC06CC06CC06CC06BA06BF06C306AD
:103BB000C906DA06E006E406580C7E0C840C7E0C7E
:103BC000840CD70CF90C840CF50D020E68126812E7
:103BD000A212A2123C135713CE12CE125C13CF13B3
:103BE000E013E013BE10C210B410BA10C610CA1011
:103BF000CE1024118F112C11F610FA103011FE1076
:103C0000341140110A1188110E114411121148117A
:103C1000701116114C1177111C1152115A11021109
:103C2000381106113C1120115611661180118611B0
:103C3000F01028119611871A8B1ACF1AE61AF11A6A
:103C4000FC1A931A931A931A931A931AFF1A021BC7
:0C3C5000061B281B4A1B4D1B4F1B701B42
:103C5C000196075109990768096F0944227B4901AC
:103C6C002701AC009F01B801D80192F4F5F6F731A9
:103C7C00333236939190946697C63435E200E9005E
:103C8C00EA00B500B600B700CD008301CC008A0174
:103C9C00920194012102230224022502260227020A
:103CAC002A02B300B4006F0070009F01CB019F0289
:023CBC00A00264
:00000001FF
