:100000000C94BE020C94DB020C9409230C94DB02CA
:100010000C94DB020C94DB020C94DB020C94DB02EC
:100020000C94DB020C94DB020C9445210C941D22F1
:100030000C94FA200C94DB020C94DB020C94DB028F
:100040000C94DB020C94DB020C94DB020C94DB02BC
:100050000C94DB020C9421210C94DB020C94DB0247
:100060000C94DB020C94DB020C94DB020C94DB029C
:100070000C94DB020C94DB020C94DB020C94DB028C
:100080000C94DB020C94DB020C94DB020C94DB027C
:100090000C94DB020C94DB020C94DB020C94DB026C
:1000A0000C94DB020C94DB020C94DB0205010902C8
:1000B000A10185020901A1000509190129081500FE
:1000C0002501950875018102050109300931158165
:1000D000257F95027508810609381581257F9501D0
:1000E00075088106050C0A38021581257F95017572
:1000F000088106C0C005010980A101850319012AF4
:10010000B700150126B700950175108100C0050CD8
:100110000901A101850419012AA002150126A002E6
:10012000950175108100C00660FF0961A101096297
:10013000150026FF00952075088102096315002629
:10014000FF00952075089102C005010906A101056F
:100150000719E029E7150025019508750181029529
:1001600001750881010507190029FF150026FF0008
:100170009506750881000508190129051500250156
:10018000950575019102950175039101C009025B06
:1001900000030100A0FA09040000010301010009A5
:1001A0002111010001224400070581030800010913
:1001B00004010002030000000921110100012222B4
:1001C0000007058203200001070503032000010941
:1001D0000402000103000000092111010001227B3B
:1001E000000705840320000112010002000000083E
:1001F0004441030000010102000112036500610097
:1002000072007400680039003500730000001803A4
:1002100061006C0065006B0074006F0072005F008D
:1002200064006900790000000403090429003A0011
:100230003B003C003D003E003F0000000000350058
:100240001E001F00200021002200230000000000EB
:100250002B0014001A000800150017001C000000F5
:100260000000390004001600070009000A000B0016
:1002700000000000E1001D001B0006001900050041
:10028000110000000000E000E300E2008B004C00E1
:100290002C002800000000003E003F00400041000C
:1002A0004200430044004500A8002200230024002F
:1002B0002500260027002D002E00890017001C00B5
:1002C00018000C00120013002F0030002A000A0052
:1002D0000B000D000E000F00330034003200280028
:1002E000050011001000360037003800870052006A
:1002F000215228002C002A008A008800500051005A
:100300004F0000000100A900AA00A8000100AC00F5
:10031000AE0000000000010001000100010001002A
:1003200001000100000000000100010001000100C7
:1003300001000100010000000000010001000100B7
:1003400001000100010001000000000001000100A7
:100350000100010001000100010000000000010097
:100360000100010001000100010001000000000087
:10037000AC00AE00AD00AB00010001000100A60022
:100380000100010001000100010001000100010065
:100390000100010001000100010001000100010055
:1003A0000100010001000100010001000100010045
:1003B0000100010001000100010001000100010035
:1003C0000100010001000100010001000100010025
:1003D0000100010001000100010000000100010016
:1003E0000100010001000100010000000000010007
:1003F00001000100010001000100010000000000F7
:1004000001000100010001000100010001000000E5
:1004100000000100010001000100010001000100D5
:1004200000000000010001000100010001000100C6
:1004300001000000000001000100010001000100B6
:1004400001000100000000000100010001000100A6
:100450000100010001000100010001000100010094
:100460000100010001000100010001000100010084
:100470000100010001000100010001000100010074
:100480000100010001000100010001000100010064
:100490000100010001000100010001000100010054
:1004A0000100010001000100010001000100010044
:1004B00001000000A900AA00000000004B004E004F
:1004C000000000004F00500000000000000000008D
:1004D000000000000000000000000000000000001C
:1004E000000000000000000000000000000000000C
:1004F0007E0F00D4FFFFFFC700000078000000005F
:10050000000000002A2B280000000000000000006E
:100510000000000000000029000000002C1E342014
:10052000212224342627252E362D3738271E1F203A
:100530002122232425263333362E37381F0405067F
:100540000708090A0B0C0D0E0F10111213141516C3
:100550001718191A1B1C1D2F3130232D35040506C1
:100560000708090A0B0C0D0E0F10111213141516A3
:100570001718191A1B1C1D2F3130354C11241FBEA2
:10058000CFEFDAE0DEBFCDBF11E0A0E0B1E0E0ECFC
:10059000FAE402C005900D92A23AB107D9F722E021
:1005A000A2EAB1E001C01D92AF3FB207E1F70E949D
:1005B000DE1B0C94F8240C9400008093B80208957C
:1005C0008093B902089521E030E001C0220F8A959E
:1005D000EAF78091B902822B0E94E002089521E09F
:1005E00030E0A90102C0440F551F8A95E2F7CA0105
:1005F00080959091B90289230E94E00208959B01A1
:10060000677091E001C0990F6A95EAF763E036954B
:1006100027956A95E1F7B901660F771F260F371FF7
:10062000FA01E20FF31F40E050E0682F70E0819183
:10063000DF0111979B01042E02C0369527950A947D
:10064000E2F7217021952827292328272C934F5F33
:100650005F4F4330510559F708959C01A82FA770AB
:1006600083E0369527958A95E1F7C901880F991F90
:10067000820F931FFB01E80FF91F40E050E080E07C
:10068000219130E00A2E02C0369527950A94E2F7B0
:1006900021703327042E01C0220F0A94EAF7822B1F
:1006A0004F5F5F4F4330510559F70895282F862F2C
:1006B0009C3070F4293058F4622F70E029E0929F4A
:1006C000600D711D112440E852E00E94FF02089560
:1006D0009C5F9230E0F7622F70E04DE752E0F5CF7B
:1006E000292F9C3068F4893090F490E060E872E043
:1006F00039E0239F800D911D11240E942D03089540
:100700002C5F223020F46DE772E090E0F6CF80E0BD
:1007100008959091B90221E030E0F90101C0EE0F97
:100720008A95EAF7D90102C0AA0FBB1F6A95E2F7C2
:10073000EA2B01C0220F4A95EAF7892F8E23E8138E
:1007400005C0892F822B0E94E00208952095822FF8
:100750008923F9CF8091BF029091BE02981301C006
:1007600008958F5F8770FACF9091BA0280958923A0
:100770008093BA02282F277021110DC0891759F0D4
:100780009091BC0292FF07C08695869586950E943F
:10079000EF021092BA020895982F90958091B502B9
:1007A00089238093B5020895803E9105D1F1C8F464
:1007B0008133910509F47FC048F48932910509F429
:1007C0006FC08A32910509F47DC00895893391057F
:1007D000E1F082389105C9F08533910509F45BC0D9
:1007E0000895843E9105D1F148F4823E910531F19E
:1007F000833E910541F181EE90E00895863E91059A
:10080000C1F1873E9105E1F108952091BB0223706B
:10081000211165C02091BC0223FF14C089E290E041
:1008200008952091BB0220FD43C03091BC0230FFEF
:1008300009C024FF4EC080E090E008952091BB02E3
:1008400022FDF7CF08952091BB0222FD45C03091D3
:10085000BC0230FD44C024FFF5CFEDCF2091BC0297
:1008600021FFF0CF8091BB0284FDE5CF87EE90E0C1
:1008700008952091BB0223FFE5CF24FDDCCFF6CF06
:100880002091BB0223FD2EC03091BC0231FFE3CF8B
:1008900084EE90E008952091BB0225FFD3CFBECF18
:1008A0002091BB0225FD21C02091BC0223FFCACFAD
:1008B00089E390E008952091BB0226FFC3CF8AE22E
:1008C00090E008952091BB0226FFBCCF81E390E029
:1008D000089583EE90E0089582EE90E0089580EE12
:1008E00090E0089586EE90E0089585E390E0AACF29
:1008F0009091BB0292FF10C041E0282F2471243058
:1009000009F040E031E0282F2871283009F030E06C
:10091000431711F02CE0822793FF10C041E0282FED
:100920002471243109F040E031E0282F287128316A
:1009300009F030E0431711F02CE082273091BC021F
:1009400030FF10C051E0282F2171213009F050E014
:1009500041E0282F2871283009F040E0541711F0A9
:1009600029E0822731FF10C041E0282F2171213179
:1009700009F040E031E0282F2871283109F030E0FB
:10098000431711F029E0822794FD877E08951F9375
:10099000CF93DF930E94D403EC01811522E59207E7
:1009A00008F053C0811540E5940708F0DDC0803E93
:1009B0009105F8F48D3C910508F0AEC0883A910598
:1009C00080F4853A910508F099C08130910521F0B5
:1009D0000497813A910550F4CE01DF91CF911F9198
:1009E0000895885A91094B9708F48BC0C0E0D0E075
:1009F000F3CF811550E49507F8F4C11580E2D807CC
:100A000008F0CBC0C83ED10538F3CE019A958115C8
:100A10009F4160F78D2F0E947804182FCE019927EF
:100A20000E94D403212F30E0322F2227E901CC2766
:100A3000DF71C82BD92BD0CF99270E94D403CC27A4
:100A4000DF70C82BD92BD06AC7CF803842E5940716
:100A5000C8F5803652E5950708F067C0C03482E5D6
:100A6000D807B0F08C2F86958695877020E2829FFC
:100A7000C0011124C37021E030E0A90102C0440F7D
:100A8000551FCA95E2F7EA01C82BD92BDC68A4CF21
:100A9000C03252E5D50708F041C08C2F8695869567
:100AA00020E2829FC0011124C37021E030E0A9013F
:100AB00002C0440F551FCA95E2F7EA01C82BD92B93
:100AC000DD688ACF803C52E5950760F48F71C03AAB
:100AD000D24508F03FC090E0982F8827EC01C46F02
:100AE000D06A7ACF805C9245809708F07FCFDC2F68
:100AF000CC27CC27DF71C06FD06A6ECFA497D064AB
:100B00006BCFC85AD0E0CC0FDD1FC459DE4F09901F
:100B1000D881C02DD46460CFD0655ECFCF71D0E0D6
:100B2000DC2FCC27C16FD06A57CF8695869587700A
:100B300020E2829FC0011124C37021E030E0A901AE
:100B400002C0440F551FCA95E2F7EA01C82BD92B02
:100B5000DA6842CF0E947804C82FD0E0DC2FCC277F
:100B6000CC27DF71D06238CF8F710E94780465E0A6
:100B7000D695C7956A95E1F7CF70D0E0DC2FCC27EA
:100B8000282F30E084FF05C054E0220F331F5A9510
:100B9000E1F7C22BD32BD0691FCF8D2F8F710E940D
:100BA0007804182FCE0199270E94D403212F30E01A
:100BB000322F222722273F71282B392BE901D2CF50
:100BC00080E00895F894E82FE295EF70F0E041A1FD
:100BD0008F7021E030E0B90102C0660F771F8A955F
:100BE000E2F7CB01962F9095942391A392A1892BA4
:100BF00082A37894089581E08093370208959091BC
:100C00000902292F30E0E0910A02F0E0A9014F5FCC
:100C10005F4F43705527E417F50789F0295F3D4F73
:100C200060FB87F9F90184839F5F937090930902B9
:100C3000809107028F5F8093070281E0089580E032
:100C4000089520B36C506F7081E090E001C0880F70
:100C50006A95EAF7982F9095922390BB91B3892BD0
:100C600081BB08958FB190E06C506F7002C0959574
:100C700087956A95E2F781700895FC01680F791FE6
:100C80008FEF91E3E617F70709F408952191822782
:100C900028E030E087FF08C0880F892721503109FC
:100CA00021153105B9F7EECF880FF8CF282F35EB96
:100CB0002303C001112497FF04C080589109892F94
:100CC000089580589F4FFBCF8091AC0280FD14C0E7
:100CD00081FD14C082FD16C08091AB02882381F093
:100CE0008E3180F420E5829FC00111246EE170E016
:100CF0000E945B24862F089584E1089588E2089578
:100D000088E0089580E508958091AC0280FD17C0C9
:100D100081FD17C082FD19C08091AA02882399F035
:100D2000883298F428E0829FC001112468E270E0C4
:100D30000E945B246115710551F0862F089562E0D1
:100D4000FCCF64E0FACF61E0F8CF68E0F6CF81E055
:100D5000089580916B02882359F0E0917302F0911D
:100D60007402309729F00190F081E02D09950895E3
:100D700080E00895A3E0B0E0E0ECF6E00C943424C9
:100D80009C018091D0019091D10182179307A1F02D
:100D90003093D1012093D001E0917302F09174025D
:100DA000309751F083E089833B832A830084F18567
:100DB000E02DCE01019609952396E2E00C94502493
:100DC000A3E0B0E0E6EEF6E00C9434249C018091C0
:100DD000CE019091CF0182179307A1F03093CF01FC
:100DE0002093CE01E0917302F0917402309751F09C
:100DF00084E089833B832A830084F185E02DCE0142
:100E0000019609952396E2E00C9450249C01FC0184
:100E100032968FEF90E04191461751F08F3F19F4D1
:100E2000411101C0892F9F5F9630A9F78F3F09F4C8
:100E30000895280F311D87FD3A95F90162830895C1
:100E40009C01FC013296285F3F4F8191861303C0BD
:100E5000DF0111971C92E217F307B9F708952FB736
:100E6000F89480914D0290914E02A0914F02B09162
:100E700050022FBF08950E942F072091AF0230919A
:100E8000B002232B222321F08093170290931802A3
:100E90002091B1023091B202232B222321F08093C2
:100EA000150290931602E0917302F091740230974C
:100EB00049F082E08093AD020680F781E02D8DEA53
:100EC00092E0099508952091AF029091B20230917D
:100ED000B102662309F45AC04091B002242B292B99
:100EE000232B222331F098E09093AB0291E0909372
:100EF000AA028D3C41F40E94640681958093B00261
:100F00000E943B070895E2E3E80FE231C8F7F0E002
:100F1000E650FB4D0C946F240E946406EFCF0E94B4
:100F2000640681958093AF02EBCF0E946406FACFEE
:100F30000E9484068093B102E3CF0E9484068195CB
:100F4000F9CF0E94840681958093B202D9CF0E9486
:100F50008406FACF815D990B21E030E001C0220FB9
:100F60008A95EAF78091AE02822B8093AE02C8CFB9
:100F70008091AC0281608093AC02C2CF8091AC02C0
:100F80008260F9CF8091AC028460F5CF8D3C59F43A
:100F90008091B00287FF0DC01092B002222359F455
:100FA0001092AB0208C08E3C81F48091B0021816FA
:100FB0009CF3222381F08091B1029091B202892B9F
:100FC00081119ECF1092AA029BCF8F3C41F427FF44
:100FD000F0CF1092AF028091B0028823E0CF803D25
:100FE00019F41216B4F3E5CF893D29F413160CF762
:100FF0001092B102DECF8A3D19F437FFDACFF8CF75
:101000008B3D29F497FFD5CF1092B202D2CF8C3D01
:1010100019F41916CCF3CDCF9FE2980F983090F4C5
:10102000815D990B41E050E0BA0102C0660F771F65
:101030008A95E2F7CB0180959091AE028923809347
:10104000AE02B7CF8D3D31F48091AC028E7F80939C
:10105000AC02AFCF8E3D21F48091AC028D7FF7CFF3
:101060008F3D09F0A6CF8091AC028B7FF0CFA4E03A
:10107000B0E0EDE3F8E00C9434248FB7F8942091BD
:101080004D0230914E0240914F02509150022983FF
:101090003A834B835C838FBF69817A818B819C818A
:1010A0002496E2E00C945024A4E0B0E0EAE5F8E0F5
:1010B0000C94342480916B02882371F00E943708CD
:1010C00069837A838B839C8369817A818B819C81FC
:1010D0002496E2E00C9450240E94370869837A83B6
:1010E0008B839C8380916D0290916E02A0916F0220
:1010F000B091700229813A814B815C81280F391FA0
:101100004A1F5B1F29833A834B835C83DDCF9C019D
:101110004FB7F89480914D0290914E02A0914F02EA
:10112000B09150024FBF821B930B089587E797E75A
:10113000909301088093000888E19AE00FB6F89434
:10114000A895809360000FBE90936000FFCF8091C0
:10115000CD0108950895FC019B018091C3019091F8
:10116000C4018617970740F0672B29F48091E800A7
:101170008E778093E800C90140E0009741F4411167
:1011800006C08091E80082FF2FC080E00895209182
:1011900032022223A9F12530A9F12091E80023FD94
:1011A0002DC02091E80022FDECCF2091E80020FF27
:1011B000E4CF3091F3002091F200009719F028302D
:1011C000310558F041E02830310509F040E0209128
:1011D000E8002E772093E800D0CF41914093F100B2
:1011E00001972F5F3F4FE9CF80913202882341F072
:1011F000853041F08091E80083FFC3CF81E00895FE
:1012000082E0089583E008958091BD0187FF13C0B7
:101210008091E80082FF06C08091E8008B77809380
:10122000E80004C0809132028111F2CF08958091CC
:1012300032028823D9F38091E80080FFF8CF8091B3
:10124000E8008E77ECCF2091E4003091E50095E640
:10125000A9018091EC008170882331F08091E80031
:1012600080FF06C080E008952091E80022FD1BC0A9
:1012700080913202882391F0853091F08091EB00CB
:1012800085FD10C02091E4003091E500421753071E
:1012900001F391509111DCCF84E0089582E008952C
:1012A00083E0089581E00895E8EDF0E080818E7F8D
:1012B00080831092E2001092DA001092E100A0EE1A
:1012C000B0E08C9181608C9380818F77808319BC92
:1012D000A7EDB0E08C918E7F8C9380818F7E808390
:1012E0001092BC010895982FE42FE2709093E900CA
:1012F000891308C0762F242F50E0E11111C091E02E
:10130000980FF4CF7091EC002091ED005091F00017
:1013100021FD06C09F5F973049F78093E90008954B
:101320003091EB003E7F3093EB003091ED003D7F3C
:101330003093ED003091EB0031603093EB0070930F
:10134000EC002093ED005093F0002091EE0027FD7B
:10135000E1CF0895A0E0B0E0E0EBF9E00C942E249A
:10136000C8EDD0E088818F7E8883E7EDF0E0808152
:101370008160808384E082BF81E08093BC018881AA
:101380008E7F888302EE10E0F80110821092DA005E
:1013900081EEC82ED12CF601108288818F77888348
:1013A00088818068888388818F7D888319BC1092AA
:1013B00032021092BB011092ED011092BA0190EE30
:1013C000E92EF12CF70180818B7F808388818160F9
:1013D000888342E060E080E00E947309F60180812A
:1013E0008E7F8083F8018081816080838081886026
:1013F0008083F70180818E7F8083888180618883EC
:10140000CDB7DEB7E8E00C944A24E091BF0290919A
:10141000BE0227E0E91302C080E00895AE2FB0E0DD
:101420002E9FF0011124E054FD4F3181361306C088
:101430003081381303C03581341304C0FD01319667
:10144000E770E8CF81E008950F931F93CF93DF9368
:10145000EB018A0190913202943079F58093E90092
:101460008FEF9091E80095FD07C095ED9A95F1F703
:10147000000081508111F5CF8091E80085FF1DC0EB
:101480000E942309811114C08091E80085FD06C0E7
:101490008091E8008E778093E800F2CF8881809376
:1014A000F100015011090115110511F02196ECCF41
:1014B0008091E8008E778093E800DF91CF911F91B3
:1014C0000F910895CF93DF93D82FC92F48E050E0B4
:1014D000682F792F81E00E94240A88E0ED2FFC2FED
:1014E000A5ECB1E001900D928A95E1F7DF91CF91E3
:1014F0000895BC0146E050E084E00E94240A08956B
:10150000BC0143E050E084E00E94240A0895A0E07A
:10151000B0E0EDE8FAE00C942C24F82EE92EB62E7B
:10152000A72E8A018091B801CC24C394D12C8A3093
:1015300018F48AE0C82ED12CC1E0D0E06B2D7A2DB2
:101540008F2D9E2DF8010995811116C02196CC167C
:10155000DD0694F0CC9FC001CD9F900D900D11241D
:1015600020E030E045E34A95F1F700002F5F3F4F60
:1015700028173907B9F7E2CFCDB7DEB7EAE00C9408
:1015800048249091BC0292FB222720F9281779F079
:1015900080FB92F99093BC026091BB027091BC02F7
:1015A00084E090E00E94CC2482E00E94B40308957D
:1015B0001F93CF93DF93962F122F632F8330D8F48E
:1015C0009C30C8F44930B8F4C42FD0E0CC0FDD1FF4
:1015D00022E1929FC00DD11D112498ED899FC00D6D
:1015E000D11D1124CE0188960E94AE24612FCE0118
:1015F00089960E94AE24DF91CF911F9108951F9389
:10160000CF93DF93962F122F632F8330D0F4923035
:10161000C0F428E0829FE001112424E0929FC001E1
:101620001124C80FD91FC055DD4FCE01442369F0E6
:101630000E94AE2481E090E0612F8C0F9D1F0E94DC
:10164000AE24DF91CF911F91089502960E94AE249F
:1016500083E090E0F1CF8F929F92BF92CF92DF9282
:10166000EF92FF920F931F93CF93DF9304EB14E05D
:10167000E12CF12CC0E04701D0E015C0F601259126
:1016800034914B2D6D2F8C2F0E94D80A22E0C20E70
:10169000D11CB39439E0B312F1CF89E0880E911CCC
:1016A000DF5FDC3049F0C401880F991F9C01245D85
:1016B0003D4F6901B12CE2CFF8012591349141E011
:1016C00060E08C2F0E94FF0AF80132962591349138
:1016D00040E060E08C2F0E94FF0AF80134962591CB
:1016E000349141E061E08C2F0E94FF0AF8013696A8
:1016F0002591349140E061E08C2F0E94FF0A085F41
:101700001F4FCF5F3CE6E30EF11CC33009F0B3CFAF
:10171000DF91CF911F910F91FF90EF90DF90CF90CD
:10172000BF909F908F900895CF93DF93C8ECD2E045
:1017300060E0CE010E94AE242196C11584E0D80756
:10174000B9F7DF91CF910895882381F064E284E2B4
:1017500090E00E94AE2468E085E290E00E94AE2412
:1017600069E286E290E00E94AE2408956FEF84E281
:1017700090E00E94AE246FEF85E290E00E94AE24DC
:101780006FEFEFCF80E00E94A40B60E087E290E073
:101790000E94AE240E942B0B0E94940B81E00E94B9
:1017A000A40B08950F931F93CF93DF93833030F5ED
:1017B0006C3020F5493010F5C42FD0E0CC0FDD1F80
:1017C00022E1629FC00DD11D112438ED839FC00D11
:1017D000D11D1124CE0188960E949024082F10E07C
:1017E000102F0027CE0189960E9490249801282B63
:1017F000C901DF91CF911F910F91089580E090E092
:10180000F8CF0F931F93CF93DF93833078F5623037
:1018100068F528E0829F8001112434E0639FB001C5
:101820001124060F171F00551D4FC8014423A1F0B6
:101830000E949024C82FD0E0DC2FCC2781E090E0DC
:10184000800F911F0E9490249E01282BC901DF91D7
:10185000CF911F910F91089502960E949024C82F56
:10186000D0E0DC2FCC2783E090E0EACF80E090E06E
:10187000EECF7C3048F4693070F4833060F4462F4A
:10188000672F0E94D20B08957D3F41F4623018F417
:1018900041E0833050F080E090E008957C3FD9F73C
:1018A0006230C8F78330B8F740E00E94010C089519
:1018B000A0E0B0E0EEE5FCE00C942F247C01009168
:1018C000B9028091B802082BC2E0D0E010E0C80154
:1018D0000C2E02C0959587950A94E2F780FD09C009
:1018E0002197A8F7D12C8D2DCDB7DEB7E7E00C946A
:1018F0004B24DC2EB7018C2F0E94390C0E94C704A8
:10190000019771F3F0CF0F931F93CF93FC01858163
:1019100000811181882391F0662381F0C8010E9423
:10192000580CC82F682FC8010E945603B8018C2F8D
:101930000E94390CCF911F910F910895C8010E9408
:101940007003C82FF3CFCF93DF93D82FC92F0E94F6
:10195000580C6D2F7C2F0E94390C0E94C704DF9118
:10196000CF910895FC0184818823A1F08081918129
:101970000E94A30C282F92959F70963091F060F4EE
:10198000925F9F70923030F481E0203F79F030F424
:10199000283E30F080E004C09A5FF3CF243FD1F7B7
:1019A000089581E0283E18F0213FF9CF0895089569
:1019B00084E290E00E949024843289F485E290E0F1
:1019C0000E949024883059F486E290E00E9490248E
:1019D00091E0893209F090E0892F8170089580E0CC
:1019E000FCCF8091B5029091BD02892B4091B60247
:1019F000442389F090E026EA31E0F90150812F5F1D
:101A00003F4F51119F5F51E02C3A3507B1F79111CB
:101A10001092B602842B8093A40148E050E065E761
:101A200072E084EA91E00E94E224892BA9F088E028
:101A3000E4EAF1E0A5E7B2E001900D928A95E1F7C2
:101A4000E0917302F0917402309731F00280F381DB
:101A5000E02D84EA91E009950895CF931092B502A4
:101A6000C6E0E6EAF1E0DF018C2F1D928A95E9F7E6
:101A700080E090E00E94BA0680E090E00E94E006DC
:101A80001092BD020E94F10CEDEAF2E0DF011D921E
:101A9000CA95E9F71092AB021092AA021092AC021A
:101AA0000E943B07CF9108950E942D0D2FEF84E3F4
:101AB0009CE0215080409040E1F700C0000088E1A8
:101AC0009AE00FB6F894A895809360000FBE9093AB
:101AD0006000FFCFAAE2B0E0E0E7FDE00C94332421
:101AE0008DEB91E0FC0101962091F100208321E033
:101AF000853C9207B9F78091BE01893009F456C040
:101B0000C8F4823009F4B3C0833009F482C0813054
:101B100071F18091E80083FFE7C08091BD01909151
:101B2000BE019A3008F0E0C0E92FF0E0E45FFA4D22
:101B30000C946F248A3009F489C08B3051F780915E
:101B4000BD01813231F78091C1019091C201892B91
:101B500001F78091E800877F8093E8000E940409E4
:101B60008091BF01809300010E942D0DD2CF809102
:101B7000BD01813A71F68091E800877F8093E8008B
:101B80008091C1019091C201892B61F060E080E0F9
:101B900090E070E00E94AB088091E8008B77809322
:101BA000E800B7CF68E085EC91E0F3CF8091BD010C
:101BB000813209F0AECF8091C1019091C2018D7F39
:101BC000892B09F0A6CF8091E800877F8093E800F9
:101BD0008091E80082FF18C09091F3008091F2009C
:101BE000029731F48091F100813011F0863021F4B8
:101BF0008091F1008093CD018091E8008B778093F4
:101C0000E8000E94040985CF809132028111E0CF63
:101C100080CF8091BD01813A09F07BCF8091C101D5
:101C20009091C201892B09F074CF8091E800877FE1
:101C30008093E8008091E80080FFFCCF8091000154
:101C40008093F1008091E8008E77D9CF8091BD011B
:101C5000813209F05ECF8091E800877F8093E800B1
:101C60000E9404098091C0018093B90152CF8091F4
:101C7000BD01813A09F04DCF8091E800877F8093C4
:101C8000E8008091E80080FFFCCF8091B901D8CFB7
:101C9000803889F0823841F58091C1018F7087309A
:101CA00018F58093E9008091EB0085FB882780F987
:101CB0001092E90006C08091BA019091ED01911156
:101CC00082609091E800977F9093E8008093F10004
:101CD0001092F1008091E8008E7723C0811116C028
:101CE0008091BF01813011F18091E80083FF0AC02B
:101CF0008091E800877F8093E8008091EB0080620C
:101D00008093EB00AA96E3E00C944F24823061F7B5
:101D10008091BF01882389F01092E9008091E8004A
:101D2000877F8093E8000E940409DECF81E0933032
:101D300009F080E08093ED01EFCF8091C1018F70B9
:101D40002FEF280F263080F68093E9002091EB00DA
:101D500020FFE2CF933031F48091EB0080628093DA
:101D6000EB00DACF9091EB0090619093EB0021E0D3
:101D700030E0A90102C0440F551F8A95E2F7409355
:101D8000EA001092EA008091EB008860E8CF8111B0
:101D9000ABCF1091BF011F778091E3008078812B3A
:101DA0008093E3008091E800877F8093E8000E94A1
:101DB00004098091E80080FFFCCF8091E3008068F7
:101DC0008093E30083E0111101C082E0809332022E
:101DD0008BCF8058823008F087CF4091BF0150915F
:101DE000C0014C3D83E0580799F583E08A838AE27D
:101DF00089834FB7F894DE01139620E03EE051E26C
:101E0000E32FF0E050935700849120FF03C08295A8
:101E10008F703F5F8F708A30C8F0895C90E08D933F
:101E20009D932F5F243161F74FBF8091E800877F3A
:101E30008093E8006AE270E0CE0101960E94AB0850
:101E40008091E8008B778093E8004ECF805DE6CFED
:101E50008091C1019091C201252F33272330310594
:101E600009F44AC078F52130310509F479C08BE5D1
:101E700090E0EDE8F1E02230310509F035CF209116
:101E8000E800277F2093E8002091C3013091C4012E
:101E90008217930708F49C0140E02115310509F0F1
:101EA00064C0411162C08091E80082FDC9CF809179
:101EB0003202882329F2853019F28091E80083FFED
:101EC000F2CFBECF2132310509F43BC022323105B9
:101ED00009F00ACF8330910508F006CFFC01EE0F20
:101EE000FF1FE15CFE4F0190F081E02D845C9E4F6E
:101EF000DC018C9190E011C0CA019927413089F032
:101F000082309105B1F0892B09F0EECEE8E2F2E0E3
:101F1000E4918E2F90E0E8E2F2E0009709F4E4CE3D
:101F2000AECFEEE0F2E0E4918E2F90E0EEE0F2E052
:101F3000F4CFEAEFF1E0E4918E2F90E0EAEFF1E0E8
:101F4000ECCF8330910508F0CFCEFC01EE0FFF1FE0
:101F5000EB5BFE4F0190F081E02D89E090E08FCFA8
:101F600082E190E0E8EEF1E08ACF809132028823AE
:101F700009F466CF853009F463CF8091E80083FDD2
:101F80005FCF8091E80082FD8ECF8091E80080FFD6
:101F900084CF9091F3008091F2002115310519F062
:101FA0008830910550F041E0089709F040E08091B9
:101FB000E8008E778093E80070CF44914093F10061
:101FC0003196215031090196E8CF803809F08CCE46
:101FD0008091E800877F8093E8008091BB01809327
:101FE000F10078CE811180CE1091BF01123008F03F
:101FF0007BCE8091E800877F8093E8001093BB013F
:102000000E9404091123D1F084E08093320242E05F
:1020100061EC81E00E94730942E261EC84E00E947D
:10202000730942E261EC82E00E94730942E260ECD3
:1020300083E00E9473098091320256CE8091E300C2
:1020400087FDE2CF81E0E1CFCF93C82F8823A9F0AD
:102050008CEF8C0F813A98F4E6EAF1E08191C81791
:1020600009F440C021E0EC3AF207C1F76C2F84EA92
:1020700091E00E9406070E94F10CCF91089580E242
:102080008C0F883068F4C77021E030E001C0220F67
:10209000CA95EAF78091B502822B8093B502EBCF07
:1020A0008BE58C0F833038F42C2F2452330BC9016D
:1020B0000E94BA06E2CFE8E5EC0FEB3150F4F0E015
:1020C000EE0FFF1FE459FE4F808191810E94E006D0
:1020D000D4CF83E38C0F833180F661E08C2F0E9494
:1020E0006307CBCF6C2F84EA91E00E9420070E9407
:1020F000F10CBCCF882399F19CEF980F913A40F4F2
:10210000682F84EA91E00E9420070E94F10C089554
:1021100090E2980F983050F4877091E001C0990FC9
:102120008A95EAF7892F0E94CC03EFCF9BE5980FA1
:10213000933028F480E090E00E94BA06089598E574
:10214000980F9B3128F480E090E00E94E00608950B
:1021500093E3980F933118F460E00E9463070895A9
:102160001F93CF93DF93182FEB010E942410209729
:1021700039F4812F0E947A10DF91CF911F91089539
:102180008FE99FE00197F1F700C000002197EFCFA2
:10219000882339F09091B502892B8093B5020E9473
:1021A000F10C0895882321F00E94CC030E94F10CC9
:1021B00008950F931F93CF93DF93C62FD42F122F21
:1021C0008823A9F06093B3020E942F079093B70170
:1021D0008093B601C77081E001C0880FCA95EAF705
:1021E0000E94C810DF91CF911F910F9108958091A7
:1021F000B302681336C08091B6019091B7010E9476
:102200008708883C910568F5CD130EC060E070E04A
:10221000812F0E94B010D77081E001C0880FDA953D
:10222000EAF70E94D210DECFC77001E0802F01C014
:10223000880FCA95EAF70E94D21080E28D0F88308D
:1022400050F48D2F877001C0000F8A95EAF7802F18
:102250000E94C810DBCF60E070E0812F0E94B010B8
:10226000C1CFC77081E001C0880FCA95EAF7D9CF06
:10227000A8E0B0E0EEE3F1E10C9427246C01DC016E
:1022800014968C91882309F4B4C061E0C6010E94C1
:10229000830C8C01F6018581882309F4FEC4980122
:1022A00037572038310508F003C5003108F090C0D9
:1022B0008FEF93E00E94902481118AC048ECE42EB5
:1022C00042E0F42E011153C01A821982FE013396A6
:1022D00086E0DF011D928A95E9F75701BFEFAB1A3F
:1022E000BB0AC7010E94902489831A82882309F4BB
:1022F0006FC0813009F081C087010E5F1F4FC5019B
:102300000E9490248A83882309F462C09FEF980F6B
:102310009330E0F5E3E0EE0EF11CC8010E9490243A
:102320008B83882309F454C01C828E010F5F1F4FDA
:10233000D8012C91222389F2213009F0A1C01196F5
:102340008C911197813009F05AC05801B2E0AB0E60
:10235000B11CF801828160E070E0893311F460E51E
:1023600070E00E94B01085010F5F1F4FE1CFE114B4
:10237000F4E0FF0669F1C7010E94902497012F5FE6
:102380003F4F79018111F3CF01509CCF8430B9F4D4
:1023900032E0E32EF12CC8010F5F1F4F0E94902402
:1023A000E1E0F0E0EC0FFD1FEE0DFF1D80838823C0
:1023B00079F08C3731F4FE01EE0DFF1D12827801A9
:1023C000B4CFFFEFEF1AFF0A27E0E216F10419F786
:1023D0008091BA028770882361F0D60115968C919E
:1023E000882339F08091BC0282FF03C082E00E9402
:1023F000B4032896EFE00C944324750196CF823005
:1024000049F45801F2E0AF0EB11C12968C910E9473
:102410002410A9CF833049F45801B2E0AB0EB11CAF
:10242000F80182810E947A109ECF843019F00F5FEC
:102430001F4F9ACF12962C910E5F1F4F80E090E0B5
:102440006AE0A8014F5F5F4F2053330B2A303105FC
:1024500058F0009709F488CFAFE9BFE01197F1F782
:1024600000C000000197F5CF689FF001699FF00D53
:102470001124C9018E0F9F1FF80121818A01E1CF2C
:10248000E22FF0E0E450FB4F5490E22FE695E69502
:10249000E6958E2F90E0FC01E451FB4FA49027704D
:1024A000622EB12C022E02C0B594A7940A94E2F7D2
:1024B000B1E0AB22BB24FC01E452FB4F8490912C91
:1024C00002C0959487942A95E2F7E1E08E22992440
:1024D000FC01E453FB4F7490A114B104C1F48114C6
:1024E000910421F560E070E0852D0E94B010E72D89
:1024F000F0E0062C02C0F595E7950A94E2F7E0FFBC
:1025000033CF60E070E08CE20E94B0102DCF81EEFE
:102510000E9424108114910449F460E070E0852D3C
:102520000E94B01081EE0E947A10E1CF86EE0E94E8
:10253000241060E070E0852D0E94B01086EE0E94AD
:102540007A10AB28A1F2EECF26E241EE61EE0E94B6
:10255000D9103ECF27E245EE65EEF9CF26E241EEF7
:1025600060EEF5CF27E245EE64EEF1CF26E241EED4
:1025700062EEEDCF27E245EE66EEE9CF28E241E0DC
:10258000EBCF0631FCE71F0709F0C7C08091B4020A
:1025900069E2811165E384EA91E00E9420072DC180
:1025A0008091BB0281608093BB026091BB027091FD
:1025B000BC0284E090E00E94CC240E942D0D08CF44
:1025C0008091BC0288608093BC02EFCF8091BB02F7
:1025D0008260E9CF8091BB028460E5CF8091BB022D
:1025E0008860E1CF8091BC028160EDCF8091BC0218
:1025F0008260E9CF8091BB028061D5CF8091BB0220
:102600008062D1CF8091BB028064CDCF0E942D0D1E
:102610008091BB028068C7CF8091BB028C60C3CF22
:102620008091BC028360CFCF8091BB028E7FBBCFF5
:102630008091BC02877FC7CF8091BB028D7FB3CFD3
:102640008091BB028B7FAFCF8091BB02877FABCFE6
:102650008091BC028E7FB7CF8091BC028D7FB3CFBB
:102660008091BB028F7E9FCF8091BB028F7D9BCFDD
:102670008091BB028F7B97CF0E942D0D8091BB0272
:102680008F7791CF8091BB02837F8DCF8091BC02E9
:102690008C7F99CF8091BB0282FB992790F921E032
:1026A000922790FB82F990FB83F97DCF8091BC0249
:1026B000982F909591708E7F892B90FB81F983CF15
:1026C0009091BB02892F8F7B96FF80646CCF0E9414
:1026D0002D0D9091BB02892F97FB87F9805863CF0E
:1026E00061E08EE090E00E94AE245FCF60E0F9CF21
:1026F0009091BB02892F8F7E94FF806154CF90917F
:10270000BB02892F8E7F90FF81604DCF9091BC02DC
:10271000892F877F93FF886056CF07372CE71207F2
:1027200009F49FC082E008373CE7130709F49AC018
:10273000F6018581E080F180882309F4B4C0C701E7
:102740000E94580C182F682FC7010E945603B7012A
:10275000812F0E94390C0E94C7048C01D601159666
:10276000BC9015971696AC90A2942FE0A22280916F
:10277000BA028770882301F1FB2CBB20F1F0812F76
:10278000807F803461F080E2800F8830A8F0812F54
:10279000807E803221F4023078F0AA2069F08091A6
:1027A000BC0282FF09C082E00E94B4038091BA0299
:1027B0008770FF24F3948111F12CE12FE295EF70E3
:1027C000103C08F0DBC0F0E0EA5EFA4D0C946F2498
:1027D00006318CE71807A1F48091B5028A7A91E05E
:1027E000811101C090E09093B40265E3811101C0B2
:1027F00069E284EA91E00E9406070E94F10CE8CDAC
:1028000007379CE7190721F182E00837ACE71A0780
:1028100001F10A35BCE71B0709F441C030F501306E
:10282000FCE71F07D1F103302CE7120781F10115F6
:102830001C4709F07DCF0E942D0DAFEFB4E3ECE013
:10284000A150B040E040E1F700C000000E949608AF
:1028500081E00E94E30243E062E081E00E9489039C
:10286000B7CD81E00E94EF02F6CF0B358CE7180759
:10287000C1F00C351C4709F05BCF8091BC0282FB94
:10288000882780F991E089270E94C10A51CF6FEF14
:102890007FEF80E090E00E94CC240E94540D81E004
:1028A000F3CF80E0F1CFC7010E947003182F4FCF04
:1028B000B12FBF70EB2E103118F0E29490EFE922A7
:1028C000BB20B9F0EE2069F080E2800F883010F074
:1028D000011109C08091B5028E298093B5020E9432
:1028E000F10C802F43C08091BD028E298093BD02E0
:1028F000F6CF802F0E947A10EE2009F43FC080E2CC
:10290000800F883010F0011104C08E2D0E94CC037E
:1029100006C0E0948091BD028E218093BD020E948A
:10292000F10C2CC0E12FEF70EE2E107F103219F059
:10293000E29480EFE822002349F0013009F46CC0F2
:10294000BB2009F478C0AA20D1F1CBCF8091BC0282
:1029500082FD31C0BB2069F0EE2039F08091B502D4
:102960008E298093B5020E94F10C80E00E94241011
:1029700005C080E00E947A10E110C7CFFF20B1F0BF
:102980008091BA0280FD12C0D60115961C928695E0
:10299000869586950E94E302C6010E9438118091B7
:1029A000BA028695869586950E94EF0260E0C60180
:1029B0000E94830C1ECDBB2099F0A11004C08E2D67
:1029C0000E94C810DBCFF1E0AF12D8CF9091B602D1
:1029D0008E2D8923E81691F29E299093B602CECFD0
:1029E000A110CCCF8E2D0E94D2109091B6028E2DC8
:1029F0008923882329F08E2D809589238093B60220
:102A00008091B7029E2D9823992309F4B7CFE094C3
:102A1000E822E092B702B2CFBB2029F025E02A15C8
:102A200008F4ACCFCCCF34E03A1508F4A7CF8E2D04
:102A30000E94D210A3CFAA20D1F3093349F48FEF1B
:102A400097EEA3E081509040A040E1F700C0000065
:102A5000802F0E947A1092CF812F86958695837061
:102A6000882361F0813009F089CFC8019370B110DB
:102A700002C080E090E00E94E00680CFC801937021
:102A8000B11002C080E090E00E94BA0677CF6B2DB3
:102A9000802F0E94630772CF812F8370811136C00F
:102AA000B11029C0402F429546954770440F440FFE
:102AB000202F2F70042E01C0220F0A94EAF7007114
:102AC000002341F08FE090E001C0880F4A95EAF7BB
:102AD000082F0095169516951370123091F0802FDF
:102AE000822B133031F08091B802113039F0202B55
:102AF00082230E94DD020E94A90640CF822B802BF8
:102B0000F8CF202B8091B8028227F3CFBB2061F150
:102B100010FFF1CF402F429546954770440F440F68
:102B2000202F2F70042E01C0220F0A94EAF70071A3
:102B3000002341F08FE090E001C0880F4A95EAF74A
:102B4000082F0095169516951370123099F0802F66
:102B5000822B133031F08091B902113041F0202BDB
:102B600082230E94E002C7CF823028F2D3CF822B8B
:102B7000802BF7CF202B8091B9028227F2CF1F70D4
:102B8000BB2039F0812F0E94E302802F0E94C810E1
:102B9000B2CF802F0E94D210812F0E94EF02ABCFC4
:102BA000023F81F178F4003FC1F0013F09F441C0D8
:102BB000BB2009F460C0AA2009F45AC0802F0E94EB
:102BC000241099CF033F29F1043F79F1B110F3CFDD
:102BD000A1105FC0812F8F71E0CFBB2081F0B4E0E6
:102BE000BA1508F488CF1F7181E090E0012E01C072
:102BF000880F0A94EAF79091B9028927B2CFE5E0ED
:102C0000AE16EFCF812F8F71B110C7CF0E94E302B4
:102C100072CF80E0BB2009F4A4CF1F7181E0012EA8
:102C200001C0880F0A94EAF79CCF9091BC0292FDF4
:102C300006C0812F8F71BB2009F4AFCFE7CFBB2037
:102C400061F0812F8F7192FFE1CFF8E08F9F9001AB
:102C5000112423602093BA02D9CF81E00E94B403EB
:102C600021E02A1508F047CF82E00E94B40343CF49
:102C7000812F8F71CBCFAA2009F4ACCF093349F44F
:102C80003FEF87EE93E0315080409040E1F700C085
:102C90000000802F0E947A102ECFF801E851FC47E7
:102CA000E730F10508F06DCCEE5DFA4D0C946F2421
:102CB000F801E851FC47E730F105B0F31092B30298
:102CC000C8019057839708F083CD84E090E00E947C
:102CD00098249093BC028093BB02F801E150F04726
:102CE000E232F10508F05CCCE75DFA4D0C946F24FC
:102CF0008091FE02803178F48091FD02882359F0A2
:102D0000E091BF022091BE023091F9024091F80299
:102D100057E02E1301C008956E2F70E05E9FF00102
:102D20001124DF01A054BD4F14968C911497882371
:102D300061F111968C911197831327C08C918413A4
:102D400024C015968C91159781111FC012968D91F4
:102D50009C91A091FA02B091FB028A1B9B0B883CCC
:102D6000910598F48091FE028F7080618093FE023D
:102D7000EA53FD4F80818F708061808388EF92E0FD
:102D80000E9438110E94AA030895FB013196E77052
:102D9000C0CFADE0B0E0EFECF6E10C9428248C015C
:102DA00086E0F801DE01189601900D928A95E1F710
:102DB000F8017080F580A280B380848198EF892E1D
:102DC00092E0992E6090FC02611018C0882399F05F
:102DD000FF2009F413C1C8010E94B20C882309F432
:102DE0000DC187E0F801A8EFB2E001900D928A953D
:102DF000E1F70E947816FF24F39453C0D090FD02AF
:102E00002091FA023091FB02A501421B530BDD20F9
:102E100009F4C4C0483C510508F07AC0882359F32E
:102E20008091F902C180E090FE02FFE0FE1508F4F7
:102E300059C0C81215C08091F802871111C0F11055
:102E40004BC08E2D8F7080618093FE0288EF92E0E0
:102E50000E9438118091FE02F8018683F12C21C076
:102E6000F1103AC040E06C2D872D0E94050A40E029
:102E70006C2D872D0E94050AF82E8111EFCF8885D1
:102E800099850E94A30C292F22952F70903470F4FD
:102E90009F702230A0F09923B1F0F8019681903113
:102EA00090F48F2D2D96EEE00C9444242A5F2F7021
:102EB000223068F0C8010E943811FD2CF2CF99230E
:102EC00011F0882371F3805E883058F3F3CF803F90
:102ED00040F3815F8230F9CF8091FE028160809360
:102EE000FE02BCCFC8123CC08091F802871138C0E6
:102EF000F11036C0F801E682C8010E94381187E05F
:102F0000F801A8EFB2E001900D928A95E1F773CF36
:102F1000E090FE02FFE0FE1550F088EF92E00E9484
:102F2000381187E0F40111928A95E9F797CF882349
:102F300009F461CF9091F902F8018181981310C0D2
:102F40008091F80287110CC0F1100AC0E682C80116
:102F50000E94381187E0F40111928A95E9F74BCF6E
:102F6000C8010E94B20C882309F448C0FF2009F46C
:102F700045C08091FE02803208F433CF8091F80280
:102F80009091F9029A838983BC82AB826D821E8202
:102F9000EF82CE0101960E94381123CF483C5105A3
:102FA00008F0BFCF882309F426CFFF2039F1909194
:102FB000F9028181981318C08091F802871114C01A
:102FC0008091FE0280FD9BCF803108F498CF8683EC
:102FD000807F803F09F490CF8681982F907F905F0B
:102FE0008F70892B868388CFC8010E94B20C811113
:102FF000F8CE8091FE0281608093FE02C8010E949B
:103000003811F9CEABE1B0E0E8E0F8E10C943324FC
:103010004E8B5F8B688F798F8A8F9B8F9111109267
:10302000BD021D8A86E0FE017696DE011F960190A4
:103030000D928A95E1F78B89882329F061E0CE0112
:103040000F960E94830C87E0FE013F96DE011896E2
:1030500001900D928A95E1F7CE0108960E94C9165B
:1030600081112BC087E0FE013896DE011196019098
:103070000D928A95E1F72091BE024091BF028C85A6
:103080008823D9F030E0C90101968770992750E074
:1030900084179507E9F097E0929FD001939FB00DB8
:1030A0001124A054BD4FFE01319601900D929A95C6
:1030B000E1F78093BE020E94AA0317E08091BF024D
:1030C0009091BE02891312C06B96E3E00C944F24DA
:1030D0000E942D0D1092BE021092BF0287E0E8EF11
:1030E000F2E0DF011D928A95E9F7E7CF189FC00152
:1030F000112480549D4F0E94C916882329F3809182
:10310000BF0290E00196877099278093BF02D6CFC7
:10311000A6E0B0E0EEE8F8E10C9432240E942F071C
:103120008C0180917102909172028017910779F061
:1031300019821A820E942F07BC0149815A8180E0BE
:1031400090E00E940218109372020093710226967A
:10315000E4E00C944E24ACE0B0E0E1EBF8E10C9438
:10316000312480E01CEF0DEF90910A0220910902BA
:103170002917F1F1E92FF0E0E55FFD4F2081F22EF4
:10318000E894F7F89F5F937090930A028091080289
:103190008F5F8093080227FD12C0FF8218870E946C
:1031A0002F07BC014F81588583E091E00E940218EF
:1031B000F9821A830E942F07682F83E011C0FF82D3
:1031C00008870E942F07BC014F81588582E091E05B
:1031D0000E940218F9820A830E942F07682F82E05A
:1031E000792F49815A8190E00E94021881E0BCCF7A
:1031F0002C96E5E00C944D24A8E2B0E0E2E0F9E181
:103200000C942624FE01319688E1DF011D928A95F7
:10321000E9F75BE4E52E51E0F52E8F0161E5662EBE
:1032200061E0762E2F01AA24A394B12CEAE58E2E1C
:10323000E1E09E2EF70181917F018F3F09F446C0A6
:10324000F894E82FE295EF70F0E021A18F70A501CE
:1032500002C0440F551F8A95E2F7CA01922F982B9E
:1032600091A392A18095892382A3789400C0E1E57F
:10327000F1E021E030E0C12CD12C41914F3F09F425
:1032800092C0A42FA295AF70A05EB0E08C9190E0A8
:103290004F7002C0959587954A95E2F7817081112C
:1032A00082C0C901C82AD92A220F331F8E169F0651
:1032B00021F7F701319780818F3F11F00E94E205DD
:1032C00050EA5A95F1F7D801CD92DC920E5F1F4F6C
:1032D0006E147F0409F0AECF48E150E0B20182EDF8
:1032E00091E00E94E2240091EB0110E0000F111F19
:1032F000065E1D4F892B09F459C088E1F201A2ED49
:10330000B1E001900D928A95E1F781E08093B501DB
:103310000E942F079093B4018093B30180916B02B8
:10332000882309F49BC07E01B9E1EB0EF11C8CE00F
:10333000F70111928A95E9F78091B8018A3008F077
:1033400057C04EE05BE1B701C8010E94870A88239D
:1033500009F472C04AE35BE1B701C8010E94870A21
:10336000882309F469C047E85BE1B701C8010E94FE
:10337000870A882309F460C01092B8018091EA019D
:1033800090E0880F991F4CE050E0B701865E9D4F9A
:103390000E94E22421E02093B201892BF1F5A89646
:1033A000E0E10C94422480E090E07CCF8091B50174
:1033B000882309F4B3CF8091B3019091B4010E94A6
:1033C0008708059708F4AACF4CE050E062ED71E061
:1033D000C8010E94E224892B41F08CE0E2EDF1E08B
:1033E000D80101900D928A95E1F71092B50196CF20
:1033F0008091B0019091B1010E948708843F914073
:1034000008F09FCF8091B201882349F28CE0D70168
:103410001D928A95E9F71092B201A091EA01B0E0FD
:10342000AA0FBB1FA65EBD4F8CE0FE0179960190EE
:103430000D928A95E1F7B3CF8091B8018F3F39F4AF
:103440000E942F079093B1018093B001DBCF8F5F73
:103450008093B8018A3008F491CFF2CF8CE0F80164
:10346000A2E5B2E001900D928A95E1F76CE070E080
:1034700082E592E00E943D068093510288E0E7E0F9
:10348000F2E0AFE5B2E001900D928A95E1F768E0D5
:1034900070E08FE592E00E943D0680935E02C0904E
:1034A0006702D0906802E0906902F0906A02809111
:1034B000AC019091AD01A091AE01B091AF01C816E1
:1034C000D906EA06FB0609F46ACFC092AC01D09295
:1034D000AD01E092AE01F092AF010E943708C61A2A
:1034E000D70AE80AF90AC0926D02D0926E02E09201
:1034F0006F02F092700253CFA1E0B0E0E2E8FAE18F
:103500000C942624462E4A01522EC32E3701A82E93
:10351000880FBB08C5010E94AF23D82E882309F469
:1035200076C0C50133E0880F991F3A95E1F7FC0199
:10353000E45FFE4F2381422F50E0222311F041E04F
:1035400050E0845F9E4FDC0114966D917C916F5A20
:103550007D4FCE0101960E94EF24F40140815181FC
:10356000628173812FB7F89480914D0290914E0241
:10357000A0914F02B09150022FBF841B950BA60B58
:10358000B70B84369105A105B10538F4B301C80124
:103590000E943D0699818917D1F1E42C042C000C7E
:1035A000FF08C7010E94AF23D82E811106C0D12C7D
:1035B0008D2D2196E0E10C944224C70123E0880F71
:1035C000991F2A95E1F7FC01E45FFE4F438150E02B
:1035D0006416750608F4A301845F9E4FDC011496FF
:1035E0006D917C916F5A7D4F852D9C2D0E94EF240B
:1035F000B301C8010E943D0699818913D8CF0E946A
:103600003708F4016083718382839383D1CFA30150
:10361000B801852D9C2D0E94EF24CACFACE0B0E00C
:10362000E4E1FBE10C942E246B018CE0E82EF12CFC
:1036300002E512E09E012F5F3F4F49E452E061E056
:1036400080E00E947C1A882349F09CE0FE013196BC
:10365000ADE3B2E001900D929A95E1F79CE0EDE3C5
:10366000F2E0D60101900D929A95E1F72C96E8E0F0
:103670000C944A24A8E0B0E0E0E4FBE10C94302490
:1036800088E0E82EF12C0FE512E09E012F5F3F4FFE
:1036900049E352E063E082E00E947C1A182F8823FD
:1036A00089F190915E0280913802981759F100E0FB
:1036B00090916202809161028917F1F0E92FF0E0A8
:1036C000EB5AFD4F868587FB662760F99F5F9370F5
:1036D00090936202909160029F5F909360028F7757
:1036E0000E94FF05082F8111E3CF84E090E00E9443
:1036F000AF23102F182302C00111F7CF80915E0273
:1037000080933802812F2896E6E00C944C24A8E0A0
:10371000B0E0EDE8FBE10C9433244091330250918A
:10372000340260913502709136022FB7F89480917F
:103730004D0290914E02A0914F02B09150022FBFC6
:10374000841B950BA60BB70B11E084369105A105E0
:10375000B10578F10E945408DC01CB010296A11D4D
:10376000B11D89839A83AB83BC838091350190918D
:1037700036018F5A9D4F20913401422F50E0253061
:1037800010F044E050E0BE016F5F7F4F0E94EF24D5
:1037900085E090E00E94AF23182F882351F00E940B
:1037A000370860933302709334028093350290930C
:1037B0003602812F2896E3E00C944F24CDB7DEB774
:1037C000A4970FB6F894DEBF0FBECDBF85B7806853
:1037D00085BF85B7806885BF84B7877F84BF0FB6F4
:1037E000F894A895809160008861809360001092A1
:1037F00060000FBE80E890E00FB6F89480936100FF
:10380000909361000FBE80EE95E09093A3018093AA
:10381000A2010E9454090E94AA098091E2008460DA
:103820008093E200789480913202882399F080910D
:10383000E9001091EC001795112717958F70182B40
:103840001092E9008091E80083FD0E946A0D1F70CC
:103850001093E90082E084BD93E095BD9AEF97BD97
:1038600080936E0010926D0210926E0210926F02A1
:10387000109270020E94D80C811102C00E94C20BEB
:103880008091D80080618093D8002AE12A95F1F7D1
:1038900000C08091D90080FDFFC00E9454091092A1
:1038A000320210926B0210926C0210920101E7E05A
:1038B000F2E088E0DF011D928A95E9F7809101012D
:1038C00091E0892780931102809101019093140265
:1038D0008091010160E080E00E94210661E080E0CB
:1038E0000E942106EFE8F1E03197F1F700C00000F7
:1038F00010E080911402181708F4D8C080910101DB
:103900008091010190E0811101C096E09093EB015C
:1039100086E0891B8093EA010BE411E0D8018D91C8
:103920008D018F3F11F00E94E205B1E001351B07C8
:10393000A9F701E511E0AAE5EA2EA1E0FA2EF801C7
:1039400081918F018F3F11F00E94E205E016F10690
:10395000B1F788E1EAE1F2E0DF01282F1D922A9514
:10396000E9F7E2EDF1E0DF011D928A95E9F780E0E9
:1039700090E00E949824853E9E4F21F40E94D80C2E
:10398000811163C065EE7EEF80E090E00E94CC2460
:1039900060E082E090E00E94AE2481E08093B80273
:1039A00061E083E090E00E94AE2460E074E184E096
:1039B00090E00E94CC2460E086E090E00E94AE247B
:1039C00060E087E090E00E94AE2440E050E0BA0161
:1039D00088E090E00E94C02460E083E290E00E94D2
:1039E000AE2460E08CE090E00E94AE2460E08DE0C8
:1039F00090E00E94AE2419821A821B821C821D82D2
:103A00001E821F82188648E050E067E170E0CE0118
:103A100001960E949E2440E050E0BA018FE190E0C0
:103A20000E94C02480E00E94A40B0E94C20B40E0D0
:103A300050E0BA018FE090E00E94C02440E050E0E6
:103A4000BA0183E190E00E94C02482E090E00E94ED
:103A500090248093EE0184E090E00E94982490935B
:103A6000BC028093BB020E94FC18EFEFF6E721E056
:103A7000E150F0402040E1F700C000000E94FC1837
:103A800080911A0280FF24C06FEF7FEF80E090E00A
:103A90000E94CC240E94960881E080936B02809360
:103AA0006C02809301010E94C12201CF60E0812F4E
:103AB0000E943206082F61E0812F0E943206E12F1A
:103AC000F0E0EE5EFD4F880F802B80831F5F11CFEB
:103AD00083E090E00E9490240E94DD0280916B02BE
:103AE000811102C00E94C42282E091E0909374028E
:103AF00080937302E8E16E2E712CF4E04F2E512C6E
:103B000080913202853049F480913202853009F487
:103B100062C00E942D0D0E94A9060E94FC186FEE43
:103B2000A62E61E0B62E7AE1872E72E0972E47E04E
:103B300052E0D401F501219131918D919D914E1763
:103B40005F0709F498C028173907A9F3A0916B0201
:103B5000A9A3312CF401019111914F01D501CD9010
:103B6000DD905D01C016D10679F1C026D126212C49
:103B7000EE24E394F12CC7018C219D21892BD1F0F7
:103B8000B9A1BB23B9F029823A820E942F079C83F6
:103B90008B83E1E0ED8391E0970120233123232BF8
:103BA00009F490E09E8349815A816B817C818D81EB
:103BB0000E9402182394EE0CFF1CF9E02F12DBCFB9
:103BC000F50132971183008333942CE03212C2CF77
:103BD0000E94540856C080913202843011F1109234
:103BE000EC0180E40FB6F894A895609260000FBED7
:103BF0008093600083B7817F846083BF83B78160D7
:103C000083BF7894889583B78E7F83BF0FB6F8946F
:103C1000A895809160008861809360001092600098
:103C20000FBE8091ED01882309F46ECF0E94FC182D
:103C3000EAE1F2E081919191892B29F492E0E2335B
:103C4000F907C1F761CF80E189BD82E189BD09B47F
:103C500000FEFDCF8091D8008F7D8093D8008091A9
:103C6000E00082608093E0008091E00081FDFCCF65
:103C70000E942D0D49CF2817390709F067CF0E9400
:103C80008818F0906B02FF2019F00E94AB18F82EF4
:103C900080913702882351F01092370280910902F7
:103CA00080930A028091070280930802E12C39C0B8
:103CB00061E08E2D0E943206182F60E08E2D0E944A
:103CC0003206110F812B0E2D10E0D801AE5EBD4FD4
:103CD000EC919E2F9370891719F1EE0FEE0FE82BE0
:103CE000EC93809111028E0DEF70F0E0E65AFE4FDA
:103CF000015F1D4FD080D8019C91D90EB3E060E0E8
:103D0000BD1524F0EDEFDE161CF461E00E94FF0506
:103D10008D2DDD0C990BB2010E945B24D8018C9390
:103D2000E39480911402E81618F280916B028823C4
:103D300019F00E94AB18F82AF1100E94540886E08E
:103D4000EDEAF2E0DE01119601900D928A95E1F71D
:103D5000F090AE020091AF021091B002D090B1028B
:103D6000E090B2021092AF021092B0021092B10233
:103D70001092B202812F802B882379F08091170254
:103D8000909118020E9487089C018091AB028111DA
:103D90005CC02B30310508F05EC08E2D8D29882344
:103DA00079F080911502909116020E9487089C017B
:103DB0008091AA02811189C02B30310508F08BC097
:103DC0008091AE02F81216C08091AF02882311F0E4
:103DD000801310C09091B002992311F091130AC082
:103DE0002091B202211106C02091B102211102C01E
:103DF000892B81110E943B0786E0FE013196ADEAD6
:103E0000B2E001900D928A95E1F70E94A906909187
:103E10001902891721F0809319020E9437088091B6
:103E20003202843009F06CCE83E08093E900809107
:103E3000E80082FF65CE8091E80085FD86C0809114
:103E4000E8008B778093E8005BCE2531310508F4DC
:103E5000A4CF8F3F19F08F5F8093AB02002359F0FE
:103E60000E9464069FEF10160CF491E0899F802D4C
:103E700011248093AF02112359F00E94640691E04F
:103E800011160CF09FEF899F802D11248093B002B2
:103E90008091AF02882309F480CFC090B002CC207B
:103EA00009F47BCF0E945606811101C081E0809306
:103EB000AF028C2D0E945606882319F08093B00221
:103EC0006CCFB1E0B093B00268CF2135310508F472
:103ED00077CF8F3F19F08F5F8093AA02DD2059F0D2
:103EE0000E9484069FEF1D140CF491E0899F802DA1
:103EF00011248093B102EE2059F00E94840691E0D3
:103F00001E140CF09FEF899F802D11248093B20224
:103F10008091B102882309F453CFE090B202EE20E1
:103F200009F44ECF0E945606811101C081E08093B2
:103F3000B1028E2D0E945606882319F08093B2029A
:103F40003FCFE1E0E093B2023BCF0E94230930E291
:103F5000E32EF12C8E010F5F1F4F8823D1F080914B
:103F6000E8008B778093E800E981E150E53158F56E
:103F7000F0E0E55BFA4D0C946F248091F100D801DC
:103F80008C93B1E0EB1AF108E114F10441F30F5FF7
:103F90001F4F8091E80085FDF0CF8091E8008B777E
:103FA0008093E8000E942309882399F3D8CF1A82CE
:103FB0008CE08B831AC08A81833049F138F48130D8
:103FC00061F08230D9F08FEF89830FC08430D9F748
:103FD0001B821C821D821E8208C00E9437080E941C
:103FE00075246B837C838D839E8340E250E0BE0109
:103FF0006F5F7F4F82E00E94240A82CD87E290E0CB
:104000000E9490241B821C821D828E83EECF8B81A6
:1040100090E0DE01119612968C30910534F7FC0188
:10402000FF27EE0FFF1FE65EFD4F208131811196C5
:104030003C93119712962C9312970196ECCF8A819C
:10404000823019F0853089F2BECF8B819C81AD81A1
:10405000BE8189A39AA3ABA3BCA3BC01CD010E94DE
:10406000752487E290E00E94AE24BFCF4C816B8123
:104070008A810E94D20B9827892798279E838D8357
:10408000B4CF2D813E813227232732274C816B818B
:104090008A810E94D80AA9CF0E942B0BA6CF80E16B
:1040A0008A83A3CF81E08A8388E383CFCA80DB80C1
:1040B000DC24CD24DC248C817601E80EF11C8E01F9
:1040C0000B5F1F4FCE14DF0409F48FCF80E098E31D
:1040D000C91691E0D90628F4C60188539D4F0E9465
:1040E0009024D8018D938D01BFEFCB1ADB0AEACF64
:1040F0000A811B81102701271027FE0131966F01CD
:104100008C817F01E80EF11CCE14DF0409F46DCF21
:104110000833F1E01F0740F4D60114966C91C801F2
:1041200088539D4F0E94AE240F5F1F4FBFEFCB1AE5
:10413000DB0AEACF0E94940B58CF83E0B1CFCA804C
:10414000DB80DC24CD24DC248C817601E80EF11C9C
:104150008E010B5F1F4FCE14DF0409F446CF80E0C1
:10416000E8E8CE16E2E0DE0620F4C60188960E945A
:104170009024D8018D938D01BFEFCB1ADB0AEBCFD2
:104180000A811B81102701271027FE0131966F013C
:104190008C817F01E80EF11CCE14DF0409F425CFD9
:1041A0000838F2E01F0738F4D60114966C91C80164
:1041B00088960E94AE240F5F1F4FBFEFCB1ADB0A19
:1041C000EBCF41E08C81811101C040E06B818A819D
:1041D0000E94010C50CF2D813E81322723273227A8
:1041E00041E08C81811101C040E06B818A810E9495
:1041F000FF0AFBCE1F921FB61F9211248F939F932D
:10420000AF93BF938091EC01811113C080914D0257
:1042100090914E02A0914F02B09150024196A11D83
:10422000B11D80934D0290934E02A0934F02B09324
:104230005002BF91AF919F918F911F901FBE1F9011
:10424000189578941F921FB61F9211248F939F93F5
:10425000AF93BF9380914D0290914E02A0914F0277
:10426000B09150020196A11DB11D80934D02909313
:104270004E02A0934F02B0935002BF91AF919F9115
:104280008F911F901FBE1F9018951F920F920FB60F
:104290000F9211242F933F934F935F936F937F93CC
:1042A0008F939F93AF93BF93EF93FF938091E10020
:1042B00082FF09C08091E20082FF05C08091E10089
:1042C0008B7F8093E1008091DA0080FF24C0809191
:1042D000D80080FF20C08091DA008E7F8093DA00C2
:1042E0008091D90080FF9BC080E189BD82E189BDBA
:1042F00009B400FEFDCF81E0809332028091BC01C1
:10430000811109C00E9454090E94AA098091E2000B
:1043100084608093E2008091E10080FF17C080916B
:10432000E20080FF13C08091E2008E7F8093E20064
:104330008091E20080618093E2008091D8008062E9
:104340008093D80019BC85E0809332028091E1000F
:1043500084FF29C08091E20084FF25C080E189BDEF
:1043600082E189BD09B400FEFDCF8091D8008F7D28
:104370008093D8008091E1008F7E8093E10080914E
:10438000E2008F7E8093E2008091E2008160809362
:10439000E2008091BB01882309F447C084E0809348
:1043A0003202809132028091E10083FF27C0809128
:1043B000E20083FF23C08091E100877F8093E100CA
:1043C00082E0809332021092BB018091E1008E7FE7
:1043D0008093E1008091E2008E7F8093E2008091E3
:1043E000E20080618093E20042E060E080E00E94B1
:1043F00073098091F00088608093F000FF91EF9145
:10440000BF91AF919F918F917F916F915F914F91EC
:104410003F912F910F900FBE0F901F90189519BCD0
:10442000109232021092BC0176CF8091E30087FF98
:1044300002C083E0B4CF81E0B2CF1F920F920FB6DB
:104440000F921124FF920F931F932F933F934F933B
:104450005F936F937F938F939F93AF93BF93CF930C
:10446000DF93EF93FF9309EE10E0F8018081C09194
:10447000EC00C795CC27C7958F70FC2EF82A1082C8
:10448000C0EFD0E08881877F888378940E946A0D8E
:10449000F8011082888188608883CF2DCF70C08317
:1044A000FF91EF91DF91CF91BF91AF919F918F914C
:1044B0007F916F915F914F913F912F911F910F913C
:1044C000FF900F900FBE0F901F9018958EE1499BA3
:1044D00003C081508111FBCF499BFECF08955998AD
:1044E00080E28A95F1F7599A0895FC013BE03A95EC
:1044F000F1F798E020E080E031E040E14A95F1F703
:10450000880F499B02C08160232742E04A95F1F75A
:10451000000040E14A95F1F791509111EECF90E102
:104520009A95F1F799B132E03A95F1F7000040E140
:104530004A95F1F79695917092272081920F90837A
:104540000895A1E0B0E0E7EAF2E20C943024198289
:104550008C017C01E60EF11C0E151F0541F481E073
:104560009981911180E02196E6E00C944C240E9400
:104570006622CE0101960E947522F80181938F0177
:10458000EBCF519A599A08955198599AE99AE9E6C8
:10459000F0E08081837F808308956150770B91E004
:1045A00001C0990F6A95EAF7692F90E021E0611147
:1045B00008C0992399F0599A80E28A95F1F75998A1
:1045C0000895362F3823332339F0599A922730E251
:1045D0003A95F1F76695EBCF5998F9CF5998ECCF0A
:1045E000FF920F931F93CF93DF93EC018C01060F83
:1045F000111DC017D10729F4CDB7DEB7E5E00C9443
:104600004D24F9900E946F2268E08F2D0E94CD22E8
:10461000F0CF1F920F920FB60F9211240F931F939A
:104620002F933F934F935F936F937F938F939F93BA
:10463000AF93BF93EF93FF93CF93DF930F92CDB7D9
:10464000DEB719820E946622CE0101960E94752271
:10465000082F069506950695982F92959570202F10
:104660002570920F292F237096959695920F982773
:1046700097708981892B81115CC0073008F059C07F
:1046800080E18A95F1F7599A519A82E08A95F1F77B
:1046900000C0599888E0089F80011124D801A45FC8
:1046A000BE4F1696ED91FC9117973097A9F0609147
:1046B0006A0170916B0114962D913C911597260F0C
:1046C000371F11968D919C911297680F791F139641
:1046D0004C9113978C910995F801E45FFE4F63812B
:1046E000662351F020916A0130916B01848195819C
:1046F000820F931F0E94F0220E946F2280E18A9510
:10470000F1F759985198599A80E18A95F1F7F80193
:10471000E45FFE4F6081662351F020916A01309181
:104720006B0181819281820F931F0E94A1220E94BE
:1047300066220F90DF91CF91FF91EF91BF91AF91E2
:104740009F918F917F916F915F914F913F912F91A9
:104750001F910F910F900FBE0F901F9018950F9300
:104760001F93CF93DF938C0107970CF065C0F894EB
:10477000519A599885E08A95F1F70000C02FC695A7
:10478000C570802F8570C80F8C2F8370C695C69515
:1047900093E0000F111F9A95E1F7C80FC8018C2B09
:1047A000EC010E946F2200C068E08C2F0E94CD2295
:1047B00090E19A95F1F75198599A499B35C087E055
:1047C00090E0499933C0F801E45FFE4F63816623AE
:1047D00061F020916A0130916B0184819581820F93
:1047E000931F0E94A122882321F10E94662280E269
:1047F0008A95F1F75998519A90E19A95F1F7F80155
:10480000E45FFE4F6081662351F020916A01309190
:104810006B0181819281820F931F0E94F0220E947E
:104820006F22789481E009C000C0C7CF019700973C
:1048300049F4519A599A789480E0DF91CF911F9171
:104840000F91089500C0BDCF2F923F924F925F927B
:104850006F927F928F929F92AF92BF92CF92DF9290
:10486000EF92FF920F931F93CF93DF93CDB7DEB7F5
:10487000CA1BDB0B0FB6F894DEBF0FBECDBF099489
:104880002A88398848885F846E847D848C849B84E0
:10489000AA84B984C884DF80EE80FD800C811B81EE
:1048A000AA81B981CE0FD11D0FB6F894DEBF0FBE1D
:1048B000CDBFED01089597FB072E16F4009407D0A5
:1048C00077FD09D00E947C2407FC05D03EF490952A
:1048D00081959F4F0895709561957F4F0895EE0FD4
:1048E000FF1F0590F491E02D099469279627692709
:1048F0007827872778270895AA1BBB1B51E107C09B
:10490000AA1FBB1FA617B70710F0A61BB70B881F5F
:10491000991F5A95A9F780959095BC01CD010895EE
:10492000F999FECF92BD81BDF89A992780B5089577
:10493000A8E1B0E042E050E00C94D424DC01A40FE4
:10494000B51F4150504048F0CB01840F951F2E9168
:104950000E94AF2441505040D0F70895262FF99976
:10496000FECF92BD81BDF89A019700B4021639F0CE
:104970001FBA20BD0FB6F894FA9AF99A0FBE08959F
:104980000396272F0E94AF240E94AE24252F0E9459
:10499000AF24242F0C94AF240196272F0E94AF241C
:1049A0000C94AE24DC01CB01FC01F999FECF06C0CA
:1049B000F2BDE1BDF89A319600B40D9241505040DD
:1049C000B8F70895FB01DC0104C08D9101908019B6
:1049D00021F441505040C8F7881B990B0895FB0102
:1049E000DC0102C001900D9241505040D8F708956B
:1049F000F894FFCF8C078F079507AA07AA07AA0785
:104A0000AA07AA07AA07AA07AA0798079D07A10746
:104A1000A707B807BE07C207480E6E0E740E6E0ECB
:104A2000740EC70EE90E740EE50FF20F58145814E9
:104A3000921492142C154715BE14BE144C15BF15B4
:104A4000D015D015AE12B212A412AA12B612BA1212
:104A5000BE1214137F131C13E612EA122013EE1277
:104A600024133013FA127813FE123413021338137E
:104A7000601306133C1367130C1342134A13F2120C
:104A80002813F6122C1310134613561370137613B3
:104A9000E01218138613D71FDB1F1F20362041207A
:104AA0004C20E31FE31FE31FE31FE31F4F205220AF
:104AB000562078209A209D209F20C020E120EB20C6
:104AC0000101A708620AAA08790A800A0000000109
:104AD000000000000000000C0100000000000001C8
:104AE0000D000000000000080E00000000000000A3
:104AF0000000FB05041600000000000044227B4972
:104B0000012701AC009F01B801D801F6F73133321B
:104B10003690946697C63435939200FF01000100E9
:104B200000FFFF0000010001FF005102E200E90068
:104B3000EA00B500B600B700CD008301CC008A01C1
:104B40009201940121022302240225022602270257
:104B50002A02B300B4006F0070009F01CB019F02D6
:024B6000A002B1
:00000001FF
