:100000000C9488040C94A5040C94A5040C94A504E9
:100010000C94A5040C94A5040C94A5040C94A504BC
:100020000C94A5040C94A5040C94E8210C94C02213
:100030000C94D60E0C94A5040C94A5040C94A50461
:100040000C94A5040C94A5040C94A5040C94A5048C
:100050000C94A5040C94C4210C94A5040C94A50440
:100060000C94A5040C94A5040C94A5040C94A5046C
:100070000C94A5040C94A5040C94A5040C94A5045C
:100080000C94A5040C94A5040C94A5040C94A5044C
:100090000C94A5040C94A5040C94A5040C94A5043C
:1000A0000C94A5040C94A5040C94A5040501090264
:1000B000A10185020901A1000509190129081500FE
:1000C0002501950875018102050109300931158165
:1000D000257F95027508810609381581257F9501D0
:1000E00075088106050C0A38021581257F95017572
:1000F000088106C0C005010980A101850319012AF4
:10010000B700150126B700950175108100C0050CD8
:100110000901A101850419012AA002150126A002E6
:10012000950175108100C00660FF0961A101096297
:10013000150026FF00952075088102096315002629
:10014000FF00952075089102C005010906A101056F
:100150000719E029E7150025019508750181029529
:1001600001750881010507190029FF150026FF0008
:100170009506750881000508190129051500250156
:10018000950575019102950175039101C000AF00BD
:10019000AE07087F0807003E5B4F5B3E003E6B4F9B
:1001A0006B3E001C3E7C3E1C00183C7E3C18001C34
:1001B000577D571C001C5E7F5E1C0000183C180019
:1001C00000FFE7C3E7FF00001824180000FFE7DB8B
:1001D000E7FF0030483A060E00262979292600401C
:1001E0007F05050700407F05253F005A3CE73C5A44
:1001F000007F3E1C1C0800081C1C3E7F0014227F50
:100200002214005F5F005F5F0006097F017F00002E
:100210006689956A0060606060600094A2FFA294A5
:100220000008047E04080010207E20100008082A20
:100230001C0800081C2A0808001E10101010000CD2
:100240001E0C1E0C0030383E383000060E3E0E06E6
:100250000000000000000000005F00000000070038
:10026000070000147F147F1400242A7F2A12002321
:100270001308646200364956205000000807030046
:1002800000001C224100000041221C00002A1C7FAB
:100290001C2A0008083E0808000080703000000892
:1002A0000808080800000060600000201008040230
:1002B000003E5149453E0000427F400000724949DE
:1002C0004946002141494D33001814127F10002780
:1002D00045454539003C4A4949310041211109074A
:1002E00000364949493600464949291E0000001494
:1002F00000000000403400000000081422410014F7
:1003000014141414000041221408000201590906B3
:10031000003E415D594E007C1211127C007F49491C
:100320004936003E41414122007F4141413E007F2C
:1003300049494941007F09090901003E4141517382
:10034000007F0808087F0000417F410000204041F5
:100350003F01007F08142241007F40404040007F61
:10036000021C027F007F0408107F003E4141413E95
:10037000007F09090906003E4151215E007F0919ED
:1003800029460026494949320003017F0103003F05
:100390004040403F001F2040201F003F4038403F6A
:1003A00000631408146300030478040300615949CE
:1003B0004D4300007F41414100020408102000002D
:1003C0004141417F0004020102040040404040409E
:1003D000000003070800002054547840007F2844A0
:1003E000443800384444442800384444287F0038C6
:1003F000545454180000087E09020018A4A49C78E4
:10040000007F080404780000447D40000020404044
:100410003D00007F102844000000417F4000007C28
:1004200004780478007C0804047800384444443894
:1004300000FC182424180018242418FC007C08044C
:1004400004080048545454240004043F4424003C4D
:100450004040207C001C2040201C003C4030403CA0
:10046000004428102844004C9090907C0044645430
:100470004C440000083641000000007700000000F6
:1004800041360800000201020402003C2623263CFB
:1004900000000000000000404040F0F8F8FF38FF86
:1004A000F8F83FF8F8FF38FFF8F8F0404040000057
:1004B0000000000080C0C0C0800000C0C0800000FC
:1004C0000080C0C000C0C0000080C0C000000000AC
:1004D00000C0C0C0C0C000C0C000000000000000DC
:1004E000000000000000000000000000000000000C
:1004F00000000000000000000000000000000000FC
:1005000000000000000000000000000000000000EB
:10051000C0F0F8FC3E1E06010000007F4141417F13
:10052000007F4141417F000080C0E07E5B4F5BFE69
:10053000C00000C000DCD7DEDEDED7DC00C000007B
:1005400000000000000000000000000000000000AB
:1005500000000000000000494949FFFFFFFFE0DF05
:10056000BFBF00BFBFDFE0FFFFFFFF4949490000F9
:100570000000001F3F6060E0BF1F007F7F071E3844
:100580001E077F7F007F7F0E1F3B71600000000011
:10059000007F7F0C0C0C007E7E007F7E0303007FBB
:1005A0007E03037E7E03037F7E000F3E703C063C8D
:1005B000703E0F00327B49493F7E007F7E0303007F
:1005C0001E3F69696F260000000000000000000067
:1005D000030F1F3F3C7870600000007F4141417F66
:1005E000007F4141417F00307B7F78302020307890
:1005F0007F3B0003000F7F0F0F0F7F0F00030000F2
:1006000000000000000000000000000000000000EA
:1006100000000000000000010101070F0F7F0F7FA5
:100620000F0F7E0F0F7F0F7F0F0F070101010000DB
:1006300000000000000000000101000000000000B8
:1006400000000000000000000000000000000000AA
:10065000000000000000000000000000000000009A
:10066000000000000000000000000000000000008A
:10067000000000000000000000000000000000007A
:10068000000000000000000000000000000000006A
:10069000000000000000000000000000000000005A
:1006A000000000000000000000000000000000004A
:1006B000000000000000000000000000000000003A
:1006C000000000000000000000000000000000002A
:1006D0000009025B00030100A0FA09040000010305
:1006E00001010009211101000122440007058103D5
:1006F00008000109040100020300000009211101A2
:1007000000012222000705820320000107050303E0
:100710002000010904020001030000000921110169
:100720000001227B00070584032000011201000262
:10073000000000084441060000010102000114030A
:1007400069006E0073006900670068007400310082
:1007500030000000100361006C0065006B00740045
:100760006F007200000004030904095201523A00AC
:100770003B003C003D003E003F0040004100005275
:10078000025201000100010001000100010001000E
:1007900001000152035201000100010001000100AB
:1007A0000100010001000252045201000100010099
:1007B0000100010001000100010003520552010087
:1007C00001000100010001000100010001000452CC
:1007D00006520100010001000100010001000100BA
:1007E0000100055207520100010001000100010053
:1007F0000100010001000652085201000100010041
:10080000010001000100010001000752095201002E
:100810000100010001000100010001000100085277
:10082000005201000100010001000100010001006F
:10083000010000DA0281FFD9F1DB20A4A62EAF006F
:10084000A0C0D30000A1C8D30000AED580A81F402F
:100850008D142000200020004C617965723A200040
:100860000000000000000000000000000000000088
:100870000000000000000000000000000000000078
:10088000000000007E0F00D4FFFFFFC700000078CB
:1008900000000000000000002A2B280000000000DB
:1008A000000000000000000000000029000000001F
:1008B0002C1E3420212224342627252E362D37388D
:1008C000271E1F202122232425263333362E373896
:1008D0001F0405060708090A0B0C0D0E0F10111254
:1008E000131415161718191A1B1C1D2F3130232D20
:1008F000350405060708090A0B0C0D0E0F1011121E
:10090000131415161718191A1B1C1D2F3130354CCE
:1009100011241FBECFEFDAE0DEBFCDBF13E0A0E0B1
:10092000B1E0E2EDF2E502C005900D92A234B1070C
:10093000D9F726E0A2E4B3E001C01D92A032B207CD
:10094000E1F70E94041C0C94FD270C9400009C010C
:10095000892F99270097E9F09C0188E0A90174E0AC
:10096000569547957A95E1F74115510511F08C5F41
:100970009A01A901569547955695479541155105F8
:1009800011F08E5F9A0136952795232B09F08F5F22
:10099000089580E0E3CF90931506809314060895A0
:1009A0009093170680931606089521E030E002C068
:1009B000220F331F8A95E2F7809116069091170651
:1009C000822B932B0E94D004089521E030E002C0D6
:1009D000220F331F8A95E2F72095309580911606F5
:1009E00090911706822393230E94D00408959111B9
:1009F0002EC08A3060F5982F977041E001C0440FF7
:100A00009A95EAF7E82FF0E083E0F695E7958A9566
:100A1000E1F7EE0FFF1FEE0FFF1FE350FA4F20E04C
:100A200030E070E05191DF011197CB01022E02C03E
:100A3000969587950A94E2F781708195852784239E
:100A400085278C932F5F3F4F2430310559F7089548
:100A5000E82F892F911128C0EA3038F59E2F977022
:100A6000F0E023E0F695E7952A95E1F7EE0FFF1FFA
:100A7000EE0FFF1FE350FA4F40E050E0219130E0CD
:100A8000092E02C0369527950A94E2F72170332784
:100A9000042E01C0220F0A94EAF7822B4F5F5F4FAA
:100AA0004430510559F7089580E00895E091160605
:100AB000F091170621E030E0D90102C0AA0FBB1F58
:100AC0008A95E2F7CD01D90102C0AA0FBB1F6A9532
:100AD000E2F78A2B9B2B02C0220F331F4A95E2F7C5
:100AE000AF01482359238417950731F4CF01822B96
:100AF000932B0E94D004089520953095C9018E2330
:100B00009F23F7CF8091F5059091BC05981301C004
:100B100008958F5F8770FACF90911806809589238A
:100B200080931806282F277021110DC0891759F0BE
:100B300090911A0692FF07C08695869586950E9429
:100B4000E504109218060895982F9095809111064B
:100B50008923809311060895803E9105D1F1C8F450
:100B60008133910509F47FC048F48932910509F475
:100B70006FC08A32910509F47DC0089589339105CB
:100B8000E1F082389105C9F08533910509F45BC025
:100B90000895843E9105D1F148F4823E910531F1EA
:100BA000833E910541F181EE90E00895863E9105E6
:100BB000C1F1873E9105E1F1089520911906237056
:100BC000211165C020911A0623FF14C089E290E02C
:100BD00008952091190620FD43C030911A0630FF78
:100BE00009C024FF4EC080E090E0089520911906CE
:100BF00022FDF7CF08952091190622FD45C03091BE
:100C00001A0630FD44C024FFF5CFEDCF20911A061F
:100C100021FFF0CF8091190684FDE5CF87EE90E0AB
:100C200008952091190623FFE5CF24FDDCCFF6CFF0
:100C30002091190623FD2EC030911A0631FFE3CF13
:100C400084EE90E008952091190625FFD3CFBECF02
:100C50002091190625FD21C020911A0623FFCACF35
:100C600089E390E008952091190626FFC3CF8AE218
:100C700090E008952091190626FFBCCF81E390E013
:100C8000089583EE90E0089582EE90E0089580EE5E
:100C900090E0089586EE90E0089585E390E0AACF75
:100CA0009091190692FF10C041E0282F2471243042
:100CB00009F040E031E0282F2871283009F030E0B9
:100CC000431711F02CE0822793FF10C041E0282F3A
:100CD0002471243109F040E031E0282F28712831B7
:100CE00009F030E0431711F02CE0822730911A060A
:100CF00030FF10C051E0282F2171213009F050E061
:100D000041E0282F2871283009F040E0541711F0F5
:100D100029E0822731FF10C041E0282F21712131C5
:100D200009F040E031E0282F2871283109F030E047
:100D3000431711F029E0822794FD877E08951F93C1
:100D4000CF93DF930E94AC05EC01811522E5920759
:100D500008F053C0811540E5940708F0DDC0803EDF
:100D60009105F8F48D3C910508F0AEC0883A9105E4
:100D700080F4853A910508F099C08130910521F001
:100D80000497813A910550F4CE01DF91CF911F91E4
:100D90000895885A91094B9708F48BC0C0E0D0E0C1
:100DA000F3CF811550E49507F8F4C11580E2D80718
:100DB00008F0CBC0C83ED10538F3CE019A95811515
:100DC0009F4160F78D2F0E945006182FCE01992762
:100DD0000E94AC05212F30E0322F2227E901CC27D9
:100DE000DF71C82BD92BD0CF99270E94AC05CC2717
:100DF000DF70C82BD92BD06AC7CF803842E5940763
:100E0000C8F5803652E5950708F067C0C03482E522
:100E1000D807B0F08C2F86958695877020E2829F48
:100E2000C0011124C37021E030E0A90102C0440FC9
:100E3000551FCA95E2F7EA01C82BD92BDC68A4CF6D
:100E4000C03252E5D50708F041C08C2F86958695B3
:100E500020E2829FC0011124C37021E030E0A9018B
:100E600002C0440F551FCA95E2F7EA01C82BD92BDF
:100E7000DD688ACF803C52E5950760F48F71C03AF7
:100E8000D24508F03FC090E0982F8827EC01C46F4E
:100E9000D06A7ACF805C9245809708F07FCFDC2FB4
:100EA000CC27CC27DF71C06FD06A6ECFA497D064F7
:100EB0006BCFC85AD0E0CC0FDD1FC45FDC4F099068
:100EC000D881C02DD46460CFD0655ECFCF71D0E023
:100ED000DC2FCC27C16FD06A57CF86958695877057
:100EE00020E2829FC0011124C37021E030E0A901FB
:100EF00002C0440F551FCA95E2F7EA01C82BD92B4F
:100F0000DA6842CF0E945006C82FD0E0DC2FCC27F1
:100F1000CC27DF71D06238CF8F710E94500665E018
:100F2000D695C7956A95E1F7CF70D0E0DC2FCC2736
:100F3000282F30E084FF05C054E0220F331F5A955C
:100F4000E1F7C22BD32BD0691FCF8D2F8F710E9459
:100F50005006182FCE0199270E94AC05212F30E0B2
:100F6000322F222722273F71282B392BE901D2CF9C
:100F700080E00895282F35EB2303C001112497FF4B
:100F800004C080589109892F089580589F4FFBCF46
:100F90008091070680FD14C081FD14C082FD16C03B
:100FA00080910606882381F08E3180F420E5829FAF
:100FB000C00111246EE170E00E94D524862F0895AF
:100FC00084E1089588E2089588E0089580E5089511
:100FD0008091070680FD17C081FD17C082FD19C0F2
:100FE00080910506882399F0883298F428E0829F42
:100FF000C001112468E270E00E94D52461157105DA
:1010000051F0862F089562E0FCCF64E0FACF61E0F2
:10101000F8CF68E0F6CF81E00895E091B205F09155
:10102000B305309729F00190F081E02D09950895DE
:1010300080E00895A3E0B0E0E0E2F8E00C94A224A0
:101040009C01809172039091730382179307A1F022
:101050003093730320937203E091B205F091B305CE
:10106000309751F083E089833B832A830084F185A4
:10107000E02DCE01019609952396E2E00C94BE2462
:10108000A3E0B0E0E6E4F8E00C94A2249C01809197
:1010900070039091710382179307A1F0309371034D
:1010A00020937003E091B205F091B305309751F0B1
:1010B00084E089833B832A830084F185E02DCE017F
:1010C000019609952396E2E00C94BE249C01FC0154
:1010D00032968FEF90E04191461751F08F3F19F40F
:1010E000411101C0892F9F5F9630A9F78F3F09F406
:1010F0000895280F311D87FD3A95F90162830895FF
:101100009C01FC013296285F3F4F8191861303C0FA
:10111000DF0111971C92E217F307B9F70895A4E0D5
:10112000B0E0E5E9F8E00C94A2248FB7F8942091A0
:101130006C0330916D0340916E0350916F032983CE
:101140003A834B835C838FBF69817A818B819C81D9
:101150002496E2E00C94BE2487E797E79093010879
:101160008093000888E19AE00FB6F894A8958093E0
:1011700060000FBE90936000FFCF80916B030895D5
:101180000895FC019B018091610390916203861791
:10119000970740F0672B29F48091E8008E778093C1
:1011A000E800C90140E0009741F4411106C0809178
:1011B000E80082FF2FC080E008952091AF05222330
:1011C000A9F12530A9F12091E80023FD2DC020913F
:1011D000E80022FDECCF2091E80020FFE4CF309121
:1011E000F3002091F200009719F02830310558F0F3
:1011F00041E02830310509F040E02091E8002E77E9
:101200002093E800D0CF41914093F10001972F5FE8
:101210003F4FE9CF8091AF05882341F0853041F001
:101220008091E80083FFC3CF81E0089582E00895B4
:1012300083E0089580915B0387FF13C08091E800ED
:1012400082FF06C08091E8008B778093E80004C09D
:101250008091AF058111F2CF08958091AF05882369
:10126000D9F38091E80080FFF8CF8091E8008E7775
:10127000ECCF2091E4003091E50095E6A901809142
:10128000EC008170882331F08091E80080FF06C077
:1012900080E008952091E80022FD1BC08091AF05F9
:1012A000882391F0853091F08091EB0085FD10C08E
:1012B0002091E4003091E5004217530701F391506B
:1012C0009111DCCF84E0089582E0089583E00895D1
:1012D00081E00895E8EDF0E080818E7F80831092B8
:1012E000E2001092DA001092E100A0EEB0E08C91E2
:1012F00081608C9380818F77808319BCA7EDB0E0EB
:101300008C918E7F8C9380818F7E808310925A0384
:101310000895982FE42FE2709093E900891308C094
:10132000762F242F50E0E11111C091E0980FF4CFF7
:101330007091EC002091ED005091F00021FD06C06D
:101340009F5F973049F78093E90008953091EB0053
:101350003E7F3093EB003091ED003D7F3093ED0008
:101360003091EB0031603093EB007093EC002093F0
:10137000ED005093F0002091EE0027FDE1CF08959D
:10138000A0E0B0E0E6ECF9E00C949C24C8EDD0E0DD
:1013900088818F7E8883E7EDF0E0808181608083A3
:1013A00084E082BF81E080935A0388818E7F8883A6
:1013B00002EE10E0F80110821092DA0081EEC82EE1
:1013C000D12CF601108288818F778883888180688C
:1013D000888388818F7D888319BC1092AF05109215
:1013E0005903109277031092580390EEE92EF12CD6
:1013F000F70180818B7F808388818160888342E0D0
:1014000060E080E00E948909F60180818E7F808300
:10141000F801808181608083808188608083F7010A
:1014200080818E7F8083888180618883CDB7DEB79D
:10143000E8E00C94B824E091F5059091BC0527E014
:10144000E91302C080E00895AE2FB0E02E9FF001B6
:101450001124E354FA4F3181361306C0308138131A
:1014600003C03581341304C0FD013196E770E8CF25
:1014700081E008959C01273081E0380780F4211530
:101480003105E1F0F9013197E63091E0F907B0F468
:10149000E150F84D0C94E92482E191E008952B315C
:1014A00081E0380709F432C1293198E0390709F49D
:1014B00030C1293181E0380709F42BC13F932F93C4
:1014C00083EE92E09F938F931F9285E08F938BE141
:1014D00096E09F938F930E940C258DB79EB7089638
:1014E0000FB6F8949EBF0FBE8DBF8BE196E00895B6
:1014F00087E191E008958CE191E0089581E291E027
:10150000089586E291E008958BE291E0089580E3EA
:1015100091E0089585E391E008958AE391E00895CC
:101520008FE391E0089584E491E0089589E491E0E7
:1015300008958EE491E0089583E591E0089588E5AB
:1015400091E008958DE591E0089582E691E0089597
:1015500087E691E008958CE691E0089581E791E0B7
:10156000089586E791E008958BE791E0089580E87B
:1015700091E0089585E891E008958AE891E0089562
:101580008FE891E0089584E991E0089589E991E078
:1015900008958EE991E0089583EA91E0089588EA3C
:1015A00091E008958DEA91E0089582EB91E008952D
:1015B00087EB91E008958CEB91E0089581EC91E048
:1015C000089586EC91E008958BEC91E0089580ED0C
:1015D00091E0089585ED91E008958AED91E00895F8
:1015E0008FED91E0089584EE91E0089589EE91E009
:1015F00008958EEE91E0089583EF91E0089588EFCD
:1016000091E008958DEF91E0089582E092E00895D1
:1016100087E092E008958CE092E0089581E192E005
:10162000089586E192E008958BE192E0089580E2CA
:1016300092E0089585E292E008958AE292E00895AA
:101640008FE292E0089584E392E0089589E392E0C6
:1016500008958EE392E0089583E492E0089588E48B
:1016600092E008958DE492E0089582E592E0089575
:1016700087E592E008958CE592E0089581E692E096
:10168000089586E692E008958BE692E0089580E75B
:1016900092E0089585E792E008958AE792E0089540
:1016A0008FE792E0089584E892E0089589E892E057
:1016B00008958EE892E0089583E992E0089588E91C
:1016C00092E008958DE992E0089582EA92E008950B
:1016D00087EA92E008958CEA92E0089581EB92E027
:1016E000089586EB92E008958BEB92E0089580ECEC
:1016F00092E0089585EC92E008958AEC92E00895D6
:1017000084ED92E008958EED92E008958FEC92E0E2
:10171000089589ED92E008950F931F93CF93DF937F
:10172000EB018A019091AF05943079F58093E9003F
:101730008FEF9091E80095FD07C095ED9A95F1F730
:10174000000081508111F5CF8091E80085FF1DC018
:101750000E943909811114C08091E80085FD06C0FE
:101760008091E8008E778093E800F2CF88818093A3
:10177000F100015011090115110511F02196ECCF6E
:101780008091E8008E778093E800DF91CF911F91E0
:101790000F910895CF93DF93D82FC92F48E050E0E1
:1017A000682F792F81E00E948C0B88E0ED2FFC2FB1
:1017B000A3E6B3E001900D928A95E1F7DF91CF9116
:1017C0000895BC0146E050E084E00E948C0B08952F
:1017D000BC0143E050E084E00E948C0B089590919E
:1017E0001A0692FB222720F9281779F080FB92F93C
:1017F00090931A066091190670911A0684E090E0A1
:101800000E94E72782E00E948C0508951F93CF93E2
:10181000DF93962F122F632F8A30B0F4911114C0EA
:101820004A3090F4C42FD0E0CC0FDD1F94E1899FA3
:10183000C00DD11D1124CE0188960E94C927612FA9
:10184000CE0189960E94C927DF91CF911F910895FB
:10185000EF92FF920F931F93CF93DF938AE6E82EC8
:1018600087E0F82ED0E08701C0E0F801259134919F
:101870004C2F60E08D2F0E94060C0E5F1F4FCF5F34
:10188000CA3099F784E1E80EF11CDF5FDA3059F7CE
:10189000CDB7DEB7E6E00C94BA24CF93DF93C0EF68
:1018A000D0E060E0CE010E94C9272196C11584E0F6
:1018B000D807B9F7DF91CF910895882381F064E2CA
:1018C00084E290E00E94C92761E185E290E00E94F5
:1018D000C92766E086E290E00E94C92708956FEF6D
:1018E00084E290E00E94C9276FEF85E290E00E94B9
:1018F000C9276FEFEFCF80E00E945D0C60E087E2C8
:1019000090E00E94C9270E94280C0E944D0C81E0A3
:101910000E945D0C08950F931F93CF93DF938A303D
:1019200008F561111FC04A30E8F4C42FD0E0CC0F95
:10193000DD1F24E1829FC00DD11D1124CE018896A8
:101940000E94AB27082F10E0102F0027CE018996A8
:101950000E94AB279801282BC901DF91CF911F91DD
:101960000F91089580E090E0F8CF462F711108C0E4
:101970006A3030F48A3020F460E00E948B0C0895C5
:1019800080E090E00895A0E0B0E0E9ECFCE00C9489
:101990009B248C01E0901606F090170680911406A7
:1019A00090911506E82AF92AC9E0D0E0CC24C39426
:1019B000D12CC6010C2E02C0880F991F0A94E2F7A1
:1019C0008E219F21892B49F4219798F7B12C8B2DDB
:1019D000CDB7DEB7E9E00C94B724BC2EB8018C2F4C
:1019E0000E94B50C0E949F06019771F3F0CF0F93F0
:1019F0001F93CF93FC01858100811181882391F091
:101A0000662381F0C8010E94C30CC82F682FC8014B
:101A10000E94F704B8018C2F0E94B50CCF911F9142
:101A20000F910895C8010E942805C82FF3CFCF93C6
:101A3000DF93D82FC92F0E94C30C6D2F7C2F0E94DB
:101A4000B50C0E949F06DF91CF910895FC0184811F
:101A50008823A1F0808191810E94170D282F9295F3
:101A60009F70963091F060F4925F9F70923030F4E6
:101A700081E0203F79F030F4283E30F080E004C06F
:101A80009A5FF3CF243FD1F7089581E0283E18F004
:101A9000213FF9CF0895089584E290E00E94AB279A
:101AA000843289F485E290E00E94AB27813159F4B9
:101AB00086E290E00E94AB2791E0863009F090E04A
:101AC000892F8170089580E0FCCF8091110690915C
:101AD0001006892B40911206442389F090E026E4F9
:101AE00033E0F90150812F5F3F4F51119F5F53E069
:101AF0002C343507B1F7911110921206842B809384
:101B0000440348E050E064EB75E084E493E00E9415
:101B1000FF24892BA9F088E0E4E4F3E0A4EBB5E02E
:101B200001900D928A95E1F7E091B205F091B3052D
:101B3000309731F00280F381E02D84E493E0099541
:101B40000895882339F090911106892B809311060E
:101B50000E94650D0895882321F00E94A4050E942B
:101B6000650D0895AB0124E630E0BC0188E70E94D2
:101B7000DF239C0181E0232B09F080E00895809110
:101B8000A705882369F08091A605882349F062E0C3
:101B900070E08FE891E00E94B20D81111092A605CD
:101BA0000895A4E0B0E0E7EDFDE00C94A22480915C
:101BB000A7058823F9F00E948F08DC01CB01805A29
:101BC0009541AF4FBF4F8093A2059093A305A0937B
:101BD000A405B093A5058091A60581110BC062E014
:101BE00070E08DE891E00E94B20D882319F081E049
:101BF0008093A6052496E2E00C94BE24CF93DF9355
:101C0000682F81E06A3019F06D3031F480E00E9475
:101C10007E0EDF91CF91089580917B0390917C039C
:101C200026E0FC01A1E5B3E001900D922A95E1F7D1
:101C3000603E08F458C026E0FC0111922A95E9F7AD
:101C4000C0917B03D0917C0346E050E0BE0181E56A
:101C500093E00E94FF249E012E593340892B41F1CD
:101C6000C90145E0969587954A95E1F741E050E036
:101C7000BA0102C0660F771F8A95E2F7CB01609127
:101C8000A0057091A105862B972BB9016B5F7F4F43
:101C9000E5E076956795EA95E1F702C0440F551F98
:101CA0006A95E2F7842B952B9093A1058093A0056C
:101CB0002A5F3F4F40917D03642F70E0C9010E946D
:101CC0007E24481B463010F4240F311D211572E08C
:101CD000370710F020E030E022563C4F30937C0371
:101CE00020937B0396CFF6E06F9FB00111246F56CF
:101CF0007E4F46E050E00E94F624A2CFCF93382FCB
:101D0000E0917B03F0917C03EE59F34020917D0339
:101D1000622F70E0CF010E947E24281B822F332384
:101D200061F066E00E94C924C82FC15010F4CF9121
:101D3000089580E20E94FE0DF8CF9F01280F311D0B
:101D40002115324018F080E0E0E0F0E08E0F9F2F88
:101D5000911D82569C4F90937C0380937B03E7CF29
:101D6000CF93DF93EC01FE018491811103C0DF91D9
:101D7000CF9108950E94FE0D2196F5CF0F931F93EA
:101D8000CF93DF93EC01FC0101900020E9F78F0174
:101D900001501109C017D10728F0DF91CF911F9191
:101DA0000F91089589910E94FE0DF4CF1F921FB6E6
:101DB0001F9211248F939F93AF93BF9380917603CB
:101DC000811113C080916C0390916D03A0916E03FB
:101DD000B0916F034196A11DB11D80936C03909348
:101DE0006D03A0936E03B0936F03BF91AF919F916A
:101DF0008F911F901FBE1F9018952FB7F894809158
:101E00006C0390916D03A0916E03B0916F032FBF8F
:101E100008950E94FD0E20910A0630910B06232B97
:101E2000222321F08093AA059093AB0520910C0604
:101E300030910D06232B222321F08093A805909347
:101E4000A905E091B205F091B305309749F082E021
:101E5000809308060680F781E02D88E096E00995DA
:101E6000089520910A0690910D0630910C06662384
:101E700009F45AC040910B06242B292B232B222333
:101E800031F098E09093060691E0909305068D3C22
:101E900041F40E94C807819580930B060E94090FA8
:101EA0000895E2E3E80FE231C8F7F0E0EB5FF64DAA
:101EB0000C94E9240E94C807EFCF0E94C8078195BF
:101EC00080930A06EBCF0E94C807FACF0E94E8076A
:101ED00080930C06E3CF0E94E8078195F9CF0E941A
:101EE000E807819580930D06D9CF0E94E807FACFC5
:101EF000815D990B21E030E001C0220F8A95EAF75D
:101F000080910906822B80930906C8CF809107062D
:101F1000816080930706C2CF809107068260F9CF67
:101F2000809107068460F5CF8D3C59F480910B06B3
:101F300087FF0DC010920B06222359F4109206065B
:101F400008C08E3C81F480910B0618169CF3222366
:101F500081F080910C0690910D06892B81119ECF06
:101F6000109205069BCF8F3C41F427FFF0CF1092D3
:101F70000A0680910B068823E0CF803D19F41216E3
:101F8000B4F3E5CF893D29F413160CF710920C0633
:101F9000DECF8A3D19F437FFDACFF8CF8B3D29F435
:101FA00097FFD5CF10920D06D2CF8C3D19F419169C
:101FB000CCF3CDCF9FE2980F983090F4815D990BD0
:101FC00041E050E0BA0102C0660F771F8A95E2F740
:101FD000CB01809590910906892380930906B7CF9C
:101FE0008D3D31F4809107068E7F80930706AFCF39
:101FF0008E3D21F4809107068D7FF7CF8F3D09F04C
:10200000A6CF809107068B7FF0CFCF93C82F882370
:10201000A9F08CEF8C0F813A98F4E6E4F3E081911B
:10202000C81709F440C023E0EC34F207C1F76C2F65
:1020300084E493E00E9466080E94650DCF910895A4
:1020400080E28C0F883068F4C77021E030E001C076
:10205000220FCA95EAF780911106822B8093110610
:10206000EBCF8BE58C0F833038F42C2F2452330BBD
:10207000C9010E941A08E2CFE8E5EC0FEB3150F4F9
:10208000F0E0EE0FFF1FE45FFC4F808191810E9422
:102090004008D4CF83E38C0F833180F661E08C2F2E
:1020A0000E94310FCBCF6C2F84E493E00E94800814
:1020B0000E94650DBCCF882399F19CEF980F913A4F
:1020C00040F4682F84E493E00E9480080E94650D2C
:1020D000089590E2980F983050F4877091E001C015
:1020E000990F8A95EAF7892F0E94A405EFCF9BE507
:1020F000980F933028F480E090E00E941A08089529
:1021000098E5980F9B3128F480E090E00E94400809
:10211000089593E3980F933118F460E00E94310F13
:1021200008951F93CF93DF93182FEB010E940510A2
:10213000209739F4812F0E945B10DF91CF911F917E
:1021400008958FE99FE00197F1F700C00000219703
:10215000EFCFCF9310921106C6E0E6E4F3E0DF0183
:102160008C2F1D928A95E9F780E090E00E941A0872
:1021700080E090E00E944008109210060E94650DD9
:10218000E8E0F6E0DF011D92CA95E9F71092060635
:1021900010920506109207060E94090FCF9108952C
:1021A0000E94A9102FEF84E39CE0215080409040D2
:1021B000E1F700C0000088E19AE00FB6F894A89516
:1021C000809360000FBE90936000FFCFAAE2B0E062
:1021D000ECEEF0E10C94A1248BE593E0FC01019678
:1021E0002091F100208323E083369207B9F7809194
:1021F0005C03893009F456C0C8F4823009F4B3C0D6
:10220000833009F482C0813071F18091E80083FF4E
:10221000E7C080915B0390915C039A3008F0E0C0C6
:10222000E92FF0E0E95EF64D0C94E9248A3009F4D8
:1022300089C08B3051F780915B03813231F78091F7
:102240005F0390916003892B01F78091E800877FFD
:102250008093E8000E941A0980915D038093000139
:102260000E94A910D2CF80915B03813A71F68091D0
:10227000E800877F8093E80080915F03909160037E
:10228000892B61F060E080E090E070E00E94C1087E
:102290008091E8008B778093E800B7CF68E083E611
:1022A00093E0F3CF80915B03813209F0AECF809150
:1022B0005F03909160038D7F892B09F0A6CF8091F9
:1022C000E800877F8093E8008091E80082FF18C0D3
:1022D0009091F3008091F200029731F48091F10027
:1022E000813011F0863021F48091F10080936B03EE
:1022F0008091E8008B778093E8000E941A0985CFCF
:102300008091AF058111E0CF80CF80915B03813A4E
:1023100009F07BCF80915F0390916003892B09F0D6
:1023200074CF8091E800877F8093E8008091E80077
:1023300080FFFCCF809100018093F1008091E80044
:102340008E77D9CF80915B03813209F05ECF809187
:10235000E800877F8093E8000E941A0980915E035D
:102360008093570352CF80915B03813A09F04DCFA0
:102370008091E800877F8093E8008091E80080FFEB
:10238000FCCF80915703D8CF803889F0823841F54F
:1023900080915F038F70873018F58093E9008091FA
:1023A000EB0085FB882780F91092E90006C0809138
:1023B000580390917703911182609091E800977F84
:1023C0009093E8008093F1001092F1008091E80072
:1023D0008E7723C0811116C080915D03813011F189
:1023E0008091E80083FF0AC08091E800877F809396
:1023F000E8008091EB0080628093EB00AA96E3E016
:102400000C94BD24823061F780915D03882389F0AC
:102410001092E9008091E800877F8093E8000E9495
:102420001A09DECF81E0933009F080E080937703D2
:10243000EFCF80915F038F702FEF280F263080F64B
:102440008093E9002091EB0020FFE2CF933031F43C
:102450008091EB0080628093EB00DACF9091EB00EB
:1024600090619093EB0021E030E0A90102C0440F9D
:10247000551F8A95E2F74093EA001092EA00809196
:10248000EB008860E8CF8111ABCF10915D031F771F
:102490008091E3008078812B8093E3008091E800B5
:1024A000877F8093E8000E941A098091E80080FFEE
:1024B000FCCF8091E30080688093E30083E01111FA
:1024C00001C082E08093AF058BCF8058823008F046
:1024D00087CF40915D0350915E034C3D83E05807E8
:1024E00099F583E08A838AE289834FB7F894DE0105
:1024F000139620E03EE051E2E32FF0E050935700C6
:10250000849120FF03C082958F703F5F8F708A3067
:10251000C8F0895C90E08D939D932F5F243161F723
:102520004FBF8091E800877F8093E8006AE270E007
:10253000CE0101960E94C1088091E8008B778093BC
:10254000E8004ECF805DE6CF80915F0390916003FD
:10255000252F33272330310509F44AC078F521307F
:10256000310509F479C08BE590E0E1EDF6E0223029
:10257000310509F035CF2091E800277F2093E8004E
:1025800020916103309162038217930708F49C0144
:1025900040E02115310509F064C0411162C080910D
:1025A000E80082FDC9CF8091AF05882329F28530EC
:1025B00019F28091E80083FFF2CFBECF21323105BE
:1025C00009F43BC02232310509F00ACF833091056E
:1025D00008F006CFFC01EE0FFF1FE251FD4F019006
:1025E000F081E02D85519D4FDC018C9190E011C070
:1025F000CA019927413089F082309105B1F0892BC9
:1026000009F0EECEE6E6F7E0E4918E2F90E0E6E604
:10261000F7E0009709F4E4CEAECFE4E5F7E0E4910B
:102620008E2F90E0E4E5F7E0F4CFEEE3F7E0E491FD
:102630008E2F90E0EEE3F7E0ECCF8330910508F0C9
:10264000CFCEFC01EE0FFF1FEC50FD4F0190F0814B
:10265000E02D89E090E08FCF82E190E0ECE2F7E0BE
:102660008ACF8091AF05882309F466CF853009F4BD
:1026700063CF8091E80083FD5FCF8091E80082FD09
:102680008ECF8091E80080FF84CF9091F3008091FD
:10269000F2002115310519F08830910550F041E024
:1026A000089709F040E08091E8008E778093E80079
:1026B00070CF44914093F100319621503109019639
:1026C000E8CF803809F08CCE8091E800877F809336
:1026D000E800809159038093F10078CE811180CE7B
:1026E00010915D03123008F07BCE8091E800877F67
:1026F0008093E800109359030E941A091123D1F026
:1027000084E08093AF0542E061EC81E00E9489099A
:1027100042E261EC84E00E94890942E261EC82E0DD
:102720000E94890942E260EC83E00E94890980915D
:10273000AF0556CE8091E30087FDE2CF81E0E1CF87
:102740009C014FB7F89480916C0390916D03A09118
:102750006E03B0916F034FBF821B930B08950F93CD
:102760001F93CF93DF93C62FD42F122F8823A9F066
:1027700060930E060E94FD0E9093500380934F03CA
:10278000C77081E001C0880FCA95EAF70E94A10DC9
:10279000DF91CF911F910F91089580910E066813DC
:1027A00036C080914F03909150030E94A013883C43
:1027B000910568F5CD130EC060E070E0812F0E9496
:1027C0009110D77081E001C0880FDA95EAF70E9476
:1027D000AB0DDECFC77001E0802F01C0880FCA9516
:1027E000EAF70E94AB0D80E28D0F883050F48D2FF8
:1027F000877001C0000F8A95EAF7802F0E94A10D13
:10280000DBCF60E070E0812F0E949110C1CFC770D4
:1028100081E001C0880FCA95EAF7D9CFA8E0B0E0FF
:10282000E4E1F4E10C9495246C01DC0114968C91A4
:10283000882309F4B3C061E0C6010E94F70C8C0143
:10284000F6018581882309F416C598013757203889
:10285000310508F01BC5003108F08FC08FEF93E001
:102860000E94AB27811189C040EFE42EF12C0111A9
:1028700053C01A821982FE01339686E0DF011D9251
:102880008A95E9F75701BFEFAB1ABB0AC7010E944F
:10289000AB2789831A82882309F46FC0813009F03D
:1028A00081C087010E5F1F4FC5010E94AB278A833D
:1028B000882309F462C09FEF980F9330E0F5E3E0BE
:1028C000EE0EF11CC8010E94AB278B83882309F40C
:1028D00054C01C828E010F5F1F4FD8018C9188233A
:1028E00089F2813009F0A1C011968C911197813045
:1028F00009F05AC05801B2E0AB0EB11CF801828158
:1029000060E070E0893311F460E570E00E9491109E
:1029100085010F5F1F4FE1CFE114F4E0FF0669F17D
:10292000C7010E94AB2797012F5F3F4F79018111AB
:10293000F3CF01509CCF8430B9F432E0E32EF12C78
:10294000C8010F5F1F4F0E94AB27E1E0F0E0EC0FE2
:10295000FD1FEE0DFF1D8083882379F08C3731F445
:10296000FE01EE0DFF1D12827801B4CFFFEFEF1ACA
:10297000FF0A27E0E216F10419F780911806877024
:10298000882361F0D60115968C91882339F08091C7
:102990001A0682FF03C082E00E948C052896EFE0B1
:1029A0000C94B124750196CF823049F45801F2E0BD
:1029B000AF0EB11C12968C910E940510A9CF8330E6
:1029C00049F45801B2E0AB0EB11CF80182810E94BB
:1029D0005B109ECF843019F00F5F1F4F9ACF129675
:1029E0002C910E5F1F4F80E090E06AE0A8014F5FDE
:1029F0005F4F2053330B2A30310558F0009709F40C
:102A000088CFAFE9BFE01197F1F700C00000019750
:102A1000F5CF689FF001699FF00D1124C9018E0F59
:102A20009F1FF80121818A01E1CFE82FF0E0E057F4
:102A3000F74F6490282F26952695269530E0F901CA
:102A4000E058F74FA4908770782EB12C082E02C062
:102A5000B594A7940A94E2F7B1E0AB22BB24F90144
:102A6000E059F74F8490912C02C0959487948A95F1
:102A7000E2F7E1E08E229924F901E05AF74F5490F1
:102A8000A114B104C1F48114910421F560E070E057
:102A9000862D0E949110E52DF0E0072C02C0F595DF
:102AA000E7950A94E2F7E0FF34CF60E070E08CE253
:102AB0000E9491102ECF81EE0E9405108114910486
:102AC00049F460E070E0862D0E94911081EE0E9432
:102AD0005B10E1CF86EE0E94051060E070E0862D6D
:102AE0000E94911086EE0E945B10AB28A1F2EECFFF
:102AF00026E241EE61EE0E94AF133FCF27E245EEA2
:102B000065EEF9CF26E241EE60EEF5CF27E245EE25
:102B100064EEF1CF26E241EE62EEEDCF27E245EE24
:102B200066EEE9CF28E241E0EBCF0631FCE71F0774
:102B300009F0C7C080910F0669E2811165E384E462
:102B400093E00E9480082DC18091190681608093D6
:102B500019066091190670911A0684E090E00E94AF
:102B6000E7270E94A91009CF80911A0688608093F8
:102B70001A06EFCF809119068260E9CF809119067D
:102B80008460E5CF809119068860E1CF80911A06B4
:102B90008160EDCF80911A068260E9CF809119069D
:102BA0008061D5CF809119068062D1CF80911906BE
:102BB0008064CDCF0E94A910809119068068C7CF8C
:102BC000809119068C60C3CF80911A068360CFCFA5
:102BD000809119068E7FBBCF80911A06877FC7CF61
:102BE000809119068D7FB3CF809119068B7FAFCF6F
:102BF00080911906877FABCF80911A068E7FB7CF61
:102C000080911A068D7FB3CF809119068F7E9FCF5A
:102C1000809119068F7D9BCF809119068F7B97CF6E
:102C20000E94A910809119068F7791CF8091190683
:102C3000837F8DCF80911A068C7F99CF8091190662
:102C400082FB992790F921E0922790FB82F990FB73
:102C500083F97DCF80911A06982F909591708E7F81
:102C6000892B90FB81F983CF90911906892F8F7B57
:102C700096FF80646CCF0E94A91090911906892F4D
:102C800097FB87F9805863CF61E08EE090E00E9467
:102C9000C9275FCF60E0F9CF90911906892F8F7E09
:102CA00094FF806154CF90911906892F8E7F90FFF9
:102CB00081604DCF90911A06892F877F93FF88609E
:102CC00056CF07372CE7120709F49FC082E0083778
:102CD0003CE7130709F49AC0F6018581E080F18092
:102CE000882309F4B4C0C7010E94C30C182F682FB1
:102CF000C7010E94F704B701812F0E94B50C0E9402
:102D00009F068C01D6011596BC9015971696AC902F
:102D1000A2942FE0A222809118068770882301F1E7
:102D2000FB2CBB20F1F0812F807F803461F080E2AA
:102D3000800F8830A8F0812F807E803221F402300D
:102D400078F0AA2069F080911A0682FF09C082E01B
:102D50000E948C05809118068770FF24F3948111DE
:102D6000F12CE12FE295EF70103C08F0DBC0F0E0B1
:102D7000EF5DF64D0C94E92406318CE71807A1F4B9
:102D8000809111068A7A91E0811101C090E09093C0
:102D90000F0665E3811101C069E284E493E00E94BB
:102DA00066080E94650DE9CD07379CE7190721F1F8
:102DB00082E00837ACE71A0701F10A35BCE71B07C8
:102DC00009F441C030F50130FCE71F07D1F10330B1
:102DD0002CE7120781F101151C4709F07DCF0E94F5
:102DE000A910AFEFB4E3ECE0A150B040E040E1F750
:102DF00000C000000E94AC0881E00E94D50443E0BE
:102E000062E081E00E945605B8CD81E00E94E504B1
:102E1000F6CF0B358CE71807C1F00C351C4709F0CD
:102E20005BCF80911A0682FB882780F991E0892781
:102E30000E94EF0B51CF6FEF7FEF80E090E00E9498
:102E4000E7270E94D01081E0F3CF80E0F1CFC701E7
:102E50000E942805182F4FCFB12FBF70EB2E1031D5
:102E600018F0E29490EFE922BB20B9F0EE2069F06F
:102E700080E2800F883010F0011109C080911106A6
:102E80008E29809311060E94650D802F43C080918A
:102E900010068E2980931006F6CF802F0E945B10BB
:102EA000EE2009F43FC080E2800F883010F001115D
:102EB00004C08E2D0E94A40506C0E09480911006E7
:102EC0008E21809310060E94650D2CC0E12FEF70BB
:102ED000EE2E107F103219F0E29480EFE8220023EA
:102EE00049F0013009F46CC0BB2009F478C0AA2075
:102EF000D1F1CBCF80911A0682FD31C0BB2069F0A1
:102F0000EE2039F0809111068E29809311060E94DF
:102F1000650D80E00E94051005C080E00E945B10F6
:102F2000E110C7CFFF20B1F08091180680FD12C0DC
:102F3000D60115961C928695869586950E94D50495
:102F4000C6010E940E148091180686958695869576
:102F50000E94E50460E0C6010E94F70C1FCDBB2073
:102F600099F0A11004C08E2D0E94A10DDBCFF1E0DD
:102F7000AF12D8CF909112068E2D8923E81691F2C8
:102F80009E2990931206CECFA110CCCF8E2D0E94F9
:102F9000AB0D909112068E2D8923882329F08E2D5A
:102FA0008095892380931206809113069E2D982385
:102FB000992309F4B7CFE094E822E0921306B2CF48
:102FC000BB2029F025E02A1508F4ACCFCCCF34E0A3
:102FD0003A1508F4A7CF8E2D0E94AB0DA3CFAA20DF
:102FE000D1F3093349F48FEF97EEA3E0815090407D
:102FF000A040E1F700C00000802F0E945B1092CF3C
:10300000812F869586958370882361F0813009F041
:1030100089CFC8019370B11002C080E090E00E9497
:10302000400880CFC8019370B11002C080E090E0EA
:103030000E941A0877CF6B2D802F0E94310F72CF1C
:10304000812F8370811142C0B1102FC0402F429553
:1030500046954770440F440F202F2F7030E0042E08
:1030600002C0220F331F0A94E2F780E090E004FFD1
:1030700009C08FE090E002C0880F991F4A95E2F7DF
:10308000809590951695169513701230B1F0133007
:1030900089F04091140650911506113049F0822BA9
:1030A000932B842395230E94CB040E940D083ACFD2
:1030B000242B352B822B932BF6CF822B932B209115
:1030C00014063091150682279327EDCFBB2091F18E
:1030D00010FFEBCF402F429546954770440F440FA9
:1030E000202F2F7030E0042E02C0220F331F0A94CD
:1030F000E2F780E090E004FF09C08FE090E002C0BA
:10310000880F991F4A95E2F7809590951695169528
:1031100013701230C1F0133099F04091160650919F
:103120001706113059F0822B932B842395230E948C
:10313000D004BBCF823008F4B8CFCCCF242B352BB2
:10314000822B932BF4CF822B932B20911606309158
:10315000170682279327EBCF1F70BB2039F0812FF2
:103160000E94D504802F0E94A10D9FCF802F0E9426
:10317000AB0D812F0E94E50498CF023F71F178F4E6
:10318000003FC1F0013F09F442C0BB2009F461C017
:10319000AA2009F45BC0802F0E94051086CF033F50
:1031A00019F1043F81F1B110F3CFA11060C0812F5C
:1031B0008F71E0CFBB2071F0B4E0BA1508F475CF81
:1031C0001F7181E090E0012E02C0880F991F0A94C0
:1031D000E2F7BBCFE5E0AE16F1CF812F8F71B110D2
:1031E000C9CF0E94D50461CF80E090E0BB2009F4F4
:1031F0009ECF1F7181E090E0012E02C0880F991FC1
:103200000A94E2F794CF90911A0692FD06C0812F9E
:103210008F71BB2009F4AECFE4CFBB2061F0812FCA
:103220008F7192FFDECFF8E08F9F90011124236011
:1032300020931806D6CF81E00E948C0521E02A1544
:1032400008F033CF82E00E948C052FCF812F8F7141
:10325000C8CFAA2009F4ABCF093349F43FEF87EE7A
:1032600093E0315080409040E1F700C00000802F93
:103270000E945B101ACFF801E851FC47E730F105D6
:1032800008F053CCE35DF64D0C94E924F801E851C5
:10329000FC47E730F105B0F310920E06C8019057D5
:1032A000839708F069CD84E090E00E94B327909363
:1032B0001A0680931906F801E150F047E232F10551
:1032C00008F042CCEC5CF64D0C94E9248091FC05AE
:1032D000803178F48091FB05882359F0E091F50561
:1032E0002091BC053091F7054091F60557E02E136B
:1032F00001C008956E2F70E05E9FF0011124DF0180
:10330000A354BA4F14968C911497882361F11196A7
:103310008C911197831327C08C91841324C0159628
:103320008C91159781111FC012968D919C91A0913F
:10333000F805B091F9058A1B9B0B883C910598F420
:103340008091FC058F7080618093FC05ED53FA4FEE
:1033500080818F708061808386EF95E00E940E14DB
:103360000E9482050895FB013196E770C0CFADE061
:10337000B0E0EDEBF9E10C9496248C0186E0F801C5
:10338000DE01189601900D928A95E1F7F8017080A0
:10339000F580A280B380848196EF892E95E0992EE6
:1033A0006090FA05611018C0882399F0FF2009F495
:1033B00013C1C8010E94260D882309F40DC187E0BE
:1033C000F801A6EFB5E001900D928A95E1F70E9411
:1033D0006619FF24F39453C0D090FB052091F805A3
:1033E0003091F905A501421B530BDD2009F4C4C03F
:1033F000483C510508F07AC0882359F38091F705BD
:10340000C180E090FC05FFE0FE1508F459C0C81229
:1034100015C08091F605871111C0F1104BC08E2D9B
:103420008F7080618093FC0586EF95E00E940E14FA
:103430008091FC05F8018683F12C21C0F1103AC07F
:1034400040E06C2D872D0E941B0A40E06C2D872DDB
:103450000E941B0AF82E8111EFCF888599850E9462
:10346000170D292F22952F70903470F49F70223001
:10347000A0F09923B1F0F8019681903190F48F2D4E
:103480002D96EEE00C94B2242A5F2F70223068F063
:10349000C8010E940E14FD2CF2CF992311F088234D
:1034A00071F3805E883058F3F3CF803F40F3815F43
:1034B0008230F9CF8091FC0581608093FC05BCCF00
:1034C000C8123CC08091F605871138C0F11036C093
:1034D000F801E682C8010E940E1487E0F801A6EF09
:1034E000B5E001900D928A95E1F773CFE090FC056D
:1034F000FFE0FE1550F086EF95E00E940E1487E085
:10350000F40111928A95E9F797CF882309F461CFE6
:103510009091F705F8018181981310C08091F6050C
:1035200087110CC0F1100AC0E682C8010E940E1477
:1035300087E0F40111928A95E9F74BCFC8010E9408
:10354000260D882309F448C0FF2009F445C0809166
:10355000FC05803208F433CF8091F6059091F70591
:103560009A838983BC82AB826D821E82EF82CE01F8
:1035700001960E940E1423CF483C510508F0BFCF9E
:10358000882309F426CFFF2039F19091F705818136
:10359000981318C08091F605871114C08091FC051E
:1035A00080FD9BCF803108F498CF8683807F803F59
:1035B00009F490CF8681982F907F905F8F70892B30
:1035C000868388CFC8010E94260D8111F8CE809194
:1035D000FC0581608093FC05C8010E940E14F9CEA1
:1035E000ABE1B0E0E6EFFAE10C94A1244E8B5F8BE7
:1035F000688F798F8A8F9B8F9111109210061D8A88
:1036000086E0FE017696DE011F9601900D928A9566
:10361000E1F78B89882329F061E0CE010F960E94A3
:10362000F70C87E0FE013F96DE01189601900D929F
:103630008A95E1F7CE0108960E94B71981112BC037
:1036400087E0FE013896DE01119601900D928A9571
:10365000E1F72091BC054091F5058C858823D9F0D0
:1036600030E0C90101968770992750E084179507CB
:10367000E9F097E0929FD001939FB00D1124A354DD
:10368000BA4FFE01319601900D929A95E1F7809321
:10369000BC050E94820517E08091F5059091BC055C
:1036A000891312C06B96E3E00C94BD240E94A9100C
:1036B0001092BC051092F50587E0E6EFF5E0DF011A
:1036C0001D928A95E9F7E7CF189FC0011124835412
:1036D0009A4F0E94B719882329F38091F50590E04D
:1036E0000196877099278093F505D6CFA6E0B0E0C4
:1036F000ECE7FBE10C94A0240E94FD0E8C0180916C
:10370000B0059091B1058017910779F019821A825E
:103710000E94FD0EBC0149815A8180E090E00E9428
:10372000F01A1093B1050093B0052696E4E00C94CE
:10373000BC24A2E0B0E0EFE9FBE10C94A024EAEFA6
:10374000F2E064E073E041E050E000E010E021913D
:103750002F3FB1F1A22FA295AF70A05EB0E08C9187
:1037600090E02F7002C0959587952A95E2F78170B9
:10377000811126C0CA01082B192B440F551F6E1743
:103780007F0729F71A83098342E050E0BE016F5F8B
:103790007F4F84E793E00E94FF24892BA1F01093D0
:1037A00075030093740381E080934E030E94FD0E25
:1037B00090934D0380934C032296E4E00C94BC2438
:1037C00080E090E0D8CF80914E038823A9F38091C8
:1037D0004C0390914D030E94A013059768F342E0BB
:1037E00050E064E773E08DEA95E00E94FF24892BA6
:1037F00041F080917403909175039093AE0580938E
:10380000AD0510924E03D8CFCDB7DEB7A4970FB653
:10381000F894DEBF0FBECDBF85B7806885BF85B782
:10382000806885BF84B7877F84BF0FB6F894A8955A
:1038300080916000886180936000109260000FBEEC
:1038400080E890E00FB6F894809361009093610057
:103850000FBE88EB97E090934303809342030E944E
:103860006A090E94C0098091E20084608093E200AE
:1038700078948091AF05882399F08091E9001091A8
:10388000EC001795112717958F70182B1092E900EF
:103890008091E80083FD0E94E6101F701093E900FC
:1038A00082E084BD93E095BD9AEF97BD80936E0052
:1038B0000E944C0D811102C00E947B0CAAEFB2E065
:1038C00044E053E021E030E08D918F3FA1F0E82FFC
:1038D000E295EF70F0E061A18F70890102C0000FE6
:1038E000111F8A95E2F7C801902F9095962391A316
:1038F00092A1892B82A34A175B0731F71092AE057C
:103900001092AD05109275031092740380E090E060
:103910000E94B327853E9E4F21F40E944C0D8111D9
:1039200066C065EE7EEF80E090E00E94E72760E0F1
:1039300082E090E00E94C92781E090E09093150614
:103940008093140661E083E090E00E94C92760E064
:1039500074E184E090E00E94E72760E086E090E078
:103960000E94C92760E087E090E00E94C92740E0FC
:1039700050E0BA0188E090E00E94DB2760E083E23B
:1039800090E00E94C92760E08CE090E00E94C92787
:1039900060E08DE090E00E94C92719821A821B82A4
:1039A0001C821D821E821F82188648E050E067E15B
:1039B00070E0CE0101960E94B92740E050E0BA01C4
:1039C0008FE190E00E94DB2780E00E945D0C0E9466
:1039D0007B0C40E050E0BA018FE090E00E94DB27D2
:1039E00040E050E0BA0183E190E00E94DB2782E0F2
:1039F00090E00E94AB278093780384E090E00E94DF
:103A0000B32790931A06809319060E94991B2FEFF3
:103A100036E741E0215030404040E1F700C000006F
:103A20000E94991B8091AD0580FF08C06FEF7FEF6A
:103A300080E090E00E94E7270E94AC0883E090E0DD
:103A40000E94AB2790E00E94CB0482E080939E0509
:103A500080E880937D030E945E236BE070E089E440
:103A600098E00E94B20D882309F443C080919E051E
:103A700065E070E081FD1CC184E498E00E94B20D15
:103A80008823B9F16DE070E082E398E00E94B20D06
:103A9000882379F10E948F0869A37AA38BA39CA342
:103AA000DC01CB01805A9541AF4FBF4F8093A205F7
:103AB0009093A305A093A405B093A505EEE9F3E0C8
:103AC00080E092E0DF018C011D9201501040E1F78F
:103AD000F0937C03E0937B038FEF9FEF9093A1051E
:103AE0008093A00581E08093A7058093A60510929E
:103AF0009F0581E091E09093B3058093B2059E010C
:103B00002F5F3F4F790166246394712C8091AF053C
:103B1000853049F48091AF05853009F4CCC00E940E
:103B2000A9100E940D080E94991BA0907903B090E3
:103B30007A030091AD051091AE05A016B10609F00B
:103B40000AC10E94761B8091A705882309F438C119
:103B5000B12CAEE9B3E0B0937C03A0937B038091DA
:103B60001606909117060E94A704182F88E598E082
:103B70000E94B00E1F921F93E8EEF2E0FF93EF93C6
:103B80001F9283E08F93FF92EF920E940C25C70152
:103B90000E94BE0E81E00E947E0E809116069091DA
:103BA00017060E94A704082F80917D0390E0880FDC
:103BB000991F82569C4F90937C0380937B030FB692
:103BC000F894DEBF0FBECDBF12E0612F70E0802FF2
:103BD0000E94B50C0E943A0A0E94BE0E86E598E04B
:103BE0000E94B00E1F5F163081F720917D0330E0F8
:103BF000C901880F991F820F931F811532E0930727
:103C000014F080E090E082569C4F90937C03809368
:103C10007B03612F70E0802F0E94B50C0E943A0A4E
:103C20000E94BE0E84E598E00E94B00E1F5F1A301D
:103C300081F78091A0059091A105892B99F0809141
:103C4000A705882379F080919F0581110BC00E9400
:103C5000D10D2091A0053091A10580E021153105FD
:103C600009F033C18091A6058823F9F00E948F08DE
:103C700069A37AA38BA39CA38091A2059091A3052D
:103C8000A091A405B091A50509A11AA12BA13CA161
:103C9000081B190B2A0B3B0BD901C8018F3F9F4F03
:103CA000AF4FBF4710F40E94BF0DB11087C088C04E
:103CB0008FE398E0E3CE8091AF05843031F10E942C
:103CC000BF0D1092760348E150E080E40FB6F894FF
:103CD000A895409360000FBE8093600083B7817FFA
:103CE000846083BF83B7816083BF7894889583B7EE
:103CF0008E7F83BF0FB6F894A8958091600088618D
:103D000080936000109260000FBE8091770388233B
:103D100009F400CF0E94991B8091AD059091AE05EA
:103D2000892B09F4F7CE80E189BD82E189BD09B410
:103D300000FEFDCF8091D8008F7D8093D8008091C8
:103D4000E00082608093E0008091E00081FDFCCF84
:103D50000E94A910DFCEA026B126912CCC24C394BA
:103D6000D12C88248394C5018C219D21892BB1F00D
:103D700099821A820E94FD0E9C838B838D8291E032
:103D800098012C213D21232B09F490E09E83498149
:103D90005A816B817C818D810E94F01A9394CC0CA6
:103DA000DD1C9AE09912DFCF10937A030093790318
:103DB0000E948F08B090A705B110CBCE0E94D10D04
:103DC00086E0E8E0F6E0D70101900D928A95E1F7F0
:103DD000A090090600910A0610910B06C0900C06EF
:103DE000D0900D0610920A0610920B0610920C0647
:103DF00010920D06812F802B882379F08091AA05DF
:103E00009091AB050E94A0139C0180910606811140
:103E100018C12B30310508F01AC18D2D8C2988234B
:103E200079F08091A8059091A9050E94A0139C01AA
:103E300080910506811143C12B30310508F045C141
:103E4000809109068A1116C080910A06882311F014
:103E5000081310C090910B06992311F019130AC092
:103E600020910D06211106C020910C06211102C0DF
:103E7000892B81110E94090F86E0F701A8E0B6E0C6
:103E800001900D928A95E1F70E940D089091AC0582
:103E9000891721F08093AC050E948F088091AF05AF
:103EA000843009F033CE83E08093E9008091E8000C
:103EB00082FF2CCE8091E80085FD3FC18091E80013
:103EC0008B778093E80022CE8F5F082F10E063018C
:103ED000082E02C0CC0CDD1C0A94E2F7A601422396
:103EE0005323452B89F390919E0590FD43C0980183
:103EF0003695279536952795922F8295880F80764F
:103F00003FE1380F80930D012093100130930E0193
:103F10009093110124E630E047E050E06BE071E05F
:103F200088E70E949423892B09F09CCEA80125E004
:103F3000440F551F2A95E1F780919E0580FD22C010
:103F400042565C4F04E610E020E230E060E488E78F
:103F50000E942C24892B09F085CEC094D0948091A6
:103F6000A0059091A105C822D922D092A105C092A6
:103F7000A00578CE880F880F880F37E0380F20E033
:103F800093E0C0CF80E2AEE7B3E01D928A95E9F7F7
:103F9000E8E0F3E0FAA3E9A304E013E0A9A1BAA1E1
:103FA0006D91BAA3A9A3F80181918F01840F952F78
:103FB000911D9C0122563C4F1901E62FF0E0E2587A
:103FC000FC4F20E030E097E0992E921AA62C022EAA
:103FD00001C0AA0C0A94EAF7210190E0D2018D9168
:103FE0002D018A21692D691B677070E0B82F062E9C
:103FF00001C0BB0F0A94EAF771956195710967706A
:10400000772701C086956A95EAF78B2B6081682B2C
:1040100060839F5F983011F72F5F3F4F31962830B4
:10402000310589F6ECE0F3E029A13AA1E217F307A4
:1040300009F0B4CF04E610E020E230E04EE753E0B0
:1040400085CF2531310508F4E8CE8F3F19F08F5F19
:1040500080930606002359F00E94C8079FEF1016B0
:104060000CF491E0899F802D112480930A0611237E
:1040700059F00E94C80791E011160CF09FEF899F3C
:10408000802D112480930B0680910A06882309F461
:10409000C4CEB0900B06BB2009F4BFCE0E94BA0775
:1040A000811101C081E080930A068B2D0E94BA071E
:1040B000882319F080930B06B0CE81E0FBCF213529
:1040C000310508F4BDCE8F3F19F08F5F8093050650
:1040D000CC2059F00E94E8079FEF1C140CF491E0EB
:1040E000899F802D112480930C06DD2059F00E94B9
:1040F000E80791E01D140CF09FEF899F802D11249B
:1041000080930D0680910C06882309F499CED090F7
:104110000D06DD2009F494CE0E94BA07811101C07A
:1041200081E080930C068D2D0E94BA07882319F038
:1041300080930D0685CE81E0FBCF0E94390988234C
:1041400071F08091E8008B778093E800E981E1507D
:10415000E33180F5F0E0EA5AF64D0C94E92480E270
:10416000C82ED12C87018091E80085FD0AC080917E
:10417000E8008B778093E8000E943909882399F33F
:10418000E0CF8091F100D8018C93B1E0CB1AD10837
:10419000C114D104B1F20F5F1F4FE5CF1A828CE03A
:1041A0008B831AC08A81833039F138F4813061F011
:1041B0008230C9F08FEF89830FC08430D9F71B821A
:1041C0001C821D821E8208C00E948F080E94EF245C
:1041D0006B837C838D839E8340E250E0B70182E055
:1041E0000E948C0B93CC87E290E00E94AB271B824D
:1041F0001C821D828E83F0CF8B818111EDCF809147
:10420000AD059091AE059827892798279D838C83CB
:10421000E3CF8A81823019F08530F1F2CBCF0B8168
:104220001C812D813E8109A31AA32BA33CA3C901A4
:10423000B8010E94EF2487E290E00E94C927CCCF0A
:104240004C816B818A810E948B0C98278927982743
:104250009E838D83C1CF2D813E8132272327322734
:104260004C816B818A810E94060CB6CF0E94280C7B
:10427000B3CF80E18A83B0CF83E08A8380E190CF9F
:10428000AA80BB80BA24AB24BA248C816501C80EF5
:10429000D11C8E010B5F1F4FAC14BD0409F49CCFE1
:1042A00080E020E1A21623E0B20628F4C501805187
:1042B0009F4F0E94AB27D8018D938D01BFEFAB1AA2
:1042C000BB0AEACF0A811B8110270127102757015B
:1042D000CC80CE0CDF2CD11CCA14DB0409F47CCFBB
:1042E0000031E3E01E0740F4D50114966C91C8013B
:1042F00080519F4F0E94C9270F5F1F4FBFEFAB1A1E
:10430000BB0AEACF0E944D0C67CF8AE0B3CFAA80E8
:10431000BB80BA24AB24BA248C816501C80ED11CA1
:104320008E010B5F1F4FCA14DB0409F455CF80E0E8
:10433000E8ECAE16B10420F4C50188960E94AB27C4
:10434000D8018D938D01BFEFAB1ABB0AECCF0A8168
:104350001B811027012710275701CC80CE0CDF2CA2
:10436000D11CAC14BD0409F437CF083C110530F45E
:10437000F5016481C80188960E94C9270F5F1F4F0D
:10438000FFEFAF1ABF0AEDCF78941F921FB61F92AE
:1043900011248F939F93AF93BF9380916C0390915F
:1043A0006D03A0916E03B0916F030196A11DB11D25
:1043B00080936C0390936D03A0936E03B0936F038F
:1043C000BF91AF919F918F911F901FBE1F90189525
:1043D0001F920F920FB60F9211242F933F934F937A
:1043E0005F936F937F938F939F93AF93BF93EF935D
:1043F000FF938091E10082FF09C08091E20082FF7B
:1044000005C08091E1008B7F8093E1008091DA000C
:1044100080FF24C08091D80080FF20C08091DA0006
:104420008E7F8093DA008091D90080FF9BC080E16D
:1044300089BD82E189BD09B400FEFDCF81E0809392
:10444000AF0580915A03811109C00E946A090E9438
:10445000C0098091E20084608093E2008091E100D5
:1044600080FF17C08091E20080FF13C08091E200BE
:104470008E7F8093E2008091E20080618093E20071
:104480008091D80080628093D80019BC85E0809329
:10449000AF058091E10084FF29C08091E20084FF94
:1044A00025C080E189BD82E189BD09B400FEFDCF50
:1044B0008091D8008F7D8093D8008091E1008F7E1D
:1044C0008093E1008091E2008F7E8093E2008091F2
:1044D000E20081608093E20080915903882309F40F
:1044E00047C084E08093AF058091AF058091E100E3
:1044F00083FF27C08091E20083FF23C08091E10009
:10450000877F8093E10082E08093AF05109259038A
:104510008091E1008E7F8093E1008091E2008E7FA8
:104520008093E2008091E20080618093E20042E0AB
:1045300060E080E00E9489098091F00088608093AB
:10454000F000FF91EF91BF91AF919F918F917F917B
:104550006F915F914F913F912F910F900FBE0F90F0
:104560001F90189519BC1092AF0510925A0376CF80
:104570008091E30087FF02C083E0B4CF81E0B2CF37
:104580001F920F920FB60F921124FF920F931F9359
:104590002F933F934F935F936F937F938F939F934B
:1045A000AF93BF93CF93DF93EF93FF9309EE10E0A8
:1045B000F8018081C091EC00C795CC27C7958F701A
:1045C000FC2EF82A1082C0EFD0E08881877F888394
:1045D00078940E94E610F8011082888188608883B0
:1045E000CF2DCF70C083FF91EF91DF91CF91BF911D
:1045F000AF919F918F917F916F915F914F913F917B
:104600002F911F910F91FF900F900FBE0F901F9051
:104610001895FF920F931F93CF93DF93182FEB0101
:104620001092BC0084EA8093BC000E94FD0E082F0B
:10463000F92E8091BC0087FF28C08091B900887F47
:10464000883029F08091B900887F8031A1F51093DE
:10465000BB0084E88093BC000E94FD0E182F092F38
:104660008091BC0087FF1FC02091B900287F80E0A7
:1046700090E0283199F081E090E0203411F480E05E
:1046800090E091958195910909C0802F9F2D0E94FE
:10469000A013C817D90768F68EEF9FEFCDB7DEB726
:1046A000E5E00C94BB24812F902F0E94A013C81723
:1046B000D907B0F6F1CF8FEF9FEFF0CF1092B9008E
:1046C0008CE08093B80008950F931F93CF93DF93EE
:1046D000EB018093BB0084E88093BC000E94FD0E38
:1046E000182F092F8091BC0087FF11C02091B900BD
:1046F000287F81E090E0283211F480E090E09195ED
:1047000081959109DF91CF911F910F910895CF3F2E
:10471000DC0741F3812F902F0E94A013C817D907FF
:1047200008F78EEF9FEFEECFA0E0B0E0EAE9F3E20A
:104730000C949724782E5B016A0189010E94FD0E7A
:104740004C010431110560F10F3F100769F1C801F8
:1047500064E170E00E947E24F62EE72E6F2D7E2D00
:10476000872D0E940923EC0197FF09C00F3F100716
:10477000A9F3C4010E94A0130817190778F775015F
:10478000CA0CDB1CEC14FD0411F0D7FF10C084E947
:104790008093BC00CE01CDB7DEB7EDE00C94B3241E
:1047A000FF24F394E12CDACF85E0F82EFBCFB8019B
:1047B000F70181917F010E946423EC01E3CFA0E027
:1047C000B0E0E5EEF3E20C949724782E5B016A01E9
:1047D00089010E94FD0E4C010431110560F10F3F6B
:1047E000100769F1C80164E170E00E947E24F62E92
:1047F000E72E6F2D7E2D872D0E940923EC0197FF58
:1048000009C00F3F1007A9F3C4010E94A0130817A5
:10481000190778F77501CA0CDB1CEC14FD0411F0C4
:10482000D7FF10C084E98093BC00CE01CDB7DEB7BE
:10483000EDE00C94B324FF24F394E12CDACF85E06F
:10484000F82EFBCFF7018491B8010E946423EC019C
:10485000FFEFEF1AFF0AE1CFA0E0B0E0E2E3F4E2FD
:104860000C949624682E962E5A01690178010E94B4
:10487000FD0E782E892E0431110530F10F3F1007FF
:1048800031F1C80164E170E00E947E24162F072FE9
:10489000612F702F862D0E940923EC0197FF19C00C
:1048A000FFEFEF16FF06A1F3872D982D0E94A013AE
:1048B000E816F90668F784E98093BC00CE01CDB70D
:1048C000DEB7EEE00C94B22411E000E0E1CF15E099
:1048D000FCCFB701892D0E946423EC018501CA0C2D
:1048E000DB1C0C151D0539F3D7FDE5CFB701F80129
:1048F00081918F010E946423EC01F3CFAA1BBB1BA3
:1049000051E107C0AA1FBB1FA617B70710F0A61BCF
:10491000B70B881F991F5A95A9F780959095BC01F0
:10492000CD0108952F923F924F925F926F927F92A6
:104930008F929F92AF92BF92CF92DF92EF92FF92AF
:104940000F931F93CF93DF93CDB7DEB7CA1BDB0B5B
:104950000FB6F894DEBF0FBECDBF09942A88398800
:1049600048885F846E847D848C849B84AA84B98407
:10497000C884DF80EE80FD800C811B81AA81B98113
:10498000CE0FD11D0FB6F894DEBF0FBECDBFED0127
:104990000895991B79E004C0991F961708F0961B9B
:1049A000881F7A95C9F78095089597FB072E16F40E
:1049B000009407D077FD09D00E947E2407FC05D023
:1049C0003EF4909581959F4F0895709561957F4F26
:1049D0000895EE0FFF1F0590F491E02D09946927CB
:1049E000962769277827872778270895FB01DC0118
:1049F00002C005900D9241505040D8F70895FB0138
:104A0000DC0104C08D910190801921F44150504087
:104A1000C8F7881B990B0895AEE0B0E0E2E1F5E23B
:104A20000C94A0240D891E898F89988D26E02C83F3
:104A30001A83098397FF02C080E090E801979E8364
:104A40008D83AE01455E5F4F698D7A8DCE010196F3
:104A50000E943C254D815E8157FD0AC02F8138851B
:104A6000421753070CF49A01020F131FF80110822A
:104A70002E96E4E00C94BC24ABE0B0E0E2E4F5E276
:104A80000C9492247C013B018A01FC01178216825E
:104A9000838181FFB9C19AE0292ECE0101965C0184
:104AA000F7019381F30193FD859193FF81913F017C
:104AB000882309F446C1853239F493FD859193FF2B
:104AC00081913F01853229F4B70190E00E941D27B2
:104AD000E7CF912C412C512CFFE1F51538F08B32AA
:104AE00009F188F4803201F1833221F157FC3AC098
:104AF00020ED280F2A3040F556FE1FC0929C200D55
:104B00001124922E06C08D3291F0803379F768948B
:104B100050F8F30193FD859193FF81913F0181113D
:104B2000DBCF20C0689451F8689452F8F2CF6894B3
:104B300053F8EFCF689454F8ECCF429C200D112429
:104B4000422E689455F8E5CF8E3229F456FCF9C010
:104B5000689456F8DECF8C3619F4689457F8D9CF9C
:104B60008836B9F2982F9F7D95549330C0F08336E4
:104B7000A1F18337C1F1833509F05BC0F801C19021
:104B8000D1908F01692D70E056FC02C06FEF7FEF6E
:104B9000C6010E9407274C01689457F80AC00C5FB1
:104BA0001F4F2FE3298388248394912C6501E89477
:104BB00057F853FC04C04814190409F018F5342CB4
:104BC0008114910431F5332009F46ACFB70180E2F2
:104BD00090E00E941D273A94F6CFF80180818983E6
:104BE0000E5F1F4FE0CFF801C190D1908F01692D6A
:104BF00070E056FC02C06FEF7FEFC6010E941227E3
:104C00004C01D5CFB70180E290E00E941D274A9465
:104C1000D2CFF60157FC859157FE81916F01B70104
:104C200090E00E941D2731103A94F1E08F1A91080C
:104C3000C7CF843619F0893609F074C0F80157FEE1
:104C40006AC061917191819191918F01252D2F768B
:104C5000D22E97FF09C090958095709561957F4FF2
:104C60008F4F9F4F6894D7F82AE030E0A5010E944B
:104C70004D27C82ECA188C2C5D2CD6FE0CC0E8948B
:104C800050F8C91440F4D4FE05C0D2FC03C0FD2D79
:104C9000FE7E5F2E892C54FE8FC0FE01EC0DF11DAF
:104CA0008081803309F081C0252D297E522E852DEB
:104CB0008870382E53FC8FC050FE89C09C2C841401
:104CC00018F44C0C942C981854FE8BC0B70180E358
:104CD00090E00E941D2752FE09C088E790E051FE37
:104CE00002C088E590E0B7010E941D27C91408F4AE
:104CF00084C0CA94D12C9FEFC91AD90ACA0CDB1CF4
:104D0000F60182916F01B70190E00E941D27AC145B
:104D1000BD04B1F758CF61917191072E000C880B3B
:104D2000990B93CFD52CE894D4F82AE030E085375E
:104D300039F1952D997FD92E8F3601F148F48835B8
:104D4000A9F0F701868197812B96E2E10C94AE24BD
:104D5000803749F08837A9F7D4FE02C06894D2F8AA
:104D600020E130E00DC06894D4F8F6CF54FE03C0C3
:104D7000E92FE660DE2E20E132E002C028E030E0DC
:104D8000F801D7FE0DC061917191819191918F01D0
:104D9000A5010E944D27C82ECA18E894D7F86BCFFA
:104DA0006191719190E080E0F2CF52FC02C0839457
:104DB0007ECF839483947BCF852D867809F477CF3B
:104DC000F6CFB70180E290E00E941D2783948414FF
:104DD000C0F3312C79CF342C3818841408F474CFF4
:104DE000F8CF852D867809F481CF8BE251FE80E2E1
:104DF00057FC8DE2B70190E077CFB70180E390E0F8
:104E00000E941D279A9472CF8FEF9FEF9DCFFC01D8
:104E10000590615070400110D8F7809590958E0FE5
:104E20009F1F0895FC016150704001900110D8F758
:104E3000809590958E0F9F1F08950F931F93CF938A
:104E4000DF93182F092FEB018B8181FD09C01FEF24
:104E50000FEF812F902FDF91CF911F910F91089528
:104E600082FF14C02E813F818C819D8128173907D4
:104E70003CF4E881F981CF010196998388831083FE
:104E80008E819F8101969F838E83E3CFE885F9858C
:104E9000812F0995892BA1F3DACFFA01AA272830AF
:104EA00051F1203181F1E8946F936E7F6E5F7F4FF7
:104EB0008F4F9F4FAF4FB1E03ED0B4E03CD0670F73
:104EC000781F891F9A1FA11D680F791F8A1F911DC6
:104ED000A11D6A0F711D811D911DA11D20D009F416
:104EE00068943F912AE0269F11243019305D319358
:104EF000DEF6CF010895462F4770405D4193B3E041
:104F00000FD0C9F7F6CF462F4F70405D4A3318F0E7
:104F1000495D31FD4052419302D0A9F7EACFB4E098
:104F2000A6959795879577956795BA95C9F7009750
:104F30006105710508959B01AC010A2E06945795F1
:104F4000479537952795BA95C9F7620F731F841F48
:104F5000951FA01D0895F999FECF92BD81BDF89AC5
:104F6000992780B50895A8E1B0E042E050E00C94A4
:104F7000EF27DC01A40FB51F4150504048F0CB0192
:104F8000840F951F2E910E94CA2741505040D0F7A0
:104F90000895262FF999FECF92BD81BDF89A019709
:104FA00000B4021639F01FBA20BD0FB6F894FA9A71
:104FB000F99A0FBE08950396272F0E94CA270E94D0
:104FC000C927252F0E94CA27242F0C94CA2701968F
:104FD000272F0E94CA270C94C927DC01CB01FC01B2
:104FE000F999FECF06C0F2BDE1BDF89A319600B442
:104FF0000D9241505040B8F70895F894FFCF7D0BC3
:105000005E0A5E0A4C0A830B780A7B0A7E0A810AD2
:10501000840A870A8A0A8D0A900A930A960A990ACC
:105020009C0A9F0AA20AA50AA80AAB0AAE0AB10AFC
:10503000B40AB70ABA0ABD0AC00AC30AC60AC90A2C
:10504000CC0ACF0AD20AD50AD80ADB0ADE0AE10A5C
:10505000E40AE70AEA0AED0AF00AF30AF60AF90A8C
:10506000FC0AFF0A020B050B080B0B0B0E0B5E0A6A
:10507000110B140B170B1A0B1D0B200B230B260BFC
:10508000290B2C0B2F0B320B5E0A5E0A5E0A5E0A9E
:105090005E0A5E0A5E0A5E0A5E0A710B740B7A0B88
:1050A000770B5E0A5E0A5E0A5E0A5E0A5E0A5E0AA6
:1050B0005E0A5E0A5E0A5E0A5E0A5E0A5E0A5E0AB0
:1050C0005E0A5E0A5E0A5E0A5E0A5E0A350B380BED
:1050D0003B0B3E0B410B440B470B4A0B4D0B500B4C
:1050E000530B560B5E0A5E0A5E0A5E0A5E0A5E0A91
:1050F0005E0A5E0A5E0A5E0A5E0A5E0A5E0A5E0A70
:105100005E0A5E0A5E0A5E0A5E0A5E0A5E0A5E0A5F
:105110005E0A5E0A5E0A5E0A5E0A5E0A5E0A5E0A4F
:105120005E0A5E0A5E0A5E0A5E0A5E0A5E0A5E0A3F
:105130005E0A5E0A5E0A5E0A5E0A5E0A5E0A5E0A2F
:105140005E0A5E0A5E0A5E0A5E0A5E0A5E0A5E0A1F
:105150005E0A5E0A5E0A5E0A5E0A5E0A5E0A5E0A0F
:105160005E0A5E0A5E0A5E0A5E0A5E0A5E0A5E0AFF
:105170005E0A5E0A5E0A5E0A5E0A5E0A5E0A5E0AEF
:105180005E0A5E0A5E0A5E0A5E0A5E0A5E0A5E0ADF
:105190005E0A5E0A5E0A5E0A5E0A5E0A5E0A5E0ACF
:1051A0005E0A5E0A5E0A5E0A5E0A5E0A5E0A5E0ABF
:1051B0005E0A5E0A5E0A5E0A5E0A5E0A590B5C0BB4
:1051C0005F0B620B650B680B6B0B6E0B5E0A5E0A66
:1051D0005E0A5E0A5E0A5E0A5E0A5E0A5E0A5E0A8F
:1051E0005E0A5E0A5E0A5E0A5E0A5E0A5E0A5E0A7F
:1051F0005E0A5E0A5E0A5E0A5E0A5E0A5E0A5E0A6F
:105200005E0A5E0A5E0A5E0A800B5A0F5D0F630F2C
:10521000780F780F780F780F780F780F780F780F56
:10522000660F6B0F6F0F750F860F8C0F900FC411E9
:10523000EA11F011EA11F01143126512F011611335
:105240006E132C172C176617661700181B18921769
:1052500092172018AC18BD18BD1882158615781540
:105260007E158A158E159215E8155316F015BA1588
:10527000BE15F415C215F8150416CE154C16D21528
:105280000816D6150C163416DA1510163B16E0154E
:1052900016161E16C615FC15CA150016E4151A16A4
:1052A0002A1644164A16B415EC155A16CE20D220EA
:1052B000092120212B213621DA20DA20DA20DA20F8
:1052C000DA2039213C214021622182218521872158
:0252D000A72114
:1052D20001BD08CA0BC008E10BE80B0021007F22C8
:1052E20000034120202000432020200044202020D1
:1052F20000452020200046202020004720202000BA
:10530200482020200049202020004A202020004B55
:10531200202020004C202020004D202020004E2064
:105322002020004F2020200050202020005120204B
:105332002000522020200053202020005420202032
:105342000055202020005620202000572020200039
:10535200582020200059202020005A2020200031EF
:105362002020200032202020003320202000342062
:105372002020003520202000362020200037202049
:10538200200038202020003920202000302020203A
:1053920000454E54200045534320004253504300E1
:1053A200544142200053504320002D202020003D34
:1053B200202020005B202020005D202020005C2097
:1053C20020200023202020003B2020200027202016
:1053D200200060202020002C202020002E202020D1
:1053E200002F2020200046312020004632202000BD
:1053F2004633202000463420200046352020004637
:10540200362020004637202000463820200046392A
:105412002020004631302000463131200046313212
:1054220020004631332000463134200046313520F9
:105432000046313620004631372000463138200000
:1054420046313920004632302000463231200046B3
:1054520032322000463233200046323420004C43A0
:10546200544C004C534654004C414C54004C47554C
:1054720049005243544C00525346540052414C543A
:1054820000524755490052474854004C4546540083
:105492005550202000444F574E0073616D65004304
:1054A20055542000434F5059005053544500422058
:1054B200202000253034580025640044227B490115
:1054C2002701AC00E306FC061C076697C63435F7D5
:1054D200313332360008101818100800E200E900D3
:1054E200EA00B500B600B700CD008301CC008A0106
:1054F200920194012102230224022502260227029C
:105502002A02B300B4006F0070009F01CB019F021A
:02551200A002F5
:00000001FF
